{
	".deps/npm/@gnosis.pm/safe-contracts@1.3.0/contracts/base/ModuleManager.sol": {
		"ModuleManager": {
			"abi": [
				{
					"anonymous": false,
					"inputs": [
						{
							"indexed": false,
							"internalType": "address",
							"name": "module",
							"type": "address"
						}
					],
					"name": "DisabledModule",
					"type": "event"
				},
				{
					"anonymous": false,
					"inputs": [
						{
							"indexed": false,
							"internalType": "address",
							"name": "module",
							"type": "address"
						}
					],
					"name": "EnabledModule",
					"type": "event"
				},
				{
					"anonymous": false,
					"inputs": [
						{
							"indexed": true,
							"internalType": "address",
							"name": "module",
							"type": "address"
						}
					],
					"name": "ExecutionFromModuleFailure",
					"type": "event"
				},
				{
					"anonymous": false,
					"inputs": [
						{
							"indexed": true,
							"internalType": "address",
							"name": "module",
							"type": "address"
						}
					],
					"name": "ExecutionFromModuleSuccess",
					"type": "event"
				},
				{
					"inputs": [
						{
							"internalType": "address",
							"name": "prevModule",
							"type": "address"
						},
						{
							"internalType": "address",
							"name": "module",
							"type": "address"
						}
					],
					"name": "disableModule",
					"outputs": [],
					"stateMutability": "nonpayable",
					"type": "function"
				},
				{
					"inputs": [
						{
							"internalType": "address",
							"name": "module",
							"type": "address"
						}
					],
					"name": "enableModule",
					"outputs": [],
					"stateMutability": "nonpayable",
					"type": "function"
				},
				{
					"inputs": [
						{
							"internalType": "address",
							"name": "to",
							"type": "address"
						},
						{
							"internalType": "uint256",
							"name": "value",
							"type": "uint256"
						},
						{
							"internalType": "bytes",
							"name": "data",
							"type": "bytes"
						},
						{
							"internalType": "enum Enum.Operation",
							"name": "operation",
							"type": "uint8"
						}
					],
					"name": "execTransactionFromModule",
					"outputs": [
						{
							"internalType": "bool",
							"name": "success",
							"type": "bool"
						}
					],
					"stateMutability": "nonpayable",
					"type": "function"
				},
				{
					"inputs": [
						{
							"internalType": "address",
							"name": "to",
							"type": "address"
						},
						{
							"internalType": "uint256",
							"name": "value",
							"type": "uint256"
						},
						{
							"internalType": "bytes",
							"name": "data",
							"type": "bytes"
						},
						{
							"internalType": "enum Enum.Operation",
							"name": "operation",
							"type": "uint8"
						}
					],
					"name": "execTransactionFromModuleReturnData",
					"outputs": [
						{
							"internalType": "bool",
							"name": "success",
							"type": "bool"
						},
						{
							"internalType": "bytes",
							"name": "returnData",
							"type": "bytes"
						}
					],
					"stateMutability": "nonpayable",
					"type": "function"
				},
				{
					"inputs": [
						{
							"internalType": "address",
							"name": "start",
							"type": "address"
						},
						{
							"internalType": "uint256",
							"name": "pageSize",
							"type": "uint256"
						}
					],
					"name": "getModulesPaginated",
					"outputs": [
						{
							"internalType": "address[]",
							"name": "array",
							"type": "address[]"
						},
						{
							"internalType": "address",
							"name": "next",
							"type": "address"
						}
					],
					"stateMutability": "view",
					"type": "function"
				},
				{
					"inputs": [
						{
							"internalType": "address",
							"name": "module",
							"type": "address"
						}
					],
					"name": "isModuleEnabled",
					"outputs": [
						{
							"internalType": "bool",
							"name": "",
							"type": "bool"
						}
					],
					"stateMutability": "view",
					"type": "function"
				}
			],
			"devdoc": {
				"author": "Stefan George - <stefan@gnosis.pm>Richard Meissner - <richard@gnosis.pm>",
				"kind": "dev",
				"methods": {
					"disableModule(address,address)": {
						"details": "Allows to remove a module from the whitelist.      This can only be done via a Safe transaction.",
						"params": {
							"module": "Module to be removed.",
							"prevModule": "Module that pointed to the module to be removed in the linked list"
						}
					},
					"enableModule(address)": {
						"details": "Allows to add a module to the whitelist.      This can only be done via a Safe transaction.",
						"params": {
							"module": "Module to be whitelisted."
						}
					},
					"execTransactionFromModule(address,uint256,bytes,uint8)": {
						"details": "Allows a Module to execute a Safe transaction without any further confirmations.",
						"params": {
							"data": "Data payload of module transaction.",
							"operation": "Operation type of module transaction.",
							"to": "Destination address of module transaction.",
							"value": "Ether value of module transaction."
						}
					},
					"execTransactionFromModuleReturnData(address,uint256,bytes,uint8)": {
						"details": "Allows a Module to execute a Safe transaction without any further confirmations and return data",
						"params": {
							"data": "Data payload of module transaction.",
							"operation": "Operation type of module transaction.",
							"to": "Destination address of module transaction.",
							"value": "Ether value of module transaction."
						}
					},
					"getModulesPaginated(address,uint256)": {
						"details": "Returns array of modules.",
						"params": {
							"pageSize": "Maximum number of modules that should be returned.",
							"start": "Start of the page."
						},
						"returns": {
							"array": "Array of modules.",
							"next": "Start of the next page."
						}
					},
					"isModuleEnabled(address)": {
						"details": "Returns if an module is enabled",
						"returns": {
							"_0": "True if the module is enabled"
						}
					}
				},
				"title": "Module Manager - A contract that manages modules that can execute transactions via this contract",
				"version": 1
			},
			"evm": {
				"assembly": "    /* \".deps/npm/@gnosis.pm/safe-contracts@1.3.0/contracts/base/ModuleManager.sol\":374:7004  contract ModuleManager is SelfAuthorized, Executor {... */\n  mstore(0x40, 0x80)\n  callvalue\n  dup1\n  iszero\n  tag_1\n  jumpi\n  0x00\n  dup1\n  revert\ntag_1:\n  pop\n  dataSize(sub_0)\n  dup1\n  dataOffset(sub_0)\n  0x00\n  codecopy\n  0x00\n  return\nstop\n\nsub_0: assembly {\n        /* \".deps/npm/@gnosis.pm/safe-contracts@1.3.0/contracts/base/ModuleManager.sol\":374:7004  contract ModuleManager is SelfAuthorized, Executor {... */\n      mstore(0x40, 0x80)\n      callvalue\n      dup1\n      iszero\n      tag_1\n      jumpi\n      0x00\n      dup1\n      revert\n    tag_1:\n      pop\n      jumpi(tag_2, lt(calldatasize, 0x04))\n      shr(0xe0, calldataload(0x00))\n      dup1\n      0x2d9ad53d\n      eq\n      tag_3\n      jumpi\n      dup1\n      0x468721a7\n      eq\n      tag_4\n      jumpi\n      dup1\n      0x5229073f\n      eq\n      tag_5\n      jumpi\n      dup1\n      0x610b5925\n      eq\n      tag_6\n      jumpi\n      dup1\n      0xcc2f8452\n      eq\n      tag_7\n      jumpi\n      dup1\n      0xe009cfde\n      eq\n      tag_8\n      jumpi\n    tag_2:\n      0x00\n      dup1\n      revert\n        /* \".deps/npm/@gnosis.pm/safe-contracts@1.3.0/contracts/base/ModuleManager.sol\":5764:5951  function isModuleEnabled(address module) public view returns (bool) { //判断模块是否在白名单中... */\n    tag_3:\n      tag_9\n      0x04\n      dup1\n      calldatasize\n      sub\n      dup2\n      add\n      swap1\n      tag_10\n      swap2\n      swap1\n      tag_11\n      jump\t// in\n    tag_10:\n      tag_12\n      jump\t// in\n    tag_9:\n      mload(0x40)\n      tag_13\n      swap2\n      swap1\n      tag_14\n      jump\t// in\n    tag_13:\n      mload(0x40)\n      dup1\n      swap2\n      sub\n      swap1\n      return\n        /* \".deps/npm/@gnosis.pm/safe-contracts@1.3.0/contracts/base/ModuleManager.sol\":3332:3986  function execTransactionFromModule(//允许模块执行 Safe 合约的交易而无需进一步的确认... */\n    tag_4:\n      tag_15\n      0x04\n      dup1\n      calldatasize\n      sub\n      dup2\n      add\n      swap1\n      tag_16\n      swap2\n      swap1\n      tag_17\n      jump\t// in\n    tag_16:\n      tag_18\n      jump\t// in\n    tag_15:\n      mload(0x40)\n      tag_19\n      swap2\n      swap1\n      tag_14\n      jump\t// in\n    tag_19:\n      mload(0x40)\n      dup1\n      swap2\n      sub\n      swap1\n      return\n        /* \".deps/npm/@gnosis.pm/safe-contracts@1.3.0/contracts/base/ModuleManager.sol\":4337:5667  function execTransactionFromModuleReturnData(... */\n    tag_5:\n      tag_20\n      0x04\n      dup1\n      calldatasize\n      sub\n      dup2\n      add\n      swap1\n      tag_21\n      swap2\n      swap1\n      tag_17\n      jump\t// in\n    tag_21:\n      tag_22\n      jump\t// in\n    tag_20:\n      mload(0x40)\n      tag_23\n      swap3\n      swap2\n      swap1\n      tag_24\n      jump\t// in\n    tag_23:\n      mload(0x40)\n      dup1\n      swap2\n      sub\n      swap1\n      return\n        /* \".deps/npm/@gnosis.pm/safe-contracts@1.3.0/contracts/base/ModuleManager.sol\":1512:2125  function enableModule(address module) public authorized {  //添加模块白名单... */\n    tag_6:\n      tag_25\n      0x04\n      dup1\n      calldatasize\n      sub\n      dup2\n      add\n      swap1\n      tag_26\n      swap2\n      swap1\n      tag_11\n      jump\t// in\n    tag_26:\n      tag_27\n      jump\t// in\n    tag_25:\n      stop\n        /* \".deps/npm/@gnosis.pm/safe-contracts@1.3.0/contracts/base/ModuleManager.sol\":6227:7002  function getModulesPaginated(address start, uint256 pageSize) external view returns (address[] memory array, address next) {... */\n    tag_7:\n      tag_28\n      0x04\n      dup1\n      calldatasize\n      sub\n      dup2\n      add\n      swap1\n      tag_29\n      swap2\n      swap1\n      tag_30\n      jump\t// in\n    tag_29:\n      tag_31\n      jump\t// in\n    tag_28:\n      mload(0x40)\n      tag_32\n      swap3\n      swap2\n      swap1\n      tag_33\n      jump\t// in\n    tag_32:\n      mload(0x40)\n      dup1\n      swap2\n      sub\n      swap1\n      return\n        /* \".deps/npm/@gnosis.pm/safe-contracts@1.3.0/contracts/base/ModuleManager.sol\":2445:2996  function disableModule(address prevModule, address module) public authorized { //讲模块从白名单移除... */\n    tag_8:\n      tag_34\n      0x04\n      dup1\n      calldatasize\n      sub\n      dup2\n      add\n      swap1\n      tag_35\n      swap2\n      swap1\n      tag_36\n      jump\t// in\n    tag_35:\n      tag_37\n      jump\t// in\n    tag_34:\n      stop\n        /* \".deps/npm/@gnosis.pm/safe-contracts@1.3.0/contracts/base/ModuleManager.sol\":5764:5951  function isModuleEnabled(address module) public view returns (bool) { //判断模块是否在白名单中... */\n    tag_12:\n        /* \".deps/npm/@gnosis.pm/safe-contracts@1.3.0/contracts/base/ModuleManager.sol\":5826:5830  bool */\n      0x00\n        /* \".deps/npm/@gnosis.pm/safe-contracts@1.3.0/contracts/base/ModuleManager.sol\":5905:5911  module */\n      dup2\n        /* \".deps/npm/@gnosis.pm/safe-contracts@1.3.0/contracts/base/ModuleManager.sol\":5885:5911  SENTINEL_MODULES != module */\n      0xffffffffffffffffffffffffffffffffffffffff\n      and\n        /* \".deps/npm/@gnosis.pm/safe-contracts@1.3.0/contracts/base/ModuleManager.sol\":692:695  0x1 */\n      0x01\n        /* \".deps/npm/@gnosis.pm/safe-contracts@1.3.0/contracts/base/ModuleManager.sol\":5885:5911  SENTINEL_MODULES != module */\n      0xffffffffffffffffffffffffffffffffffffffff\n      and\n      eq\n      iszero\n        /* \".deps/npm/@gnosis.pm/safe-contracts@1.3.0/contracts/base/ModuleManager.sol\":5885:5944  SENTINEL_MODULES != module && modules[module] != address(0) */\n      dup1\n      iszero\n      tag_39\n      jumpi\n      pop\n        /* \".deps/npm/@gnosis.pm/safe-contracts@1.3.0/contracts/base/ModuleManager.sol\":5942:5943  0 */\n      0x00\n        /* \".deps/npm/@gnosis.pm/safe-contracts@1.3.0/contracts/base/ModuleManager.sol\":5915:5944  modules[module] != address(0) */\n      0xffffffffffffffffffffffffffffffffffffffff\n      and\n        /* \".deps/npm/@gnosis.pm/safe-contracts@1.3.0/contracts/base/ModuleManager.sol\":5915:5922  modules */\n      0x00\n        /* \".deps/npm/@gnosis.pm/safe-contracts@1.3.0/contracts/base/ModuleManager.sol\":5915:5930  modules[module] */\n      dup1\n        /* \".deps/npm/@gnosis.pm/safe-contracts@1.3.0/contracts/base/ModuleManager.sol\":5923:5929  module */\n      dup5\n        /* \".deps/npm/@gnosis.pm/safe-contracts@1.3.0/contracts/base/ModuleManager.sol\":5915:5930  modules[module] */\n      0xffffffffffffffffffffffffffffffffffffffff\n      and\n      0xffffffffffffffffffffffffffffffffffffffff\n      and\n      dup2\n      mstore\n      0x20\n      add\n      swap1\n      dup2\n      mstore\n      0x20\n      add\n      0x00\n      keccak256\n      0x00\n      swap1\n      sload\n      swap1\n      0x0100\n      exp\n      swap1\n      div\n      0xffffffffffffffffffffffffffffffffffffffff\n      and\n        /* \".deps/npm/@gnosis.pm/safe-contracts@1.3.0/contracts/base/ModuleManager.sol\":5915:5944  modules[module] != address(0) */\n      0xffffffffffffffffffffffffffffffffffffffff\n      and\n      eq\n      iszero\n        /* \".deps/npm/@gnosis.pm/safe-contracts@1.3.0/contracts/base/ModuleManager.sol\":5885:5944  SENTINEL_MODULES != module && modules[module] != address(0) */\n    tag_39:\n        /* \".deps/npm/@gnosis.pm/safe-contracts@1.3.0/contracts/base/ModuleManager.sol\":5878:5944  return SENTINEL_MODULES != module && modules[module] != address(0) */\n      swap1\n      pop\n        /* \".deps/npm/@gnosis.pm/safe-contracts@1.3.0/contracts/base/ModuleManager.sol\":5764:5951  function isModuleEnabled(address module) public view returns (bool) { //判断模块是否在白名单中... */\n      swap2\n      swap1\n      pop\n      jump\t// out\n        /* \".deps/npm/@gnosis.pm/safe-contracts@1.3.0/contracts/base/ModuleManager.sol\":3332:3986  function execTransactionFromModule(//允许模块执行 Safe 合约的交易而无需进一步的确认... */\n    tag_18:\n        /* \".deps/npm/@gnosis.pm/safe-contracts@1.3.0/contracts/base/ModuleManager.sol\":3569:3581  bool success */\n      0x00\n        /* \".deps/npm/@gnosis.pm/safe-contracts@1.3.0/contracts/base/ModuleManager.sol\":692:695  0x1 */\n      0x01\n        /* \".deps/npm/@gnosis.pm/safe-contracts@1.3.0/contracts/base/ModuleManager.sol\":3650:3680  msg.sender != SENTINEL_MODULES */\n      0xffffffffffffffffffffffffffffffffffffffff\n      and\n        /* \".deps/npm/@gnosis.pm/safe-contracts@1.3.0/contracts/base/ModuleManager.sol\":3650:3660  msg.sender */\n      caller\n        /* \".deps/npm/@gnosis.pm/safe-contracts@1.3.0/contracts/base/ModuleManager.sol\":3650:3680  msg.sender != SENTINEL_MODULES */\n      0xffffffffffffffffffffffffffffffffffffffff\n      and\n      eq\n      iszero\n        /* \".deps/npm/@gnosis.pm/safe-contracts@1.3.0/contracts/base/ModuleManager.sol\":3650:3717  msg.sender != SENTINEL_MODULES && modules[msg.sender] != address(0) */\n      dup1\n      iszero\n      tag_41\n      jumpi\n      pop\n        /* \".deps/npm/@gnosis.pm/safe-contracts@1.3.0/contracts/base/ModuleManager.sol\":3715:3716  0 */\n      0x00\n        /* \".deps/npm/@gnosis.pm/safe-contracts@1.3.0/contracts/base/ModuleManager.sol\":3684:3717  modules[msg.sender] != address(0) */\n      0xffffffffffffffffffffffffffffffffffffffff\n      and\n        /* \".deps/npm/@gnosis.pm/safe-contracts@1.3.0/contracts/base/ModuleManager.sol\":3684:3691  modules */\n      0x00\n        /* \".deps/npm/@gnosis.pm/safe-contracts@1.3.0/contracts/base/ModuleManager.sol\":3684:3703  modules[msg.sender] */\n      dup1\n        /* \".deps/npm/@gnosis.pm/safe-contracts@1.3.0/contracts/base/ModuleManager.sol\":3692:3702  msg.sender */\n      caller\n        /* \".deps/npm/@gnosis.pm/safe-contracts@1.3.0/contracts/base/ModuleManager.sol\":3684:3703  modules[msg.sender] */\n      0xffffffffffffffffffffffffffffffffffffffff\n      and\n      0xffffffffffffffffffffffffffffffffffffffff\n      and\n      dup2\n      mstore\n      0x20\n      add\n      swap1\n      dup2\n      mstore\n      0x20\n      add\n      0x00\n      keccak256\n      0x00\n      swap1\n      sload\n      swap1\n      0x0100\n      exp\n      swap1\n      div\n      0xffffffffffffffffffffffffffffffffffffffff\n      and\n        /* \".deps/npm/@gnosis.pm/safe-contracts@1.3.0/contracts/base/ModuleManager.sol\":3684:3717  modules[msg.sender] != address(0) */\n      0xffffffffffffffffffffffffffffffffffffffff\n      and\n      eq\n      iszero\n        /* \".deps/npm/@gnosis.pm/safe-contracts@1.3.0/contracts/base/ModuleManager.sol\":3650:3717  msg.sender != SENTINEL_MODULES && modules[msg.sender] != address(0) */\n    tag_41:\n        /* \".deps/npm/@gnosis.pm/safe-contracts@1.3.0/contracts/base/ModuleManager.sol\":3642:3727  require(msg.sender != SENTINEL_MODULES && modules[msg.sender] != address(0), \"GS104\") */\n      tag_42\n      jumpi\n      mload(0x40)\n      0x08c379a000000000000000000000000000000000000000000000000000000000\n      dup2\n      mstore\n      0x04\n      add\n      tag_43\n      swap1\n      tag_44\n      jump\t// in\n    tag_43:\n      mload(0x40)\n      dup1\n      swap2\n      sub\n      swap1\n      revert\n    tag_42:\n        /* \".deps/npm/@gnosis.pm/safe-contracts@1.3.0/contracts/base/ModuleManager.sol\":3809:3855  execute(to, value, data, operation, gasleft()) */\n      tag_45\n        /* \".deps/npm/@gnosis.pm/safe-contracts@1.3.0/contracts/base/ModuleManager.sol\":3817:3819  to */\n      dup6\n        /* \".deps/npm/@gnosis.pm/safe-contracts@1.3.0/contracts/base/ModuleManager.sol\":3821:3826  value */\n      dup6\n        /* \".deps/npm/@gnosis.pm/safe-contracts@1.3.0/contracts/base/ModuleManager.sol\":3828:3832  data */\n      dup6\n        /* \".deps/npm/@gnosis.pm/safe-contracts@1.3.0/contracts/base/ModuleManager.sol\":3834:3843  operation */\n      dup6\n        /* \".deps/npm/@gnosis.pm/safe-contracts@1.3.0/contracts/base/ModuleManager.sol\":3845:3854  gasleft() */\n      gas\n        /* \".deps/npm/@gnosis.pm/safe-contracts@1.3.0/contracts/base/ModuleManager.sol\":3809:3816  execute */\n      tag_46\n        /* \".deps/npm/@gnosis.pm/safe-contracts@1.3.0/contracts/base/ModuleManager.sol\":3809:3855  execute(to, value, data, operation, gasleft()) */\n      jump\t// in\n    tag_45:\n        /* \".deps/npm/@gnosis.pm/safe-contracts@1.3.0/contracts/base/ModuleManager.sol\":3799:3855  success = execute(to, value, data, operation, gasleft()) */\n      swap1\n      pop\n        /* \".deps/npm/@gnosis.pm/safe-contracts@1.3.0/contracts/base/ModuleManager.sol\":3869:3876  success */\n      dup1\n        /* \".deps/npm/@gnosis.pm/safe-contracts@1.3.0/contracts/base/ModuleManager.sol\":3865:3979  if (success) emit ExecutionFromModuleSuccess(msg.sender);... */\n      iszero\n      tag_47\n      jumpi\n        /* \".deps/npm/@gnosis.pm/safe-contracts@1.3.0/contracts/base/ModuleManager.sol\":3910:3920  msg.sender */\n      caller\n        /* \".deps/npm/@gnosis.pm/safe-contracts@1.3.0/contracts/base/ModuleManager.sol\":3883:3921  ExecutionFromModuleSuccess(msg.sender) */\n      0xffffffffffffffffffffffffffffffffffffffff\n      and\n      0x6895c13664aa4f67288b25d7a21d7aaa34916e355fb9b6fae0a139a9085becb8\n      mload(0x40)\n      mload(0x40)\n      dup1\n      swap2\n      sub\n      swap1\n      log2\n        /* \".deps/npm/@gnosis.pm/safe-contracts@1.3.0/contracts/base/ModuleManager.sol\":3865:3979  if (success) emit ExecutionFromModuleSuccess(msg.sender);... */\n      jump(tag_48)\n    tag_47:\n        /* \".deps/npm/@gnosis.pm/safe-contracts@1.3.0/contracts/base/ModuleManager.sol\":3968:3978  msg.sender */\n      caller\n        /* \".deps/npm/@gnosis.pm/safe-contracts@1.3.0/contracts/base/ModuleManager.sol\":3941:3979  ExecutionFromModuleFailure(msg.sender) */\n      0xffffffffffffffffffffffffffffffffffffffff\n      and\n      0xacd2c8702804128fdb0db2bb49f6d127dd0181c13fd45dbfe16de0930e2bd375\n      mload(0x40)\n      mload(0x40)\n      dup1\n      swap2\n      sub\n      swap1\n      log2\n        /* \".deps/npm/@gnosis.pm/safe-contracts@1.3.0/contracts/base/ModuleManager.sol\":3865:3979  if (success) emit ExecutionFromModuleSuccess(msg.sender);... */\n    tag_48:\n        /* \".deps/npm/@gnosis.pm/safe-contracts@1.3.0/contracts/base/ModuleManager.sol\":3332:3986  function execTransactionFromModule(//允许模块执行 Safe 合约的交易而无需进一步的确认... */\n      swap5\n      swap4\n      pop\n      pop\n      pop\n      pop\n      jump\t// out\n        /* \".deps/npm/@gnosis.pm/safe-contracts@1.3.0/contracts/base/ModuleManager.sol\":4337:5667  function execTransactionFromModuleReturnData(... */\n    tag_22:\n        /* \".deps/npm/@gnosis.pm/safe-contracts@1.3.0/contracts/base/ModuleManager.sol\":4508:4520  bool success */\n      0x00\n        /* \".deps/npm/@gnosis.pm/safe-contracts@1.3.0/contracts/base/ModuleManager.sol\":4522:4545  bytes memory returnData */\n      0x60\n        /* \".deps/npm/@gnosis.pm/safe-contracts@1.3.0/contracts/base/ModuleManager.sol\":4567:4620  execTransactionFromModule(to, value, data, operation) */\n      tag_50\n        /* \".deps/npm/@gnosis.pm/safe-contracts@1.3.0/contracts/base/ModuleManager.sol\":4593:4595  to */\n      dup7\n        /* \".deps/npm/@gnosis.pm/safe-contracts@1.3.0/contracts/base/ModuleManager.sol\":4597:4602  value */\n      dup7\n        /* \".deps/npm/@gnosis.pm/safe-contracts@1.3.0/contracts/base/ModuleManager.sol\":4604:4608  data */\n      dup7\n        /* \".deps/npm/@gnosis.pm/safe-contracts@1.3.0/contracts/base/ModuleManager.sol\":4610:4619  operation */\n      dup7\n        /* \".deps/npm/@gnosis.pm/safe-contracts@1.3.0/contracts/base/ModuleManager.sol\":4567:4592  execTransactionFromModule */\n      tag_18\n        /* \".deps/npm/@gnosis.pm/safe-contracts@1.3.0/contracts/base/ModuleManager.sol\":4567:4620  execTransactionFromModule(to, value, data, operation) */\n      jump\t// in\n    tag_50:\n        /* \".deps/npm/@gnosis.pm/safe-contracts@1.3.0/contracts/base/ModuleManager.sol\":4557:4620  success = execTransactionFromModule(to, value, data, operation) */\n      swap2\n      pop\n        /* \".deps/npm/@gnosis.pm/safe-contracts@1.3.0/contracts/base/ModuleManager.sol\":4767:4771  0x40 */\n      0x40\n        /* \".deps/npm/@gnosis.pm/safe-contracts@1.3.0/contracts/base/ModuleManager.sol\":4761:4772  mload(0x40) */\n      mload\n        /* \".deps/npm/@gnosis.pm/safe-contracts@1.3.0/contracts/base/ModuleManager.sol\":5109:5113  0x20 */\n      0x20\n        /* \".deps/npm/@gnosis.pm/safe-contracts@1.3.0/contracts/base/ModuleManager.sol\":5091:5107  returndatasize() */\n      returndatasize\n        /* \".deps/npm/@gnosis.pm/safe-contracts@1.3.0/contracts/base/ModuleManager.sol\":5087:5114  add(returndatasize(), 0x20) */\n      add\n        /* \".deps/npm/@gnosis.pm/safe-contracts@1.3.0/contracts/base/ModuleManager.sol\":5082:5085  ptr */\n      dup2\n        /* \".deps/npm/@gnosis.pm/safe-contracts@1.3.0/contracts/base/ModuleManager.sol\":5078:5115  add(ptr, add(returndatasize(), 0x20)) */\n      add\n        /* \".deps/npm/@gnosis.pm/safe-contracts@1.3.0/contracts/base/ModuleManager.sol\":5072:5076  0x40 */\n      0x40\n        /* \".deps/npm/@gnosis.pm/safe-contracts@1.3.0/contracts/base/ModuleManager.sol\":5065:5116  mstore(0x40, add(ptr, add(returndatasize(), 0x20))) */\n      mstore\n        /* \".deps/npm/@gnosis.pm/safe-contracts@1.3.0/contracts/base/ModuleManager.sol\":5171:5187  returndatasize() */\n      returndatasize\n        /* \".deps/npm/@gnosis.pm/safe-contracts@1.3.0/contracts/base/ModuleManager.sol\":5166:5169  ptr */\n      dup2\n        /* \".deps/npm/@gnosis.pm/safe-contracts@1.3.0/contracts/base/ModuleManager.sol\":5159:5188  mstore(ptr, returndatasize()) */\n      mstore\n        /* \".deps/npm/@gnosis.pm/safe-contracts@1.3.0/contracts/base/ModuleManager.sol\":5265:5281  returndatasize() */\n      returndatasize\n        /* \".deps/npm/@gnosis.pm/safe-contracts@1.3.0/contracts/base/ModuleManager.sol\":5262:5263  0 */\n      0x00\n        /* \".deps/npm/@gnosis.pm/safe-contracts@1.3.0/contracts/base/ModuleManager.sol\":5255:5259  0x20 */\n      0x20\n        /* \".deps/npm/@gnosis.pm/safe-contracts@1.3.0/contracts/base/ModuleManager.sol\":5250:5253  ptr */\n      dup4\n        /* \".deps/npm/@gnosis.pm/safe-contracts@1.3.0/contracts/base/ModuleManager.sol\":5246:5260  add(ptr, 0x20) */\n      add\n        /* \".deps/npm/@gnosis.pm/safe-contracts@1.3.0/contracts/base/ModuleManager.sol\":5231:5282  returndatacopy(add(ptr, 0x20), 0, returndatasize()) */\n      returndatacopy\n        /* \".deps/npm/@gnosis.pm/safe-contracts@1.3.0/contracts/base/ModuleManager.sol\":5648:5651  ptr */\n      dup1\n        /* \".deps/npm/@gnosis.pm/safe-contracts@1.3.0/contracts/base/ModuleManager.sol\":5634:5651  returnData := ptr */\n      swap2\n      pop\n        /* \".deps/npm/@gnosis.pm/safe-contracts@1.3.0/contracts/base/ModuleManager.sol\":4695:5661  {... */\n      pop\n        /* \".deps/npm/@gnosis.pm/safe-contracts@1.3.0/contracts/base/ModuleManager.sol\":4337:5667  function execTransactionFromModuleReturnData(... */\n      swap5\n      pop\n      swap5\n      swap3\n      pop\n      pop\n      pop\n      jump\t// out\n        /* \".deps/npm/@gnosis.pm/safe-contracts@1.3.0/contracts/base/ModuleManager.sol\":1512:2125  function enableModule(address module) public authorized {  //添加模块白名单... */\n    tag_27:\n        /* \".deps/npm/@gnosis.pm/safe-contracts@1.3.0/contracts/common/SelfAuthorized.sol\":440:457  requireSelfCall() */\n      tag_52\n        /* \".deps/npm/@gnosis.pm/safe-contracts@1.3.0/contracts/common/SelfAuthorized.sol\":440:455  requireSelfCall */\n      tag_53\n        /* \".deps/npm/@gnosis.pm/safe-contracts@1.3.0/contracts/common/SelfAuthorized.sol\":440:457  requireSelfCall() */\n      jump\t// in\n    tag_52:\n        /* \".deps/npm/@gnosis.pm/safe-contracts@1.3.0/contracts/base/ModuleManager.sol\":1683:1684  0 */\n      0x00\n        /* \".deps/npm/@gnosis.pm/safe-contracts@1.3.0/contracts/base/ModuleManager.sol\":1665:1685  module != address(0) */\n      0xffffffffffffffffffffffffffffffffffffffff\n      and\n        /* \".deps/npm/@gnosis.pm/safe-contracts@1.3.0/contracts/base/ModuleManager.sol\":1665:1671  module */\n      dup2\n        /* \".deps/npm/@gnosis.pm/safe-contracts@1.3.0/contracts/base/ModuleManager.sol\":1665:1685  module != address(0) */\n      0xffffffffffffffffffffffffffffffffffffffff\n      and\n      eq\n      iszero\n        /* \".deps/npm/@gnosis.pm/safe-contracts@1.3.0/contracts/base/ModuleManager.sol\":1665:1715  module != address(0) && module != SENTINEL_MODULES */\n      dup1\n      iszero\n      tag_55\n      jumpi\n      pop\n        /* \".deps/npm/@gnosis.pm/safe-contracts@1.3.0/contracts/base/ModuleManager.sol\":692:695  0x1 */\n      0x01\n        /* \".deps/npm/@gnosis.pm/safe-contracts@1.3.0/contracts/base/ModuleManager.sol\":1689:1715  module != SENTINEL_MODULES */\n      0xffffffffffffffffffffffffffffffffffffffff\n      and\n        /* \".deps/npm/@gnosis.pm/safe-contracts@1.3.0/contracts/base/ModuleManager.sol\":1689:1695  module */\n      dup2\n        /* \".deps/npm/@gnosis.pm/safe-contracts@1.3.0/contracts/base/ModuleManager.sol\":1689:1715  module != SENTINEL_MODULES */\n      0xffffffffffffffffffffffffffffffffffffffff\n      and\n      eq\n      iszero\n        /* \".deps/npm/@gnosis.pm/safe-contracts@1.3.0/contracts/base/ModuleManager.sol\":1665:1715  module != address(0) && module != SENTINEL_MODULES */\n    tag_55:\n        /* \".deps/npm/@gnosis.pm/safe-contracts@1.3.0/contracts/base/ModuleManager.sol\":1657:1725  require(module != address(0) && module != SENTINEL_MODULES, \"GS101\") */\n      tag_56\n      jumpi\n      mload(0x40)\n      0x08c379a000000000000000000000000000000000000000000000000000000000\n      dup2\n      mstore\n      0x04\n      add\n      tag_57\n      swap1\n      tag_58\n      jump\t// in\n    tag_57:\n      mload(0x40)\n      dup1\n      swap2\n      sub\n      swap1\n      revert\n    tag_56:\n        /* \".deps/npm/@gnosis.pm/safe-contracts@1.3.0/contracts/base/ModuleManager.sol\":1881:1882  0 */\n      0x00\n        /* \".deps/npm/@gnosis.pm/safe-contracts@1.3.0/contracts/base/ModuleManager.sol\":1854:1883  modules[module] == address(0) */\n      0xffffffffffffffffffffffffffffffffffffffff\n      and\n        /* \".deps/npm/@gnosis.pm/safe-contracts@1.3.0/contracts/base/ModuleManager.sol\":1854:1861  modules */\n      0x00\n        /* \".deps/npm/@gnosis.pm/safe-contracts@1.3.0/contracts/base/ModuleManager.sol\":1854:1869  modules[module] */\n      dup1\n        /* \".deps/npm/@gnosis.pm/safe-contracts@1.3.0/contracts/base/ModuleManager.sol\":1862:1868  module */\n      dup4\n        /* \".deps/npm/@gnosis.pm/safe-contracts@1.3.0/contracts/base/ModuleManager.sol\":1854:1869  modules[module] */\n      0xffffffffffffffffffffffffffffffffffffffff\n      and\n      0xffffffffffffffffffffffffffffffffffffffff\n      and\n      dup2\n      mstore\n      0x20\n      add\n      swap1\n      dup2\n      mstore\n      0x20\n      add\n      0x00\n      keccak256\n      0x00\n      swap1\n      sload\n      swap1\n      0x0100\n      exp\n      swap1\n      div\n      0xffffffffffffffffffffffffffffffffffffffff\n      and\n        /* \".deps/npm/@gnosis.pm/safe-contracts@1.3.0/contracts/base/ModuleManager.sol\":1854:1883  modules[module] == address(0) */\n      0xffffffffffffffffffffffffffffffffffffffff\n      and\n      eq\n        /* \".deps/npm/@gnosis.pm/safe-contracts@1.3.0/contracts/base/ModuleManager.sol\":1846:1893  require(modules[module] == address(0), \"GS102\") */\n      tag_59\n      jumpi\n      mload(0x40)\n      0x08c379a000000000000000000000000000000000000000000000000000000000\n      dup2\n      mstore\n      0x04\n      add\n      tag_60\n      swap1\n      tag_61\n      jump\t// in\n    tag_60:\n      mload(0x40)\n      dup1\n      swap2\n      sub\n      swap1\n      revert\n    tag_59:\n        /* \".deps/npm/@gnosis.pm/safe-contracts@1.3.0/contracts/base/ModuleManager.sol\":1956:1963  modules */\n      0x00\n        /* \".deps/npm/@gnosis.pm/safe-contracts@1.3.0/contracts/base/ModuleManager.sol\":1956:1981  modules[SENTINEL_MODULES] */\n      dup1\n        /* \".deps/npm/@gnosis.pm/safe-contracts@1.3.0/contracts/base/ModuleManager.sol\":692:695  0x1 */\n      0x01\n        /* \".deps/npm/@gnosis.pm/safe-contracts@1.3.0/contracts/base/ModuleManager.sol\":1956:1981  modules[SENTINEL_MODULES] */\n      0xffffffffffffffffffffffffffffffffffffffff\n      and\n      0xffffffffffffffffffffffffffffffffffffffff\n      and\n      dup2\n      mstore\n      0x20\n      add\n      swap1\n      dup2\n      mstore\n      0x20\n      add\n      0x00\n      keccak256\n      0x00\n      swap1\n      sload\n      swap1\n      0x0100\n      exp\n      swap1\n      div\n      0xffffffffffffffffffffffffffffffffffffffff\n      and\n        /* \".deps/npm/@gnosis.pm/safe-contracts@1.3.0/contracts/base/ModuleManager.sol\":1938:1945  modules */\n      0x00\n        /* \".deps/npm/@gnosis.pm/safe-contracts@1.3.0/contracts/base/ModuleManager.sol\":1938:1953  modules[module] */\n      dup1\n        /* \".deps/npm/@gnosis.pm/safe-contracts@1.3.0/contracts/base/ModuleManager.sol\":1946:1952  module */\n      dup4\n        /* \".deps/npm/@gnosis.pm/safe-contracts@1.3.0/contracts/base/ModuleManager.sol\":1938:1953  modules[module] */\n      0xffffffffffffffffffffffffffffffffffffffff\n      and\n      0xffffffffffffffffffffffffffffffffffffffff\n      and\n      dup2\n      mstore\n      0x20\n      add\n      swap1\n      dup2\n      mstore\n      0x20\n      add\n      0x00\n      keccak256\n      0x00\n        /* \".deps/npm/@gnosis.pm/safe-contracts@1.3.0/contracts/base/ModuleManager.sol\":1938:1981  modules[module] = modules[SENTINEL_MODULES] */\n      0x0100\n      exp\n      dup2\n      sload\n      dup2\n      0xffffffffffffffffffffffffffffffffffffffff\n      mul\n      not\n      and\n      swap1\n      dup4\n      0xffffffffffffffffffffffffffffffffffffffff\n      and\n      mul\n      or\n      swap1\n      sstore\n      pop\n        /* \".deps/npm/@gnosis.pm/safe-contracts@1.3.0/contracts/base/ModuleManager.sol\":2019:2025  module */\n      dup1\n        /* \".deps/npm/@gnosis.pm/safe-contracts@1.3.0/contracts/base/ModuleManager.sol\":1991:1998  modules */\n      0x00\n        /* \".deps/npm/@gnosis.pm/safe-contracts@1.3.0/contracts/base/ModuleManager.sol\":1991:2016  modules[SENTINEL_MODULES] */\n      dup1\n        /* \".deps/npm/@gnosis.pm/safe-contracts@1.3.0/contracts/base/ModuleManager.sol\":692:695  0x1 */\n      0x01\n        /* \".deps/npm/@gnosis.pm/safe-contracts@1.3.0/contracts/base/ModuleManager.sol\":1991:2016  modules[SENTINEL_MODULES] */\n      0xffffffffffffffffffffffffffffffffffffffff\n      and\n      0xffffffffffffffffffffffffffffffffffffffff\n      and\n      dup2\n      mstore\n      0x20\n      add\n      swap1\n      dup2\n      mstore\n      0x20\n      add\n      0x00\n      keccak256\n      0x00\n        /* \".deps/npm/@gnosis.pm/safe-contracts@1.3.0/contracts/base/ModuleManager.sol\":1991:2025  modules[SENTINEL_MODULES] = module */\n      0x0100\n      exp\n      dup2\n      sload\n      dup2\n      0xffffffffffffffffffffffffffffffffffffffff\n      mul\n      not\n      and\n      swap1\n      dup4\n      0xffffffffffffffffffffffffffffffffffffffff\n      and\n      mul\n      or\n      swap1\n      sstore\n      pop\n        /* \".deps/npm/@gnosis.pm/safe-contracts@1.3.0/contracts/base/ModuleManager.sol\":2097:2118  EnabledModule(module) */\n      0xecdf3a3effea5783a3c4c2140e677577666428d44ed9d474a0b3a4c9943f8440\n        /* \".deps/npm/@gnosis.pm/safe-contracts@1.3.0/contracts/base/ModuleManager.sol\":2111:2117  module */\n      dup2\n        /* \".deps/npm/@gnosis.pm/safe-contracts@1.3.0/contracts/base/ModuleManager.sol\":2097:2118  EnabledModule(module) */\n      mload(0x40)\n      tag_62\n      swap2\n      swap1\n      tag_63\n      jump\t// in\n    tag_62:\n      mload(0x40)\n      dup1\n      swap2\n      sub\n      swap1\n      log1\n        /* \".deps/npm/@gnosis.pm/safe-contracts@1.3.0/contracts/base/ModuleManager.sol\":1512:2125  function enableModule(address module) public authorized {  //添加模块白名单... */\n      pop\n      jump\t// out\n        /* \".deps/npm/@gnosis.pm/safe-contracts@1.3.0/contracts/base/ModuleManager.sol\":6227:7002  function getModulesPaginated(address start, uint256 pageSize) external view returns (address[] memory array, address next) {... */\n    tag_31:\n        /* \".deps/npm/@gnosis.pm/safe-contracts@1.3.0/contracts/base/ModuleManager.sol\":6312:6334  address[] memory array */\n      0x60\n        /* \".deps/npm/@gnosis.pm/safe-contracts@1.3.0/contracts/base/ModuleManager.sol\":6336:6348  address next */\n      0x00\n        /* \".deps/npm/@gnosis.pm/safe-contracts@1.3.0/contracts/base/ModuleManager.sol\":6423:6431  pageSize */\n      dup3\n        /* \".deps/npm/@gnosis.pm/safe-contracts@1.3.0/contracts/base/ModuleManager.sol\":6409:6432  new address[](pageSize) */\n      0xffffffffffffffff\n      dup2\n      gt\n      iszero\n      tag_65\n      jumpi\n      tag_66\n      tag_67\n      jump\t// in\n    tag_66:\n    tag_65:\n      mload(0x40)\n      swap1\n      dup1\n      dup3\n      mstore\n      dup1\n      0x20\n      mul\n      0x20\n      add\n      dup3\n      add\n      0x40\n      mstore\n      dup1\n      iszero\n      tag_68\n      jumpi\n      dup2\n      0x20\n      add\n      0x20\n      dup3\n      mul\n      dup1\n      calldatasize\n      dup4\n      calldatacopy\n      dup1\n      dup3\n      add\n      swap2\n      pop\n      pop\n      swap1\n      pop\n    tag_68:\n      pop\n        /* \".deps/npm/@gnosis.pm/safe-contracts@1.3.0/contracts/base/ModuleManager.sol\":6401:6432  array = new address[](pageSize) */\n      swap2\n      pop\n        /* \".deps/npm/@gnosis.pm/safe-contracts@1.3.0/contracts/base/ModuleManager.sol\":6476:6495  uint256 moduleCount */\n      0x00\n        /* \".deps/npm/@gnosis.pm/safe-contracts@1.3.0/contracts/base/ModuleManager.sol\":6509:6530  address currentModule */\n      dup1\n        /* \".deps/npm/@gnosis.pm/safe-contracts@1.3.0/contracts/base/ModuleManager.sol\":6533:6540  modules */\n      dup1\n        /* \".deps/npm/@gnosis.pm/safe-contracts@1.3.0/contracts/base/ModuleManager.sol\":6533:6547  modules[start] */\n      0x00\n        /* \".deps/npm/@gnosis.pm/safe-contracts@1.3.0/contracts/base/ModuleManager.sol\":6541:6546  start */\n      dup8\n        /* \".deps/npm/@gnosis.pm/safe-contracts@1.3.0/contracts/base/ModuleManager.sol\":6533:6547  modules[start] */\n      0xffffffffffffffffffffffffffffffffffffffff\n      and\n      0xffffffffffffffffffffffffffffffffffffffff\n      and\n      dup2\n      mstore\n      0x20\n      add\n      swap1\n      dup2\n      mstore\n      0x20\n      add\n      0x00\n      keccak256\n      0x00\n      swap1\n      sload\n      swap1\n      0x0100\n      exp\n      swap1\n      div\n      0xffffffffffffffffffffffffffffffffffffffff\n      and\n        /* \".deps/npm/@gnosis.pm/safe-contracts@1.3.0/contracts/base/ModuleManager.sol\":6509:6547  address currentModule = modules[start] */\n      swap1\n      pop\n        /* \".deps/npm/@gnosis.pm/safe-contracts@1.3.0/contracts/base/ModuleManager.sol\":6557:6796  while (currentModule != address(0x0) && currentModule != SENTINEL_MODULES && moduleCount < pageSize) {... */\n    tag_69:\n        /* \".deps/npm/@gnosis.pm/safe-contracts@1.3.0/contracts/base/ModuleManager.sol\":6589:6592  0x0 */\n      0x00\n        /* \".deps/npm/@gnosis.pm/safe-contracts@1.3.0/contracts/base/ModuleManager.sol\":6564:6593  currentModule != address(0x0) */\n      0xffffffffffffffffffffffffffffffffffffffff\n      and\n        /* \".deps/npm/@gnosis.pm/safe-contracts@1.3.0/contracts/base/ModuleManager.sol\":6564:6577  currentModule */\n      dup2\n        /* \".deps/npm/@gnosis.pm/safe-contracts@1.3.0/contracts/base/ModuleManager.sol\":6564:6593  currentModule != address(0x0) */\n      0xffffffffffffffffffffffffffffffffffffffff\n      and\n      eq\n      iszero\n        /* \".deps/npm/@gnosis.pm/safe-contracts@1.3.0/contracts/base/ModuleManager.sol\":6564:6630  currentModule != address(0x0) && currentModule != SENTINEL_MODULES */\n      dup1\n      iszero\n      tag_71\n      jumpi\n      pop\n        /* \".deps/npm/@gnosis.pm/safe-contracts@1.3.0/contracts/base/ModuleManager.sol\":692:695  0x1 */\n      0x01\n        /* \".deps/npm/@gnosis.pm/safe-contracts@1.3.0/contracts/base/ModuleManager.sol\":6597:6630  currentModule != SENTINEL_MODULES */\n      0xffffffffffffffffffffffffffffffffffffffff\n      and\n        /* \".deps/npm/@gnosis.pm/safe-contracts@1.3.0/contracts/base/ModuleManager.sol\":6597:6610  currentModule */\n      dup2\n        /* \".deps/npm/@gnosis.pm/safe-contracts@1.3.0/contracts/base/ModuleManager.sol\":6597:6630  currentModule != SENTINEL_MODULES */\n      0xffffffffffffffffffffffffffffffffffffffff\n      and\n      eq\n      iszero\n        /* \".deps/npm/@gnosis.pm/safe-contracts@1.3.0/contracts/base/ModuleManager.sol\":6564:6630  currentModule != address(0x0) && currentModule != SENTINEL_MODULES */\n    tag_71:\n        /* \".deps/npm/@gnosis.pm/safe-contracts@1.3.0/contracts/base/ModuleManager.sol\":6564:6656  currentModule != address(0x0) && currentModule != SENTINEL_MODULES && moduleCount < pageSize */\n      dup1\n      iszero\n      tag_72\n      jumpi\n      pop\n        /* \".deps/npm/@gnosis.pm/safe-contracts@1.3.0/contracts/base/ModuleManager.sol\":6648:6656  pageSize */\n      dup5\n        /* \".deps/npm/@gnosis.pm/safe-contracts@1.3.0/contracts/base/ModuleManager.sol\":6634:6645  moduleCount */\n      dup3\n        /* \".deps/npm/@gnosis.pm/safe-contracts@1.3.0/contracts/base/ModuleManager.sol\":6634:6656  moduleCount < pageSize */\n      lt\n        /* \".deps/npm/@gnosis.pm/safe-contracts@1.3.0/contracts/base/ModuleManager.sol\":6564:6656  currentModule != address(0x0) && currentModule != SENTINEL_MODULES && moduleCount < pageSize */\n    tag_72:\n        /* \".deps/npm/@gnosis.pm/safe-contracts@1.3.0/contracts/base/ModuleManager.sol\":6557:6796  while (currentModule != address(0x0) && currentModule != SENTINEL_MODULES && moduleCount < pageSize) {... */\n      iszero\n      tag_70\n      jumpi\n        /* \".deps/npm/@gnosis.pm/safe-contracts@1.3.0/contracts/base/ModuleManager.sol\":6693:6706  currentModule */\n      dup1\n        /* \".deps/npm/@gnosis.pm/safe-contracts@1.3.0/contracts/base/ModuleManager.sol\":6672:6677  array */\n      dup5\n        /* \".deps/npm/@gnosis.pm/safe-contracts@1.3.0/contracts/base/ModuleManager.sol\":6678:6689  moduleCount */\n      dup4\n        /* \".deps/npm/@gnosis.pm/safe-contracts@1.3.0/contracts/base/ModuleManager.sol\":6672:6690  array[moduleCount] */\n      dup2\n      mload\n      dup2\n      lt\n      tag_73\n      jumpi\n      tag_74\n      tag_75\n      jump\t// in\n    tag_74:\n    tag_73:\n      0x20\n      mul\n      0x20\n      add\n      add\n        /* \".deps/npm/@gnosis.pm/safe-contracts@1.3.0/contracts/base/ModuleManager.sol\":6672:6706  array[moduleCount] = currentModule */\n      swap1\n      0xffffffffffffffffffffffffffffffffffffffff\n      and\n      swap1\n      dup2\n      0xffffffffffffffffffffffffffffffffffffffff\n      and\n      dup2\n      mstore\n      pop\n      pop\n        /* \".deps/npm/@gnosis.pm/safe-contracts@1.3.0/contracts/base/ModuleManager.sol\":6736:6743  modules */\n      0x00\n        /* \".deps/npm/@gnosis.pm/safe-contracts@1.3.0/contracts/base/ModuleManager.sol\":6736:6758  modules[currentModule] */\n      dup1\n        /* \".deps/npm/@gnosis.pm/safe-contracts@1.3.0/contracts/base/ModuleManager.sol\":6744:6757  currentModule */\n      dup3\n        /* \".deps/npm/@gnosis.pm/safe-contracts@1.3.0/contracts/base/ModuleManager.sol\":6736:6758  modules[currentModule] */\n      0xffffffffffffffffffffffffffffffffffffffff\n      and\n      0xffffffffffffffffffffffffffffffffffffffff\n      and\n      dup2\n      mstore\n      0x20\n      add\n      swap1\n      dup2\n      mstore\n      0x20\n      add\n      0x00\n      keccak256\n      0x00\n      swap1\n      sload\n      swap1\n      0x0100\n      exp\n      swap1\n      div\n      0xffffffffffffffffffffffffffffffffffffffff\n      and\n        /* \".deps/npm/@gnosis.pm/safe-contracts@1.3.0/contracts/base/ModuleManager.sol\":6720:6758  currentModule = modules[currentModule] */\n      swap1\n      pop\n        /* \".deps/npm/@gnosis.pm/safe-contracts@1.3.0/contracts/base/ModuleManager.sol\":6772:6785  moduleCount++ */\n      dup2\n      dup1\n      tag_76\n      swap1\n      tag_77\n      jump\t// in\n    tag_76:\n      swap3\n      pop\n      pop\n        /* \".deps/npm/@gnosis.pm/safe-contracts@1.3.0/contracts/base/ModuleManager.sol\":6557:6796  while (currentModule != address(0x0) && currentModule != SENTINEL_MODULES && moduleCount < pageSize) {... */\n      jump(tag_69)\n    tag_70:\n        /* \".deps/npm/@gnosis.pm/safe-contracts@1.3.0/contracts/base/ModuleManager.sol\":6812:6825  currentModule */\n      dup1\n        /* \".deps/npm/@gnosis.pm/safe-contracts@1.3.0/contracts/base/ModuleManager.sol\":6805:6825  next = currentModule */\n      swap3\n      pop\n        /* \".deps/npm/@gnosis.pm/safe-contracts@1.3.0/contracts/base/ModuleManager.sol\":6974:6985  moduleCount */\n      dup2\n        /* \".deps/npm/@gnosis.pm/safe-contracts@1.3.0/contracts/base/ModuleManager.sol\":6967:6972  array */\n      dup5\n        /* \".deps/npm/@gnosis.pm/safe-contracts@1.3.0/contracts/base/ModuleManager.sol\":6960:6986  mstore(array, moduleCount) */\n      mstore\n        /* \".deps/npm/@gnosis.pm/safe-contracts@1.3.0/contracts/base/ModuleManager.sol\":6946:6996  {... */\n      pop\n      pop\n        /* \".deps/npm/@gnosis.pm/safe-contracts@1.3.0/contracts/base/ModuleManager.sol\":6227:7002  function getModulesPaginated(address start, uint256 pageSize) external view returns (address[] memory array, address next) {... */\n      swap3\n      pop\n      swap3\n      swap1\n      pop\n      jump\t// out\n        /* \".deps/npm/@gnosis.pm/safe-contracts@1.3.0/contracts/base/ModuleManager.sol\":2445:2996  function disableModule(address prevModule, address module) public authorized { //讲模块从白名单移除... */\n    tag_37:\n        /* \".deps/npm/@gnosis.pm/safe-contracts@1.3.0/contracts/common/SelfAuthorized.sol\":440:457  requireSelfCall() */\n      tag_79\n        /* \".deps/npm/@gnosis.pm/safe-contracts@1.3.0/contracts/common/SelfAuthorized.sol\":440:455  requireSelfCall */\n      tag_53\n        /* \".deps/npm/@gnosis.pm/safe-contracts@1.3.0/contracts/common/SelfAuthorized.sol\":440:457  requireSelfCall() */\n      jump\t// in\n    tag_79:\n        /* \".deps/npm/@gnosis.pm/safe-contracts@1.3.0/contracts/base/ModuleManager.sol\":2670:2671  0 */\n      0x00\n        /* \".deps/npm/@gnosis.pm/safe-contracts@1.3.0/contracts/base/ModuleManager.sol\":2652:2672  module != address(0) */\n      0xffffffffffffffffffffffffffffffffffffffff\n      and\n        /* \".deps/npm/@gnosis.pm/safe-contracts@1.3.0/contracts/base/ModuleManager.sol\":2652:2658  module */\n      dup2\n        /* \".deps/npm/@gnosis.pm/safe-contracts@1.3.0/contracts/base/ModuleManager.sol\":2652:2672  module != address(0) */\n      0xffffffffffffffffffffffffffffffffffffffff\n      and\n      eq\n      iszero\n        /* \".deps/npm/@gnosis.pm/safe-contracts@1.3.0/contracts/base/ModuleManager.sol\":2652:2702  module != address(0) && module != SENTINEL_MODULES */\n      dup1\n      iszero\n      tag_81\n      jumpi\n      pop\n        /* \".deps/npm/@gnosis.pm/safe-contracts@1.3.0/contracts/base/ModuleManager.sol\":692:695  0x1 */\n      0x01\n        /* \".deps/npm/@gnosis.pm/safe-contracts@1.3.0/contracts/base/ModuleManager.sol\":2676:2702  module != SENTINEL_MODULES */\n      0xffffffffffffffffffffffffffffffffffffffff\n      and\n        /* \".deps/npm/@gnosis.pm/safe-contracts@1.3.0/contracts/base/ModuleManager.sol\":2676:2682  module */\n      dup2\n        /* \".deps/npm/@gnosis.pm/safe-contracts@1.3.0/contracts/base/ModuleManager.sol\":2676:2702  module != SENTINEL_MODULES */\n      0xffffffffffffffffffffffffffffffffffffffff\n      and\n      eq\n      iszero\n        /* \".deps/npm/@gnosis.pm/safe-contracts@1.3.0/contracts/base/ModuleManager.sol\":2652:2702  module != address(0) && module != SENTINEL_MODULES */\n    tag_81:\n        /* \".deps/npm/@gnosis.pm/safe-contracts@1.3.0/contracts/base/ModuleManager.sol\":2644:2712  require(module != address(0) && module != SENTINEL_MODULES, \"GS101\") */\n      tag_82\n      jumpi\n      mload(0x40)\n      0x08c379a000000000000000000000000000000000000000000000000000000000\n      dup2\n      mstore\n      0x04\n      add\n      tag_83\n      swap1\n      tag_58\n      jump\t// in\n    tag_83:\n      mload(0x40)\n      dup1\n      swap2\n      sub\n      swap1\n      revert\n    tag_82:\n        /* \".deps/npm/@gnosis.pm/safe-contracts@1.3.0/contracts/base/ModuleManager.sol\":2791:2797  module */\n      dup1\n        /* \".deps/npm/@gnosis.pm/safe-contracts@1.3.0/contracts/base/ModuleManager.sol\":2768:2797  modules[prevModule] == module */\n      0xffffffffffffffffffffffffffffffffffffffff\n      and\n        /* \".deps/npm/@gnosis.pm/safe-contracts@1.3.0/contracts/base/ModuleManager.sol\":2768:2775  modules */\n      0x00\n        /* \".deps/npm/@gnosis.pm/safe-contracts@1.3.0/contracts/base/ModuleManager.sol\":2768:2787  modules[prevModule] */\n      dup1\n        /* \".deps/npm/@gnosis.pm/safe-contracts@1.3.0/contracts/base/ModuleManager.sol\":2776:2786  prevModule */\n      dup5\n        /* \".deps/npm/@gnosis.pm/safe-contracts@1.3.0/contracts/base/ModuleManager.sol\":2768:2787  modules[prevModule] */\n      0xffffffffffffffffffffffffffffffffffffffff\n      and\n      0xffffffffffffffffffffffffffffffffffffffff\n      and\n      dup2\n      mstore\n      0x20\n      add\n      swap1\n      dup2\n      mstore\n      0x20\n      add\n      0x00\n      keccak256\n      0x00\n      swap1\n      sload\n      swap1\n      0x0100\n      exp\n      swap1\n      div\n      0xffffffffffffffffffffffffffffffffffffffff\n      and\n        /* \".deps/npm/@gnosis.pm/safe-contracts@1.3.0/contracts/base/ModuleManager.sol\":2768:2797  modules[prevModule] == module */\n      0xffffffffffffffffffffffffffffffffffffffff\n      and\n      eq\n        /* \".deps/npm/@gnosis.pm/safe-contracts@1.3.0/contracts/base/ModuleManager.sol\":2760:2807  require(modules[prevModule] == module, \"GS103\") */\n      tag_84\n      jumpi\n      mload(0x40)\n      0x08c379a000000000000000000000000000000000000000000000000000000000\n      dup2\n      mstore\n      0x04\n      add\n      tag_85\n      swap1\n      tag_86\n      jump\t// in\n    tag_85:\n      mload(0x40)\n      dup1\n      swap2\n      sub\n      swap1\n      revert\n    tag_84:\n        /* \".deps/npm/@gnosis.pm/safe-contracts@1.3.0/contracts/base/ModuleManager.sol\":2899:2906  modules */\n      0x00\n        /* \".deps/npm/@gnosis.pm/safe-contracts@1.3.0/contracts/base/ModuleManager.sol\":2899:2914  modules[module] */\n      dup1\n        /* \".deps/npm/@gnosis.pm/safe-contracts@1.3.0/contracts/base/ModuleManager.sol\":2907:2913  module */\n      dup3\n        /* \".deps/npm/@gnosis.pm/safe-contracts@1.3.0/contracts/base/ModuleManager.sol\":2899:2914  modules[module] */\n      0xffffffffffffffffffffffffffffffffffffffff\n      and\n      0xffffffffffffffffffffffffffffffffffffffff\n      and\n      dup2\n      mstore\n      0x20\n      add\n      swap1\n      dup2\n      mstore\n      0x20\n      add\n      0x00\n      keccak256\n      0x00\n      swap1\n      sload\n      swap1\n      0x0100\n      exp\n      swap1\n      div\n      0xffffffffffffffffffffffffffffffffffffffff\n      and\n        /* \".deps/npm/@gnosis.pm/safe-contracts@1.3.0/contracts/base/ModuleManager.sol\":2877:2884  modules */\n      0x00\n        /* \".deps/npm/@gnosis.pm/safe-contracts@1.3.0/contracts/base/ModuleManager.sol\":2877:2896  modules[prevModule] */\n      dup1\n        /* \".deps/npm/@gnosis.pm/safe-contracts@1.3.0/contracts/base/ModuleManager.sol\":2885:2895  prevModule */\n      dup5\n        /* \".deps/npm/@gnosis.pm/safe-contracts@1.3.0/contracts/base/ModuleManager.sol\":2877:2896  modules[prevModule] */\n      0xffffffffffffffffffffffffffffffffffffffff\n      and\n      0xffffffffffffffffffffffffffffffffffffffff\n      and\n      dup2\n      mstore\n      0x20\n      add\n      swap1\n      dup2\n      mstore\n      0x20\n      add\n      0x00\n      keccak256\n      0x00\n        /* \".deps/npm/@gnosis.pm/safe-contracts@1.3.0/contracts/base/ModuleManager.sol\":2877:2914  modules[prevModule] = modules[module] */\n      0x0100\n      exp\n      dup2\n      sload\n      dup2\n      0xffffffffffffffffffffffffffffffffffffffff\n      mul\n      not\n      and\n      swap1\n      dup4\n      0xffffffffffffffffffffffffffffffffffffffff\n      and\n      mul\n      or\n      swap1\n      sstore\n      pop\n        /* \".deps/npm/@gnosis.pm/safe-contracts@1.3.0/contracts/base/ModuleManager.sol\":2950:2951  0 */\n      0x00\n        /* \".deps/npm/@gnosis.pm/safe-contracts@1.3.0/contracts/base/ModuleManager.sol\":2924:2931  modules */\n      dup1\n        /* \".deps/npm/@gnosis.pm/safe-contracts@1.3.0/contracts/base/ModuleManager.sol\":2924:2939  modules[module] */\n      0x00\n        /* \".deps/npm/@gnosis.pm/safe-contracts@1.3.0/contracts/base/ModuleManager.sol\":2932:2938  module */\n      dup4\n        /* \".deps/npm/@gnosis.pm/safe-contracts@1.3.0/contracts/base/ModuleManager.sol\":2924:2939  modules[module] */\n      0xffffffffffffffffffffffffffffffffffffffff\n      and\n      0xffffffffffffffffffffffffffffffffffffffff\n      and\n      dup2\n      mstore\n      0x20\n      add\n      swap1\n      dup2\n      mstore\n      0x20\n      add\n      0x00\n      keccak256\n      0x00\n        /* \".deps/npm/@gnosis.pm/safe-contracts@1.3.0/contracts/base/ModuleManager.sol\":2924:2952  modules[module] = address(0) */\n      0x0100\n      exp\n      dup2\n      sload\n      dup2\n      0xffffffffffffffffffffffffffffffffffffffff\n      mul\n      not\n      and\n      swap1\n      dup4\n      0xffffffffffffffffffffffffffffffffffffffff\n      and\n      mul\n      or\n      swap1\n      sstore\n      pop\n        /* \".deps/npm/@gnosis.pm/safe-contracts@1.3.0/contracts/base/ModuleManager.sol\":2967:2989  DisabledModule(module) */\n      0xaab4fa2b463f581b2b32cb3b7e3b704b9ce37cc209b5fb4d77e593ace4054276\n        /* \".deps/npm/@gnosis.pm/safe-contracts@1.3.0/contracts/base/ModuleManager.sol\":2982:2988  module */\n      dup2\n        /* \".deps/npm/@gnosis.pm/safe-contracts@1.3.0/contracts/base/ModuleManager.sol\":2967:2989  DisabledModule(module) */\n      mload(0x40)\n      tag_87\n      swap2\n      swap1\n      tag_63\n      jump\t// in\n    tag_87:\n      mload(0x40)\n      dup1\n      swap2\n      sub\n      swap1\n      log1\n        /* \".deps/npm/@gnosis.pm/safe-contracts@1.3.0/contracts/base/ModuleManager.sol\":2445:2996  function disableModule(address prevModule, address module) public authorized { //讲模块从白名单移除... */\n      pop\n      pop\n      jump\t// out\n        /* \".deps/npm/@gnosis.pm/safe-contracts@1.3.0/contracts/base/Executor.sol\":242:1420  function execute(  //调用合约函数 该函数用于执行合约调用或委托调用（delegatecall）... */\n    tag_46:\n        /* \".deps/npm/@gnosis.pm/safe-contracts@1.3.0/contracts/base/Executor.sol\":692:704  bool success */\n      0x00\n        /* \".deps/npm/@gnosis.pm/safe-contracts@1.3.0/contracts/base/Executor.sol\":733:760  Enum.Operation.DelegateCall */\n      0x01\n        /* \".deps/npm/@gnosis.pm/safe-contracts@1.3.0/contracts/base/Executor.sol\":720:760  operation == Enum.Operation.DelegateCall */\n      dup1\n      dup2\n      gt\n      iszero\n      tag_89\n      jumpi\n      tag_90\n      tag_91\n      jump\t// in\n    tag_90:\n    tag_89:\n        /* \".deps/npm/@gnosis.pm/safe-contracts@1.3.0/contracts/base/Executor.sol\":720:729  operation */\n      dup4\n        /* \".deps/npm/@gnosis.pm/safe-contracts@1.3.0/contracts/base/Executor.sol\":720:760  operation == Enum.Operation.DelegateCall */\n      0x01\n      dup2\n      gt\n      iszero\n      tag_92\n      jumpi\n      tag_93\n      tag_91\n      jump\t// in\n    tag_93:\n    tag_92:\n      sub\n        /* \".deps/npm/@gnosis.pm/safe-contracts@1.3.0/contracts/base/Executor.sol\":716:1414  if (operation == Enum.Operation.DelegateCall) { //判断调类型当为委托调用时执行该函数... */\n      tag_94\n      jumpi\n        /* \".deps/npm/@gnosis.pm/safe-contracts@1.3.0/contracts/base/Executor.sol\":1063:1064  0 */\n      0x00\n        /* \".deps/npm/@gnosis.pm/safe-contracts@1.3.0/contracts/base/Executor.sol\":1060:1061  0 */\n      dup1\n        /* \".deps/npm/@gnosis.pm/safe-contracts@1.3.0/contracts/base/Executor.sol\":1053:1057  data */\n      dup6\n        /* \".deps/npm/@gnosis.pm/safe-contracts@1.3.0/contracts/base/Executor.sol\":1047:1058  mload(data) */\n      mload\n        /* \".deps/npm/@gnosis.pm/safe-contracts@1.3.0/contracts/base/Executor.sol\":1040:1044  0x20 */\n      0x20\n        /* \".deps/npm/@gnosis.pm/safe-contracts@1.3.0/contracts/base/Executor.sol\":1034:1038  data */\n      dup8\n        /* \".deps/npm/@gnosis.pm/safe-contracts@1.3.0/contracts/base/Executor.sol\":1030:1045  add(data, 0x20) */\n      add\n        /* \".deps/npm/@gnosis.pm/safe-contracts@1.3.0/contracts/base/Executor.sol\":1026:1028  to */\n      dup10\n        /* \".deps/npm/@gnosis.pm/safe-contracts@1.3.0/contracts/base/Executor.sol\":1019:1024  txGas */\n      dup7\n        /* \".deps/npm/@gnosis.pm/safe-contracts@1.3.0/contracts/base/Executor.sol\":1006:1065  delegatecall(txGas, to, add(data, 0x20), mload(data), 0, 0) */\n      delegatecall\n        /* \".deps/npm/@gnosis.pm/safe-contracts@1.3.0/contracts/base/Executor.sol\":995:1065  success := delegatecall(txGas, to, add(data, 0x20), mload(data), 0, 0) */\n      swap1\n      pop\n        /* \".deps/npm/@gnosis.pm/safe-contracts@1.3.0/contracts/base/Executor.sol\":716:1414  if (operation == Enum.Operation.DelegateCall) { //判断调类型当为委托调用时执行该函数... */\n      jump(tag_95)\n    tag_94:\n        /* \".deps/npm/@gnosis.pm/safe-contracts@1.3.0/contracts/base/Executor.sol\":1388:1389  0 */\n      0x00\n        /* \".deps/npm/@gnosis.pm/safe-contracts@1.3.0/contracts/base/Executor.sol\":1385:1386  0 */\n      dup1\n        /* \".deps/npm/@gnosis.pm/safe-contracts@1.3.0/contracts/base/Executor.sol\":1378:1382  data */\n      dup6\n        /* \".deps/npm/@gnosis.pm/safe-contracts@1.3.0/contracts/base/Executor.sol\":1372:1383  mload(data) */\n      mload\n        /* \".deps/npm/@gnosis.pm/safe-contracts@1.3.0/contracts/base/Executor.sol\":1365:1369  0x20 */\n      0x20\n        /* \".deps/npm/@gnosis.pm/safe-contracts@1.3.0/contracts/base/Executor.sol\":1359:1363  data */\n      dup8\n        /* \".deps/npm/@gnosis.pm/safe-contracts@1.3.0/contracts/base/Executor.sol\":1355:1370  add(data, 0x20) */\n      add\n        /* \".deps/npm/@gnosis.pm/safe-contracts@1.3.0/contracts/base/Executor.sol\":1348:1353  value */\n      dup9\n        /* \".deps/npm/@gnosis.pm/safe-contracts@1.3.0/contracts/base/Executor.sol\":1344:1346  to */\n      dup11\n        /* \".deps/npm/@gnosis.pm/safe-contracts@1.3.0/contracts/base/Executor.sol\":1337:1342  txGas */\n      dup8\n        /* \".deps/npm/@gnosis.pm/safe-contracts@1.3.0/contracts/base/Executor.sol\":1332:1390  call(txGas, to, value, add(data, 0x20), mload(data), 0, 0) */\n      call\n        /* \".deps/npm/@gnosis.pm/safe-contracts@1.3.0/contracts/base/Executor.sol\":1321:1390  success := call(txGas, to, value, add(data, 0x20), mload(data), 0, 0) */\n      swap1\n      pop\n        /* \".deps/npm/@gnosis.pm/safe-contracts@1.3.0/contracts/base/Executor.sol\":716:1414  if (operation == Enum.Operation.DelegateCall) { //判断调类型当为委托调用时执行该函数... */\n    tag_95:\n        /* \".deps/npm/@gnosis.pm/safe-contracts@1.3.0/contracts/base/Executor.sol\":242:1420  function execute(  //调用合约函数 该函数用于执行合约调用或委托调用（delegatecall）... */\n      swap6\n      swap5\n      pop\n      pop\n      pop\n      pop\n      pop\n      jump\t// out\n        /* \".deps/npm/@gnosis.pm/safe-contracts@1.3.0/contracts/common/SelfAuthorized.sol\":231:333  function requireSelfCall() private view {... */\n    tag_53:\n        /* \".deps/npm/@gnosis.pm/safe-contracts@1.3.0/contracts/common/SelfAuthorized.sol\":311:315  this */\n      address\n        /* \".deps/npm/@gnosis.pm/safe-contracts@1.3.0/contracts/common/SelfAuthorized.sol\":289:316  msg.sender == address(this) */\n      0xffffffffffffffffffffffffffffffffffffffff\n      and\n        /* \".deps/npm/@gnosis.pm/safe-contracts@1.3.0/contracts/common/SelfAuthorized.sol\":289:299  msg.sender */\n      caller\n        /* \".deps/npm/@gnosis.pm/safe-contracts@1.3.0/contracts/common/SelfAuthorized.sol\":289:316  msg.sender == address(this) */\n      0xffffffffffffffffffffffffffffffffffffffff\n      and\n      eq\n        /* \".deps/npm/@gnosis.pm/safe-contracts@1.3.0/contracts/common/SelfAuthorized.sol\":281:326  require(msg.sender == address(this), \"GS031\") */\n      tag_97\n      jumpi\n      mload(0x40)\n      0x08c379a000000000000000000000000000000000000000000000000000000000\n      dup2\n      mstore\n      0x04\n      add\n      tag_98\n      swap1\n      tag_99\n      jump\t// in\n    tag_98:\n      mload(0x40)\n      dup1\n      swap2\n      sub\n      swap1\n      revert\n    tag_97:\n        /* \".deps/npm/@gnosis.pm/safe-contracts@1.3.0/contracts/common/SelfAuthorized.sol\":231:333  function requireSelfCall() private view {... */\n      jump\t// out\n        /* \"#utility.yul\":7:82   */\n    tag_100:\n        /* \"#utility.yul\":40:46   */\n      0x00\n        /* \"#utility.yul\":73:75   */\n      0x40\n        /* \"#utility.yul\":67:76   */\n      mload\n        /* \"#utility.yul\":57:76   */\n      swap1\n      pop\n        /* \"#utility.yul\":7:82   */\n      swap1\n      jump\t// out\n        /* \"#utility.yul\":88:205   */\n    tag_101:\n        /* \"#utility.yul\":197:198   */\n      0x00\n        /* \"#utility.yul\":194:195   */\n      dup1\n        /* \"#utility.yul\":187:199   */\n      revert\n        /* \"#utility.yul\":211:328   */\n    tag_102:\n        /* \"#utility.yul\":320:321   */\n      0x00\n        /* \"#utility.yul\":317:318   */\n      dup1\n        /* \"#utility.yul\":310:322   */\n      revert\n        /* \"#utility.yul\":334:460   */\n    tag_103:\n        /* \"#utility.yul\":371:378   */\n      0x00\n        /* \"#utility.yul\":411:453   */\n      0xffffffffffffffffffffffffffffffffffffffff\n        /* \"#utility.yul\":404:409   */\n      dup3\n        /* \"#utility.yul\":400:454   */\n      and\n        /* \"#utility.yul\":389:454   */\n      swap1\n      pop\n        /* \"#utility.yul\":334:460   */\n      swap2\n      swap1\n      pop\n      jump\t// out\n        /* \"#utility.yul\":466:562   */\n    tag_104:\n        /* \"#utility.yul\":503:510   */\n      0x00\n        /* \"#utility.yul\":532:556   */\n      tag_153\n        /* \"#utility.yul\":550:555   */\n      dup3\n        /* \"#utility.yul\":532:556   */\n      tag_103\n      jump\t// in\n    tag_153:\n        /* \"#utility.yul\":521:556   */\n      swap1\n      pop\n        /* \"#utility.yul\":466:562   */\n      swap2\n      swap1\n      pop\n      jump\t// out\n        /* \"#utility.yul\":568:690   */\n    tag_105:\n        /* \"#utility.yul\":641:665   */\n      tag_155\n        /* \"#utility.yul\":659:664   */\n      dup2\n        /* \"#utility.yul\":641:665   */\n      tag_104\n      jump\t// in\n    tag_155:\n        /* \"#utility.yul\":634:639   */\n      dup2\n        /* \"#utility.yul\":631:666   */\n      eq\n        /* \"#utility.yul\":621:684   */\n      tag_156\n      jumpi\n        /* \"#utility.yul\":680:681   */\n      0x00\n        /* \"#utility.yul\":677:678   */\n      dup1\n        /* \"#utility.yul\":670:682   */\n      revert\n        /* \"#utility.yul\":621:684   */\n    tag_156:\n        /* \"#utility.yul\":568:690   */\n      pop\n      jump\t// out\n        /* \"#utility.yul\":696:835   */\n    tag_106:\n        /* \"#utility.yul\":742:747   */\n      0x00\n        /* \"#utility.yul\":780:786   */\n      dup2\n        /* \"#utility.yul\":767:787   */\n      calldataload\n        /* \"#utility.yul\":758:787   */\n      swap1\n      pop\n        /* \"#utility.yul\":796:829   */\n      tag_158\n        /* \"#utility.yul\":823:828   */\n      dup2\n        /* \"#utility.yul\":796:829   */\n      tag_105\n      jump\t// in\n    tag_158:\n        /* \"#utility.yul\":696:835   */\n      swap3\n      swap2\n      pop\n      pop\n      jump\t// out\n        /* \"#utility.yul\":841:1170   */\n    tag_11:\n        /* \"#utility.yul\":900:906   */\n      0x00\n        /* \"#utility.yul\":949:951   */\n      0x20\n        /* \"#utility.yul\":937:946   */\n      dup3\n        /* \"#utility.yul\":928:935   */\n      dup5\n        /* \"#utility.yul\":924:947   */\n      sub\n        /* \"#utility.yul\":920:952   */\n      slt\n        /* \"#utility.yul\":917:1036   */\n      iszero\n      tag_160\n      jumpi\n        /* \"#utility.yul\":955:1034   */\n      tag_161\n      tag_101\n      jump\t// in\n    tag_161:\n        /* \"#utility.yul\":917:1036   */\n    tag_160:\n        /* \"#utility.yul\":1075:1076   */\n      0x00\n        /* \"#utility.yul\":1100:1153   */\n      tag_162\n        /* \"#utility.yul\":1145:1152   */\n      dup5\n        /* \"#utility.yul\":1136:1142   */\n      dup3\n        /* \"#utility.yul\":1125:1134   */\n      dup6\n        /* \"#utility.yul\":1121:1143   */\n      add\n        /* \"#utility.yul\":1100:1153   */\n      tag_106\n      jump\t// in\n    tag_162:\n        /* \"#utility.yul\":1090:1153   */\n      swap2\n      pop\n        /* \"#utility.yul\":1046:1163   */\n      pop\n        /* \"#utility.yul\":841:1170   */\n      swap3\n      swap2\n      pop\n      pop\n      jump\t// out\n        /* \"#utility.yul\":1176:1266   */\n    tag_107:\n        /* \"#utility.yul\":1210:1217   */\n      0x00\n        /* \"#utility.yul\":1253:1258   */\n      dup2\n        /* \"#utility.yul\":1246:1259   */\n      iszero\n        /* \"#utility.yul\":1239:1260   */\n      iszero\n        /* \"#utility.yul\":1228:1260   */\n      swap1\n      pop\n        /* \"#utility.yul\":1176:1266   */\n      swap2\n      swap1\n      pop\n      jump\t// out\n        /* \"#utility.yul\":1272:1381   */\n    tag_108:\n        /* \"#utility.yul\":1353:1374   */\n      tag_165\n        /* \"#utility.yul\":1368:1373   */\n      dup2\n        /* \"#utility.yul\":1353:1374   */\n      tag_107\n      jump\t// in\n    tag_165:\n        /* \"#utility.yul\":1348:1351   */\n      dup3\n        /* \"#utility.yul\":1341:1375   */\n      mstore\n        /* \"#utility.yul\":1272:1381   */\n      pop\n      pop\n      jump\t// out\n        /* \"#utility.yul\":1387:1597   */\n    tag_14:\n        /* \"#utility.yul\":1474:1478   */\n      0x00\n        /* \"#utility.yul\":1512:1514   */\n      0x20\n        /* \"#utility.yul\":1501:1510   */\n      dup3\n        /* \"#utility.yul\":1497:1515   */\n      add\n        /* \"#utility.yul\":1489:1515   */\n      swap1\n      pop\n        /* \"#utility.yul\":1525:1590   */\n      tag_167\n        /* \"#utility.yul\":1587:1588   */\n      0x00\n        /* \"#utility.yul\":1576:1585   */\n      dup4\n        /* \"#utility.yul\":1572:1589   */\n      add\n        /* \"#utility.yul\":1563:1569   */\n      dup5\n        /* \"#utility.yul\":1525:1590   */\n      tag_108\n      jump\t// in\n    tag_167:\n        /* \"#utility.yul\":1387:1597   */\n      swap3\n      swap2\n      pop\n      pop\n      jump\t// out\n        /* \"#utility.yul\":1603:1680   */\n    tag_109:\n        /* \"#utility.yul\":1640:1647   */\n      0x00\n        /* \"#utility.yul\":1669:1674   */\n      dup2\n        /* \"#utility.yul\":1658:1674   */\n      swap1\n      pop\n        /* \"#utility.yul\":1603:1680   */\n      swap2\n      swap1\n      pop\n      jump\t// out\n        /* \"#utility.yul\":1686:1808   */\n    tag_110:\n        /* \"#utility.yul\":1759:1783   */\n      tag_170\n        /* \"#utility.yul\":1777:1782   */\n      dup2\n        /* \"#utility.yul\":1759:1783   */\n      tag_109\n      jump\t// in\n    tag_170:\n        /* \"#utility.yul\":1752:1757   */\n      dup2\n        /* \"#utility.yul\":1749:1784   */\n      eq\n        /* \"#utility.yul\":1739:1802   */\n      tag_171\n      jumpi\n        /* \"#utility.yul\":1798:1799   */\n      0x00\n        /* \"#utility.yul\":1795:1796   */\n      dup1\n        /* \"#utility.yul\":1788:1800   */\n      revert\n        /* \"#utility.yul\":1739:1802   */\n    tag_171:\n        /* \"#utility.yul\":1686:1808   */\n      pop\n      jump\t// out\n        /* \"#utility.yul\":1814:1953   */\n    tag_111:\n        /* \"#utility.yul\":1860:1865   */\n      0x00\n        /* \"#utility.yul\":1898:1904   */\n      dup2\n        /* \"#utility.yul\":1885:1905   */\n      calldataload\n        /* \"#utility.yul\":1876:1905   */\n      swap1\n      pop\n        /* \"#utility.yul\":1914:1947   */\n      tag_173\n        /* \"#utility.yul\":1941:1946   */\n      dup2\n        /* \"#utility.yul\":1914:1947   */\n      tag_110\n      jump\t// in\n    tag_173:\n        /* \"#utility.yul\":1814:1953   */\n      swap3\n      swap2\n      pop\n      pop\n      jump\t// out\n        /* \"#utility.yul\":1959:2076   */\n    tag_112:\n        /* \"#utility.yul\":2068:2069   */\n      0x00\n        /* \"#utility.yul\":2065:2066   */\n      dup1\n        /* \"#utility.yul\":2058:2070   */\n      revert\n        /* \"#utility.yul\":2082:2199   */\n    tag_113:\n        /* \"#utility.yul\":2191:2192   */\n      0x00\n        /* \"#utility.yul\":2188:2189   */\n      dup1\n        /* \"#utility.yul\":2181:2193   */\n      revert\n        /* \"#utility.yul\":2205:2307   */\n    tag_114:\n        /* \"#utility.yul\":2246:2252   */\n      0x00\n        /* \"#utility.yul\":2297:2299   */\n      0x1f\n        /* \"#utility.yul\":2293:2300   */\n      not\n        /* \"#utility.yul\":2288:2290   */\n      0x1f\n        /* \"#utility.yul\":2281:2286   */\n      dup4\n        /* \"#utility.yul\":2277:2291   */\n      add\n        /* \"#utility.yul\":2273:2301   */\n      and\n        /* \"#utility.yul\":2263:2301   */\n      swap1\n      pop\n        /* \"#utility.yul\":2205:2307   */\n      swap2\n      swap1\n      pop\n      jump\t// out\n        /* \"#utility.yul\":2313:2493   */\n    tag_67:\n        /* \"#utility.yul\":2361:2438   */\n      0x4e487b7100000000000000000000000000000000000000000000000000000000\n        /* \"#utility.yul\":2358:2359   */\n      0x00\n        /* \"#utility.yul\":2351:2439   */\n      mstore\n        /* \"#utility.yul\":2458:2462   */\n      0x41\n        /* \"#utility.yul\":2455:2456   */\n      0x04\n        /* \"#utility.yul\":2448:2463   */\n      mstore\n        /* \"#utility.yul\":2482:2486   */\n      0x24\n        /* \"#utility.yul\":2479:2480   */\n      0x00\n        /* \"#utility.yul\":2472:2487   */\n      revert\n        /* \"#utility.yul\":2499:2780   */\n    tag_115:\n        /* \"#utility.yul\":2582:2609   */\n      tag_179\n        /* \"#utility.yul\":2604:2608   */\n      dup3\n        /* \"#utility.yul\":2582:2609   */\n      tag_114\n      jump\t// in\n    tag_179:\n        /* \"#utility.yul\":2574:2580   */\n      dup2\n        /* \"#utility.yul\":2570:2610   */\n      add\n        /* \"#utility.yul\":2712:2718   */\n      dup2\n        /* \"#utility.yul\":2700:2710   */\n      dup2\n        /* \"#utility.yul\":2697:2719   */\n      lt\n        /* \"#utility.yul\":2676:2694   */\n      0xffffffffffffffff\n        /* \"#utility.yul\":2664:2674   */\n      dup3\n        /* \"#utility.yul\":2661:2695   */\n      gt\n        /* \"#utility.yul\":2658:2720   */\n      or\n        /* \"#utility.yul\":2655:2743   */\n      iszero\n      tag_180\n      jumpi\n        /* \"#utility.yul\":2723:2741   */\n      tag_181\n      tag_67\n      jump\t// in\n    tag_181:\n        /* \"#utility.yul\":2655:2743   */\n    tag_180:\n        /* \"#utility.yul\":2763:2773   */\n      dup1\n        /* \"#utility.yul\":2759:2761   */\n      0x40\n        /* \"#utility.yul\":2752:2774   */\n      mstore\n        /* \"#utility.yul\":2542:2780   */\n      pop\n        /* \"#utility.yul\":2499:2780   */\n      pop\n      pop\n      jump\t// out\n        /* \"#utility.yul\":2786:2915   */\n    tag_116:\n        /* \"#utility.yul\":2820:2826   */\n      0x00\n        /* \"#utility.yul\":2847:2867   */\n      tag_183\n      tag_100\n      jump\t// in\n    tag_183:\n        /* \"#utility.yul\":2837:2867   */\n      swap1\n      pop\n        /* \"#utility.yul\":2876:2909   */\n      tag_184\n        /* \"#utility.yul\":2904:2908   */\n      dup3\n        /* \"#utility.yul\":2896:2902   */\n      dup3\n        /* \"#utility.yul\":2876:2909   */\n      tag_115\n      jump\t// in\n    tag_184:\n        /* \"#utility.yul\":2786:2915   */\n      swap2\n      swap1\n      pop\n      jump\t// out\n        /* \"#utility.yul\":2921:3228   */\n    tag_117:\n        /* \"#utility.yul\":2982:2986   */\n      0x00\n        /* \"#utility.yul\":3072:3090   */\n      0xffffffffffffffff\n        /* \"#utility.yul\":3064:3070   */\n      dup3\n        /* \"#utility.yul\":3061:3091   */\n      gt\n        /* \"#utility.yul\":3058:3114   */\n      iszero\n      tag_186\n      jumpi\n        /* \"#utility.yul\":3094:3112   */\n      tag_187\n      tag_67\n      jump\t// in\n    tag_187:\n        /* \"#utility.yul\":3058:3114   */\n    tag_186:\n        /* \"#utility.yul\":3132:3161   */\n      tag_188\n        /* \"#utility.yul\":3154:3160   */\n      dup3\n        /* \"#utility.yul\":3132:3161   */\n      tag_114\n      jump\t// in\n    tag_188:\n        /* \"#utility.yul\":3124:3161   */\n      swap1\n      pop\n        /* \"#utility.yul\":3216:3220   */\n      0x20\n        /* \"#utility.yul\":3210:3214   */\n      dup2\n        /* \"#utility.yul\":3206:3221   */\n      add\n        /* \"#utility.yul\":3198:3221   */\n      swap1\n      pop\n        /* \"#utility.yul\":2921:3228   */\n      swap2\n      swap1\n      pop\n      jump\t// out\n        /* \"#utility.yul\":3234:3380   */\n    tag_118:\n        /* \"#utility.yul\":3331:3337   */\n      dup3\n        /* \"#utility.yul\":3326:3329   */\n      dup2\n        /* \"#utility.yul\":3321:3324   */\n      dup4\n        /* \"#utility.yul\":3308:3338   */\n      calldatacopy\n        /* \"#utility.yul\":3372:3373   */\n      0x00\n        /* \"#utility.yul\":3363:3369   */\n      dup4\n        /* \"#utility.yul\":3358:3361   */\n      dup4\n        /* \"#utility.yul\":3354:3370   */\n      add\n        /* \"#utility.yul\":3347:3374   */\n      mstore\n        /* \"#utility.yul\":3234:3380   */\n      pop\n      pop\n      pop\n      jump\t// out\n        /* \"#utility.yul\":3386:3809   */\n    tag_119:\n        /* \"#utility.yul\":3463:3468   */\n      0x00\n        /* \"#utility.yul\":3488:3553   */\n      tag_191\n        /* \"#utility.yul\":3504:3552   */\n      tag_192\n        /* \"#utility.yul\":3545:3551   */\n      dup5\n        /* \"#utility.yul\":3504:3552   */\n      tag_117\n      jump\t// in\n    tag_192:\n        /* \"#utility.yul\":3488:3553   */\n      tag_116\n      jump\t// in\n    tag_191:\n        /* \"#utility.yul\":3479:3553   */\n      swap1\n      pop\n        /* \"#utility.yul\":3576:3582   */\n      dup3\n        /* \"#utility.yul\":3569:3574   */\n      dup2\n        /* \"#utility.yul\":3562:3583   */\n      mstore\n        /* \"#utility.yul\":3614:3618   */\n      0x20\n        /* \"#utility.yul\":3607:3612   */\n      dup2\n        /* \"#utility.yul\":3603:3619   */\n      add\n        /* \"#utility.yul\":3652:3655   */\n      dup5\n        /* \"#utility.yul\":3643:3649   */\n      dup5\n        /* \"#utility.yul\":3638:3641   */\n      dup5\n        /* \"#utility.yul\":3634:3650   */\n      add\n        /* \"#utility.yul\":3631:3656   */\n      gt\n        /* \"#utility.yul\":3628:3740   */\n      iszero\n      tag_193\n      jumpi\n        /* \"#utility.yul\":3659:3738   */\n      tag_194\n      tag_113\n      jump\t// in\n    tag_194:\n        /* \"#utility.yul\":3628:3740   */\n    tag_193:\n        /* \"#utility.yul\":3749:3803   */\n      tag_195\n        /* \"#utility.yul\":3796:3802   */\n      dup5\n        /* \"#utility.yul\":3791:3794   */\n      dup3\n        /* \"#utility.yul\":3786:3789   */\n      dup6\n        /* \"#utility.yul\":3749:3803   */\n      tag_118\n      jump\t// in\n    tag_195:\n        /* \"#utility.yul\":3469:3809   */\n      pop\n        /* \"#utility.yul\":3386:3809   */\n      swap4\n      swap3\n      pop\n      pop\n      pop\n      jump\t// out\n        /* \"#utility.yul\":3828:4166   */\n    tag_120:\n        /* \"#utility.yul\":3883:3888   */\n      0x00\n        /* \"#utility.yul\":3932:3935   */\n      dup3\n        /* \"#utility.yul\":3925:3929   */\n      0x1f\n        /* \"#utility.yul\":3917:3923   */\n      dup4\n        /* \"#utility.yul\":3913:3930   */\n      add\n        /* \"#utility.yul\":3909:3936   */\n      slt\n        /* \"#utility.yul\":3899:4021   */\n      tag_197\n      jumpi\n        /* \"#utility.yul\":3940:4019   */\n      tag_198\n      tag_112\n      jump\t// in\n    tag_198:\n        /* \"#utility.yul\":3899:4021   */\n    tag_197:\n        /* \"#utility.yul\":4057:4063   */\n      dup2\n        /* \"#utility.yul\":4044:4064   */\n      calldataload\n        /* \"#utility.yul\":4082:4160   */\n      tag_199\n        /* \"#utility.yul\":4156:4159   */\n      dup5\n        /* \"#utility.yul\":4148:4154   */\n      dup3\n        /* \"#utility.yul\":4141:4145   */\n      0x20\n        /* \"#utility.yul\":4133:4139   */\n      dup7\n        /* \"#utility.yul\":4129:4146   */\n      add\n        /* \"#utility.yul\":4082:4160   */\n      tag_119\n      jump\t// in\n    tag_199:\n        /* \"#utility.yul\":4073:4160   */\n      swap2\n      pop\n        /* \"#utility.yul\":3889:4166   */\n      pop\n        /* \"#utility.yul\":3828:4166   */\n      swap3\n      swap2\n      pop\n      pop\n      jump\t// out\n        /* \"#utility.yul\":4172:4284   */\n    tag_121:\n        /* \"#utility.yul\":4258:4259   */\n      0x02\n        /* \"#utility.yul\":4251:4256   */\n      dup2\n        /* \"#utility.yul\":4248:4260   */\n      lt\n        /* \"#utility.yul\":4238:4278   */\n      tag_201\n      jumpi\n        /* \"#utility.yul\":4274:4275   */\n      0x00\n        /* \"#utility.yul\":4271:4272   */\n      dup1\n        /* \"#utility.yul\":4264:4276   */\n      revert\n        /* \"#utility.yul\":4238:4278   */\n    tag_201:\n        /* \"#utility.yul\":4172:4284   */\n      pop\n      jump\t// out\n        /* \"#utility.yul\":4290:4455   */\n    tag_122:\n        /* \"#utility.yul\":4349:4354   */\n      0x00\n        /* \"#utility.yul\":4387:4393   */\n      dup2\n        /* \"#utility.yul\":4374:4394   */\n      calldataload\n        /* \"#utility.yul\":4365:4394   */\n      swap1\n      pop\n        /* \"#utility.yul\":4403:4449   */\n      tag_203\n        /* \"#utility.yul\":4443:4448   */\n      dup2\n        /* \"#utility.yul\":4403:4449   */\n      tag_121\n      jump\t// in\n    tag_203:\n        /* \"#utility.yul\":4290:4455   */\n      swap3\n      swap2\n      pop\n      pop\n      jump\t// out\n        /* \"#utility.yul\":4461:5430   */\n    tag_17:\n        /* \"#utility.yul\":4569:4575   */\n      0x00\n        /* \"#utility.yul\":4577:4583   */\n      dup1\n        /* \"#utility.yul\":4585:4591   */\n      0x00\n        /* \"#utility.yul\":4593:4599   */\n      dup1\n        /* \"#utility.yul\":4642:4645   */\n      0x80\n        /* \"#utility.yul\":4630:4639   */\n      dup6\n        /* \"#utility.yul\":4621:4628   */\n      dup8\n        /* \"#utility.yul\":4617:4640   */\n      sub\n        /* \"#utility.yul\":4613:4646   */\n      slt\n        /* \"#utility.yul\":4610:4730   */\n      iszero\n      tag_205\n      jumpi\n        /* \"#utility.yul\":4649:4728   */\n      tag_206\n      tag_101\n      jump\t// in\n    tag_206:\n        /* \"#utility.yul\":4610:4730   */\n    tag_205:\n        /* \"#utility.yul\":4769:4770   */\n      0x00\n        /* \"#utility.yul\":4794:4847   */\n      tag_207\n        /* \"#utility.yul\":4839:4846   */\n      dup8\n        /* \"#utility.yul\":4830:4836   */\n      dup3\n        /* \"#utility.yul\":4819:4828   */\n      dup9\n        /* \"#utility.yul\":4815:4837   */\n      add\n        /* \"#utility.yul\":4794:4847   */\n      tag_106\n      jump\t// in\n    tag_207:\n        /* \"#utility.yul\":4784:4847   */\n      swap5\n      pop\n        /* \"#utility.yul\":4740:4857   */\n      pop\n        /* \"#utility.yul\":4896:4898   */\n      0x20\n        /* \"#utility.yul\":4922:4975   */\n      tag_208\n        /* \"#utility.yul\":4967:4974   */\n      dup8\n        /* \"#utility.yul\":4958:4964   */\n      dup3\n        /* \"#utility.yul\":4947:4956   */\n      dup9\n        /* \"#utility.yul\":4943:4965   */\n      add\n        /* \"#utility.yul\":4922:4975   */\n      tag_111\n      jump\t// in\n    tag_208:\n        /* \"#utility.yul\":4912:4975   */\n      swap4\n      pop\n        /* \"#utility.yul\":4867:4985   */\n      pop\n        /* \"#utility.yul\":5052:5054   */\n      0x40\n        /* \"#utility.yul\":5041:5050   */\n      dup6\n        /* \"#utility.yul\":5037:5055   */\n      add\n        /* \"#utility.yul\":5024:5056   */\n      calldataload\n        /* \"#utility.yul\":5083:5101   */\n      0xffffffffffffffff\n        /* \"#utility.yul\":5075:5081   */\n      dup2\n        /* \"#utility.yul\":5072:5102   */\n      gt\n        /* \"#utility.yul\":5069:5186   */\n      iszero\n      tag_209\n      jumpi\n        /* \"#utility.yul\":5105:5184   */\n      tag_210\n      tag_102\n      jump\t// in\n    tag_210:\n        /* \"#utility.yul\":5069:5186   */\n    tag_209:\n        /* \"#utility.yul\":5210:5272   */\n      tag_211\n        /* \"#utility.yul\":5264:5271   */\n      dup8\n        /* \"#utility.yul\":5255:5261   */\n      dup3\n        /* \"#utility.yul\":5244:5253   */\n      dup9\n        /* \"#utility.yul\":5240:5262   */\n      add\n        /* \"#utility.yul\":5210:5272   */\n      tag_120\n      jump\t// in\n    tag_211:\n        /* \"#utility.yul\":5200:5272   */\n      swap3\n      pop\n        /* \"#utility.yul\":4995:5282   */\n      pop\n        /* \"#utility.yul\":5321:5323   */\n      0x60\n        /* \"#utility.yul\":5347:5413   */\n      tag_212\n        /* \"#utility.yul\":5405:5412   */\n      dup8\n        /* \"#utility.yul\":5396:5402   */\n      dup3\n        /* \"#utility.yul\":5385:5394   */\n      dup9\n        /* \"#utility.yul\":5381:5403   */\n      add\n        /* \"#utility.yul\":5347:5413   */\n      tag_122\n      jump\t// in\n    tag_212:\n        /* \"#utility.yul\":5337:5413   */\n      swap2\n      pop\n        /* \"#utility.yul\":5292:5423   */\n      pop\n        /* \"#utility.yul\":4461:5430   */\n      swap3\n      swap6\n      swap2\n      swap5\n      pop\n      swap3\n      pop\n      jump\t// out\n        /* \"#utility.yul\":5436:5534   */\n    tag_123:\n        /* \"#utility.yul\":5487:5493   */\n      0x00\n        /* \"#utility.yul\":5521:5526   */\n      dup2\n        /* \"#utility.yul\":5515:5527   */\n      mload\n        /* \"#utility.yul\":5505:5527   */\n      swap1\n      pop\n        /* \"#utility.yul\":5436:5534   */\n      swap2\n      swap1\n      pop\n      jump\t// out\n        /* \"#utility.yul\":5540:5708   */\n    tag_124:\n        /* \"#utility.yul\":5623:5634   */\n      0x00\n        /* \"#utility.yul\":5657:5663   */\n      dup3\n        /* \"#utility.yul\":5652:5655   */\n      dup3\n        /* \"#utility.yul\":5645:5664   */\n      mstore\n        /* \"#utility.yul\":5697:5701   */\n      0x20\n        /* \"#utility.yul\":5692:5695   */\n      dup3\n        /* \"#utility.yul\":5688:5702   */\n      add\n        /* \"#utility.yul\":5673:5702   */\n      swap1\n      pop\n        /* \"#utility.yul\":5540:5708   */\n      swap3\n      swap2\n      pop\n      pop\n      jump\t// out\n        /* \"#utility.yul\":5714:5960   */\n    tag_125:\n        /* \"#utility.yul\":5795:5796   */\n      0x00\n        /* \"#utility.yul\":5805:5918   */\n    tag_216:\n        /* \"#utility.yul\":5819:5825   */\n      dup4\n        /* \"#utility.yul\":5816:5817   */\n      dup2\n        /* \"#utility.yul\":5813:5826   */\n      lt\n        /* \"#utility.yul\":5805:5918   */\n      iszero\n      tag_218\n      jumpi\n        /* \"#utility.yul\":5904:5905   */\n      dup1\n        /* \"#utility.yul\":5899:5902   */\n      dup3\n        /* \"#utility.yul\":5895:5906   */\n      add\n        /* \"#utility.yul\":5889:5907   */\n      mload\n        /* \"#utility.yul\":5885:5886   */\n      dup2\n        /* \"#utility.yul\":5880:5883   */\n      dup5\n        /* \"#utility.yul\":5876:5887   */\n      add\n        /* \"#utility.yul\":5869:5908   */\n      mstore\n        /* \"#utility.yul\":5841:5843   */\n      0x20\n        /* \"#utility.yul\":5838:5839   */\n      dup2\n        /* \"#utility.yul\":5834:5844   */\n      add\n        /* \"#utility.yul\":5829:5844   */\n      swap1\n      pop\n        /* \"#utility.yul\":5805:5918   */\n      jump(tag_216)\n    tag_218:\n        /* \"#utility.yul\":5952:5953   */\n      0x00\n        /* \"#utility.yul\":5943:5949   */\n      dup5\n        /* \"#utility.yul\":5938:5941   */\n      dup5\n        /* \"#utility.yul\":5934:5950   */\n      add\n        /* \"#utility.yul\":5927:5954   */\n      mstore\n        /* \"#utility.yul\":5776:5960   */\n      pop\n        /* \"#utility.yul\":5714:5960   */\n      pop\n      pop\n      pop\n      jump\t// out\n        /* \"#utility.yul\":5966:6339   */\n    tag_126:\n        /* \"#utility.yul\":6052:6055   */\n      0x00\n        /* \"#utility.yul\":6080:6118   */\n      tag_220\n        /* \"#utility.yul\":6112:6117   */\n      dup3\n        /* \"#utility.yul\":6080:6118   */\n      tag_123\n      jump\t// in\n    tag_220:\n        /* \"#utility.yul\":6134:6204   */\n      tag_221\n        /* \"#utility.yul\":6197:6203   */\n      dup2\n        /* \"#utility.yul\":6192:6195   */\n      dup6\n        /* \"#utility.yul\":6134:6204   */\n      tag_124\n      jump\t// in\n    tag_221:\n        /* \"#utility.yul\":6127:6204   */\n      swap4\n      pop\n        /* \"#utility.yul\":6213:6278   */\n      tag_222\n        /* \"#utility.yul\":6271:6277   */\n      dup2\n        /* \"#utility.yul\":6266:6269   */\n      dup6\n        /* \"#utility.yul\":6259:6263   */\n      0x20\n        /* \"#utility.yul\":6252:6257   */\n      dup7\n        /* \"#utility.yul\":6248:6264   */\n      add\n        /* \"#utility.yul\":6213:6278   */\n      tag_125\n      jump\t// in\n    tag_222:\n        /* \"#utility.yul\":6303:6332   */\n      tag_223\n        /* \"#utility.yul\":6325:6331   */\n      dup2\n        /* \"#utility.yul\":6303:6332   */\n      tag_114\n      jump\t// in\n    tag_223:\n        /* \"#utility.yul\":6298:6301   */\n      dup5\n        /* \"#utility.yul\":6294:6333   */\n      add\n        /* \"#utility.yul\":6287:6333   */\n      swap2\n      pop\n        /* \"#utility.yul\":6056:6339   */\n      pop\n        /* \"#utility.yul\":5966:6339   */\n      swap3\n      swap2\n      pop\n      pop\n      jump\t// out\n        /* \"#utility.yul\":6345:6752   */\n    tag_24:\n        /* \"#utility.yul\":6478:6482   */\n      0x00\n        /* \"#utility.yul\":6516:6518   */\n      0x40\n        /* \"#utility.yul\":6505:6514   */\n      dup3\n        /* \"#utility.yul\":6501:6519   */\n      add\n        /* \"#utility.yul\":6493:6519   */\n      swap1\n      pop\n        /* \"#utility.yul\":6529:6594   */\n      tag_225\n        /* \"#utility.yul\":6591:6592   */\n      0x00\n        /* \"#utility.yul\":6580:6589   */\n      dup4\n        /* \"#utility.yul\":6576:6593   */\n      add\n        /* \"#utility.yul\":6567:6573   */\n      dup6\n        /* \"#utility.yul\":6529:6594   */\n      tag_108\n      jump\t// in\n    tag_225:\n        /* \"#utility.yul\":6641:6650   */\n      dup2\n        /* \"#utility.yul\":6635:6639   */\n      dup2\n        /* \"#utility.yul\":6631:6651   */\n      sub\n        /* \"#utility.yul\":6626:6628   */\n      0x20\n        /* \"#utility.yul\":6615:6624   */\n      dup4\n        /* \"#utility.yul\":6611:6629   */\n      add\n        /* \"#utility.yul\":6604:6652   */\n      mstore\n        /* \"#utility.yul\":6669:6745   */\n      tag_226\n        /* \"#utility.yul\":6740:6744   */\n      dup2\n        /* \"#utility.yul\":6731:6737   */\n      dup5\n        /* \"#utility.yul\":6669:6745   */\n      tag_126\n      jump\t// in\n    tag_226:\n        /* \"#utility.yul\":6661:6745   */\n      swap1\n      pop\n        /* \"#utility.yul\":6345:6752   */\n      swap4\n      swap3\n      pop\n      pop\n      pop\n      jump\t// out\n        /* \"#utility.yul\":6758:7232   */\n    tag_30:\n        /* \"#utility.yul\":6826:6832   */\n      0x00\n        /* \"#utility.yul\":6834:6840   */\n      dup1\n        /* \"#utility.yul\":6883:6885   */\n      0x40\n        /* \"#utility.yul\":6871:6880   */\n      dup4\n        /* \"#utility.yul\":6862:6869   */\n      dup6\n        /* \"#utility.yul\":6858:6881   */\n      sub\n        /* \"#utility.yul\":6854:6886   */\n      slt\n        /* \"#utility.yul\":6851:6970   */\n      iszero\n      tag_228\n      jumpi\n        /* \"#utility.yul\":6889:6968   */\n      tag_229\n      tag_101\n      jump\t// in\n    tag_229:\n        /* \"#utility.yul\":6851:6970   */\n    tag_228:\n        /* \"#utility.yul\":7009:7010   */\n      0x00\n        /* \"#utility.yul\":7034:7087   */\n      tag_230\n        /* \"#utility.yul\":7079:7086   */\n      dup6\n        /* \"#utility.yul\":7070:7076   */\n      dup3\n        /* \"#utility.yul\":7059:7068   */\n      dup7\n        /* \"#utility.yul\":7055:7077   */\n      add\n        /* \"#utility.yul\":7034:7087   */\n      tag_106\n      jump\t// in\n    tag_230:\n        /* \"#utility.yul\":7024:7087   */\n      swap3\n      pop\n        /* \"#utility.yul\":6980:7097   */\n      pop\n        /* \"#utility.yul\":7136:7138   */\n      0x20\n        /* \"#utility.yul\":7162:7215   */\n      tag_231\n        /* \"#utility.yul\":7207:7214   */\n      dup6\n        /* \"#utility.yul\":7198:7204   */\n      dup3\n        /* \"#utility.yul\":7187:7196   */\n      dup7\n        /* \"#utility.yul\":7183:7205   */\n      add\n        /* \"#utility.yul\":7162:7215   */\n      tag_111\n      jump\t// in\n    tag_231:\n        /* \"#utility.yul\":7152:7215   */\n      swap2\n      pop\n        /* \"#utility.yul\":7107:7225   */\n      pop\n        /* \"#utility.yul\":6758:7232   */\n      swap3\n      pop\n      swap3\n      swap1\n      pop\n      jump\t// out\n        /* \"#utility.yul\":7238:7352   */\n    tag_127:\n        /* \"#utility.yul\":7305:7311   */\n      0x00\n        /* \"#utility.yul\":7339:7344   */\n      dup2\n        /* \"#utility.yul\":7333:7345   */\n      mload\n        /* \"#utility.yul\":7323:7345   */\n      swap1\n      pop\n        /* \"#utility.yul\":7238:7352   */\n      swap2\n      swap1\n      pop\n      jump\t// out\n        /* \"#utility.yul\":7358:7542   */\n    tag_128:\n        /* \"#utility.yul\":7457:7468   */\n      0x00\n        /* \"#utility.yul\":7491:7497   */\n      dup3\n        /* \"#utility.yul\":7486:7489   */\n      dup3\n        /* \"#utility.yul\":7479:7498   */\n      mstore\n        /* \"#utility.yul\":7531:7535   */\n      0x20\n        /* \"#utility.yul\":7526:7529   */\n      dup3\n        /* \"#utility.yul\":7522:7536   */\n      add\n        /* \"#utility.yul\":7507:7536   */\n      swap1\n      pop\n        /* \"#utility.yul\":7358:7542   */\n      swap3\n      swap2\n      pop\n      pop\n      jump\t// out\n        /* \"#utility.yul\":7548:7680   */\n    tag_129:\n        /* \"#utility.yul\":7615:7619   */\n      0x00\n        /* \"#utility.yul\":7638:7641   */\n      dup2\n        /* \"#utility.yul\":7630:7641   */\n      swap1\n      pop\n        /* \"#utility.yul\":7668:7672   */\n      0x20\n        /* \"#utility.yul\":7663:7666   */\n      dup3\n        /* \"#utility.yul\":7659:7673   */\n      add\n        /* \"#utility.yul\":7651:7673   */\n      swap1\n      pop\n        /* \"#utility.yul\":7548:7680   */\n      swap2\n      swap1\n      pop\n      jump\t// out\n        /* \"#utility.yul\":7686:7794   */\n    tag_130:\n        /* \"#utility.yul\":7763:7787   */\n      tag_236\n        /* \"#utility.yul\":7781:7786   */\n      dup2\n        /* \"#utility.yul\":7763:7787   */\n      tag_104\n      jump\t// in\n    tag_236:\n        /* \"#utility.yul\":7758:7761   */\n      dup3\n        /* \"#utility.yul\":7751:7788   */\n      mstore\n        /* \"#utility.yul\":7686:7794   */\n      pop\n      pop\n      jump\t// out\n        /* \"#utility.yul\":7800:7979   */\n    tag_131:\n        /* \"#utility.yul\":7869:7879   */\n      0x00\n        /* \"#utility.yul\":7890:7936   */\n      tag_238\n        /* \"#utility.yul\":7932:7935   */\n      dup4\n        /* \"#utility.yul\":7924:7930   */\n      dup4\n        /* \"#utility.yul\":7890:7936   */\n      tag_130\n      jump\t// in\n    tag_238:\n        /* \"#utility.yul\":7968:7972   */\n      0x20\n        /* \"#utility.yul\":7963:7966   */\n      dup4\n        /* \"#utility.yul\":7959:7973   */\n      add\n        /* \"#utility.yul\":7945:7973   */\n      swap1\n      pop\n        /* \"#utility.yul\":7800:7979   */\n      swap3\n      swap2\n      pop\n      pop\n      jump\t// out\n        /* \"#utility.yul\":7985:8098   */\n    tag_132:\n        /* \"#utility.yul\":8055:8059   */\n      0x00\n        /* \"#utility.yul\":8087:8091   */\n      0x20\n        /* \"#utility.yul\":8082:8085   */\n      dup3\n        /* \"#utility.yul\":8078:8092   */\n      add\n        /* \"#utility.yul\":8070:8092   */\n      swap1\n      pop\n        /* \"#utility.yul\":7985:8098   */\n      swap2\n      swap1\n      pop\n      jump\t// out\n        /* \"#utility.yul\":8134:8866   */\n    tag_133:\n        /* \"#utility.yul\":8253:8256   */\n      0x00\n        /* \"#utility.yul\":8282:8336   */\n      tag_241\n        /* \"#utility.yul\":8330:8335   */\n      dup3\n        /* \"#utility.yul\":8282:8336   */\n      tag_127\n      jump\t// in\n    tag_241:\n        /* \"#utility.yul\":8352:8438   */\n      tag_242\n        /* \"#utility.yul\":8431:8437   */\n      dup2\n        /* \"#utility.yul\":8426:8429   */\n      dup6\n        /* \"#utility.yul\":8352:8438   */\n      tag_128\n      jump\t// in\n    tag_242:\n        /* \"#utility.yul\":8345:8438   */\n      swap4\n      pop\n        /* \"#utility.yul\":8462:8518   */\n      tag_243\n        /* \"#utility.yul\":8512:8517   */\n      dup4\n        /* \"#utility.yul\":8462:8518   */\n      tag_129\n      jump\t// in\n    tag_243:\n        /* \"#utility.yul\":8541:8548   */\n      dup1\n        /* \"#utility.yul\":8572:8573   */\n      0x00\n        /* \"#utility.yul\":8557:8841   */\n    tag_244:\n        /* \"#utility.yul\":8582:8588   */\n      dup4\n        /* \"#utility.yul\":8579:8580   */\n      dup2\n        /* \"#utility.yul\":8576:8589   */\n      lt\n        /* \"#utility.yul\":8557:8841   */\n      iszero\n      tag_246\n      jumpi\n        /* \"#utility.yul\":8658:8664   */\n      dup2\n        /* \"#utility.yul\":8652:8665   */\n      mload\n        /* \"#utility.yul\":8685:8748   */\n      tag_247\n        /* \"#utility.yul\":8744:8747   */\n      dup9\n        /* \"#utility.yul\":8729:8742   */\n      dup3\n        /* \"#utility.yul\":8685:8748   */\n      tag_131\n      jump\t// in\n    tag_247:\n        /* \"#utility.yul\":8678:8748   */\n      swap8\n      pop\n        /* \"#utility.yul\":8771:8831   */\n      tag_248\n        /* \"#utility.yul\":8824:8830   */\n      dup4\n        /* \"#utility.yul\":8771:8831   */\n      tag_132\n      jump\t// in\n    tag_248:\n        /* \"#utility.yul\":8761:8831   */\n      swap3\n      pop\n        /* \"#utility.yul\":8617:8841   */\n      pop\n        /* \"#utility.yul\":8604:8605   */\n      0x01\n        /* \"#utility.yul\":8601:8602   */\n      dup2\n        /* \"#utility.yul\":8597:8606   */\n      add\n        /* \"#utility.yul\":8592:8606   */\n      swap1\n      pop\n        /* \"#utility.yul\":8557:8841   */\n      jump(tag_244)\n    tag_246:\n        /* \"#utility.yul\":8561:8575   */\n      pop\n        /* \"#utility.yul\":8857:8860   */\n      dup6\n        /* \"#utility.yul\":8850:8860   */\n      swap4\n      pop\n        /* \"#utility.yul\":8258:8866   */\n      pop\n      pop\n      pop\n        /* \"#utility.yul\":8134:8866   */\n      swap3\n      swap2\n      pop\n      pop\n      jump\t// out\n        /* \"#utility.yul\":8872:8990   */\n    tag_134:\n        /* \"#utility.yul\":8959:8983   */\n      tag_250\n        /* \"#utility.yul\":8977:8982   */\n      dup2\n        /* \"#utility.yul\":8959:8983   */\n      tag_104\n      jump\t// in\n    tag_250:\n        /* \"#utility.yul\":8954:8957   */\n      dup3\n        /* \"#utility.yul\":8947:8984   */\n      mstore\n        /* \"#utility.yul\":8872:8990   */\n      pop\n      pop\n      jump\t// out\n        /* \"#utility.yul\":8996:9479   */\n    tag_33:\n        /* \"#utility.yul\":9167:9171   */\n      0x00\n        /* \"#utility.yul\":9205:9207   */\n      0x40\n        /* \"#utility.yul\":9194:9203   */\n      dup3\n        /* \"#utility.yul\":9190:9208   */\n      add\n        /* \"#utility.yul\":9182:9208   */\n      swap1\n      pop\n        /* \"#utility.yul\":9254:9263   */\n      dup2\n        /* \"#utility.yul\":9248:9252   */\n      dup2\n        /* \"#utility.yul\":9244:9264   */\n      sub\n        /* \"#utility.yul\":9240:9241   */\n      0x00\n        /* \"#utility.yul\":9229:9238   */\n      dup4\n        /* \"#utility.yul\":9225:9242   */\n      add\n        /* \"#utility.yul\":9218:9265   */\n      mstore\n        /* \"#utility.yul\":9282:9390   */\n      tag_252\n        /* \"#utility.yul\":9385:9389   */\n      dup2\n        /* \"#utility.yul\":9376:9382   */\n      dup6\n        /* \"#utility.yul\":9282:9390   */\n      tag_133\n      jump\t// in\n    tag_252:\n        /* \"#utility.yul\":9274:9390   */\n      swap1\n      pop\n        /* \"#utility.yul\":9400:9472   */\n      tag_253\n        /* \"#utility.yul\":9468:9470   */\n      0x20\n        /* \"#utility.yul\":9457:9466   */\n      dup4\n        /* \"#utility.yul\":9453:9471   */\n      add\n        /* \"#utility.yul\":9444:9450   */\n      dup5\n        /* \"#utility.yul\":9400:9472   */\n      tag_134\n      jump\t// in\n    tag_253:\n        /* \"#utility.yul\":8996:9479   */\n      swap4\n      swap3\n      pop\n      pop\n      pop\n      jump\t// out\n        /* \"#utility.yul\":9485:9959   */\n    tag_36:\n        /* \"#utility.yul\":9553:9559   */\n      0x00\n        /* \"#utility.yul\":9561:9567   */\n      dup1\n        /* \"#utility.yul\":9610:9612   */\n      0x40\n        /* \"#utility.yul\":9598:9607   */\n      dup4\n        /* \"#utility.yul\":9589:9596   */\n      dup6\n        /* \"#utility.yul\":9585:9608   */\n      sub\n        /* \"#utility.yul\":9581:9613   */\n      slt\n        /* \"#utility.yul\":9578:9697   */\n      iszero\n      tag_255\n      jumpi\n        /* \"#utility.yul\":9616:9695   */\n      tag_256\n      tag_101\n      jump\t// in\n    tag_256:\n        /* \"#utility.yul\":9578:9697   */\n    tag_255:\n        /* \"#utility.yul\":9736:9737   */\n      0x00\n        /* \"#utility.yul\":9761:9814   */\n      tag_257\n        /* \"#utility.yul\":9806:9813   */\n      dup6\n        /* \"#utility.yul\":9797:9803   */\n      dup3\n        /* \"#utility.yul\":9786:9795   */\n      dup7\n        /* \"#utility.yul\":9782:9804   */\n      add\n        /* \"#utility.yul\":9761:9814   */\n      tag_106\n      jump\t// in\n    tag_257:\n        /* \"#utility.yul\":9751:9814   */\n      swap3\n      pop\n        /* \"#utility.yul\":9707:9824   */\n      pop\n        /* \"#utility.yul\":9863:9865   */\n      0x20\n        /* \"#utility.yul\":9889:9942   */\n      tag_258\n        /* \"#utility.yul\":9934:9941   */\n      dup6\n        /* \"#utility.yul\":9925:9931   */\n      dup3\n        /* \"#utility.yul\":9914:9923   */\n      dup7\n        /* \"#utility.yul\":9910:9932   */\n      add\n        /* \"#utility.yul\":9889:9942   */\n      tag_106\n      jump\t// in\n    tag_258:\n        /* \"#utility.yul\":9879:9942   */\n      swap2\n      pop\n        /* \"#utility.yul\":9834:9952   */\n      pop\n        /* \"#utility.yul\":9485:9959   */\n      swap3\n      pop\n      swap3\n      swap1\n      pop\n      jump\t// out\n        /* \"#utility.yul\":9965:10134   */\n    tag_135:\n        /* \"#utility.yul\":10049:10060   */\n      0x00\n        /* \"#utility.yul\":10083:10089   */\n      dup3\n        /* \"#utility.yul\":10078:10081   */\n      dup3\n        /* \"#utility.yul\":10071:10090   */\n      mstore\n        /* \"#utility.yul\":10123:10127   */\n      0x20\n        /* \"#utility.yul\":10118:10121   */\n      dup3\n        /* \"#utility.yul\":10114:10128   */\n      add\n        /* \"#utility.yul\":10099:10128   */\n      swap1\n      pop\n        /* \"#utility.yul\":9965:10134   */\n      swap3\n      swap2\n      pop\n      pop\n      jump\t// out\n        /* \"#utility.yul\":10140:10295   */\n    tag_136:\n        /* \"#utility.yul\":10280:10287   */\n      0x4753313034000000000000000000000000000000000000000000000000000000\n        /* \"#utility.yul\":10276:10277   */\n      0x00\n        /* \"#utility.yul\":10268:10274   */\n      dup3\n        /* \"#utility.yul\":10264:10278   */\n      add\n        /* \"#utility.yul\":10257:10288   */\n      mstore\n        /* \"#utility.yul\":10140:10295   */\n      pop\n      jump\t// out\n        /* \"#utility.yul\":10301:10666   */\n    tag_137:\n        /* \"#utility.yul\":10443:10446   */\n      0x00\n        /* \"#utility.yul\":10464:10530   */\n      tag_262\n        /* \"#utility.yul\":10528:10529   */\n      0x05\n        /* \"#utility.yul\":10523:10526   */\n      dup4\n        /* \"#utility.yul\":10464:10530   */\n      tag_135\n      jump\t// in\n    tag_262:\n        /* \"#utility.yul\":10457:10530   */\n      swap2\n      pop\n        /* \"#utility.yul\":10539:10632   */\n      tag_263\n        /* \"#utility.yul\":10628:10631   */\n      dup3\n        /* \"#utility.yul\":10539:10632   */\n      tag_136\n      jump\t// in\n    tag_263:\n        /* \"#utility.yul\":10657:10659   */\n      0x20\n        /* \"#utility.yul\":10652:10655   */\n      dup3\n        /* \"#utility.yul\":10648:10660   */\n      add\n        /* \"#utility.yul\":10641:10660   */\n      swap1\n      pop\n        /* \"#utility.yul\":10301:10666   */\n      swap2\n      swap1\n      pop\n      jump\t// out\n        /* \"#utility.yul\":10672:11091   */\n    tag_44:\n        /* \"#utility.yul\":10838:10842   */\n      0x00\n        /* \"#utility.yul\":10876:10878   */\n      0x20\n        /* \"#utility.yul\":10865:10874   */\n      dup3\n        /* \"#utility.yul\":10861:10879   */\n      add\n        /* \"#utility.yul\":10853:10879   */\n      swap1\n      pop\n        /* \"#utility.yul\":10925:10934   */\n      dup2\n        /* \"#utility.yul\":10919:10923   */\n      dup2\n        /* \"#utility.yul\":10915:10935   */\n      sub\n        /* \"#utility.yul\":10911:10912   */\n      0x00\n        /* \"#utility.yul\":10900:10909   */\n      dup4\n        /* \"#utility.yul\":10896:10913   */\n      add\n        /* \"#utility.yul\":10889:10936   */\n      mstore\n        /* \"#utility.yul\":10953:11084   */\n      tag_265\n        /* \"#utility.yul\":11079:11083   */\n      dup2\n        /* \"#utility.yul\":10953:11084   */\n      tag_137\n      jump\t// in\n    tag_265:\n        /* \"#utility.yul\":10945:11084   */\n      swap1\n      pop\n        /* \"#utility.yul\":10672:11091   */\n      swap2\n      swap1\n      pop\n      jump\t// out\n        /* \"#utility.yul\":11097:11252   */\n    tag_138:\n        /* \"#utility.yul\":11237:11244   */\n      0x4753313031000000000000000000000000000000000000000000000000000000\n        /* \"#utility.yul\":11233:11234   */\n      0x00\n        /* \"#utility.yul\":11225:11231   */\n      dup3\n        /* \"#utility.yul\":11221:11235   */\n      add\n        /* \"#utility.yul\":11214:11245   */\n      mstore\n        /* \"#utility.yul\":11097:11252   */\n      pop\n      jump\t// out\n        /* \"#utility.yul\":11258:11623   */\n    tag_139:\n        /* \"#utility.yul\":11400:11403   */\n      0x00\n        /* \"#utility.yul\":11421:11487   */\n      tag_268\n        /* \"#utility.yul\":11485:11486   */\n      0x05\n        /* \"#utility.yul\":11480:11483   */\n      dup4\n        /* \"#utility.yul\":11421:11487   */\n      tag_135\n      jump\t// in\n    tag_268:\n        /* \"#utility.yul\":11414:11487   */\n      swap2\n      pop\n        /* \"#utility.yul\":11496:11589   */\n      tag_269\n        /* \"#utility.yul\":11585:11588   */\n      dup3\n        /* \"#utility.yul\":11496:11589   */\n      tag_138\n      jump\t// in\n    tag_269:\n        /* \"#utility.yul\":11614:11616   */\n      0x20\n        /* \"#utility.yul\":11609:11612   */\n      dup3\n        /* \"#utility.yul\":11605:11617   */\n      add\n        /* \"#utility.yul\":11598:11617   */\n      swap1\n      pop\n        /* \"#utility.yul\":11258:11623   */\n      swap2\n      swap1\n      pop\n      jump\t// out\n        /* \"#utility.yul\":11629:12048   */\n    tag_58:\n        /* \"#utility.yul\":11795:11799   */\n      0x00\n        /* \"#utility.yul\":11833:11835   */\n      0x20\n        /* \"#utility.yul\":11822:11831   */\n      dup3\n        /* \"#utility.yul\":11818:11836   */\n      add\n        /* \"#utility.yul\":11810:11836   */\n      swap1\n      pop\n        /* \"#utility.yul\":11882:11891   */\n      dup2\n        /* \"#utility.yul\":11876:11880   */\n      dup2\n        /* \"#utility.yul\":11872:11892   */\n      sub\n        /* \"#utility.yul\":11868:11869   */\n      0x00\n        /* \"#utility.yul\":11857:11866   */\n      dup4\n        /* \"#utility.yul\":11853:11870   */\n      add\n        /* \"#utility.yul\":11846:11893   */\n      mstore\n        /* \"#utility.yul\":11910:12041   */\n      tag_271\n        /* \"#utility.yul\":12036:12040   */\n      dup2\n        /* \"#utility.yul\":11910:12041   */\n      tag_139\n      jump\t// in\n    tag_271:\n        /* \"#utility.yul\":11902:12041   */\n      swap1\n      pop\n        /* \"#utility.yul\":11629:12048   */\n      swap2\n      swap1\n      pop\n      jump\t// out\n        /* \"#utility.yul\":12054:12209   */\n    tag_140:\n        /* \"#utility.yul\":12194:12201   */\n      0x4753313032000000000000000000000000000000000000000000000000000000\n        /* \"#utility.yul\":12190:12191   */\n      0x00\n        /* \"#utility.yul\":12182:12188   */\n      dup3\n        /* \"#utility.yul\":12178:12192   */\n      add\n        /* \"#utility.yul\":12171:12202   */\n      mstore\n        /* \"#utility.yul\":12054:12209   */\n      pop\n      jump\t// out\n        /* \"#utility.yul\":12215:12580   */\n    tag_141:\n        /* \"#utility.yul\":12357:12360   */\n      0x00\n        /* \"#utility.yul\":12378:12444   */\n      tag_274\n        /* \"#utility.yul\":12442:12443   */\n      0x05\n        /* \"#utility.yul\":12437:12440   */\n      dup4\n        /* \"#utility.yul\":12378:12444   */\n      tag_135\n      jump\t// in\n    tag_274:\n        /* \"#utility.yul\":12371:12444   */\n      swap2\n      pop\n        /* \"#utility.yul\":12453:12546   */\n      tag_275\n        /* \"#utility.yul\":12542:12545   */\n      dup3\n        /* \"#utility.yul\":12453:12546   */\n      tag_140\n      jump\t// in\n    tag_275:\n        /* \"#utility.yul\":12571:12573   */\n      0x20\n        /* \"#utility.yul\":12566:12569   */\n      dup3\n        /* \"#utility.yul\":12562:12574   */\n      add\n        /* \"#utility.yul\":12555:12574   */\n      swap1\n      pop\n        /* \"#utility.yul\":12215:12580   */\n      swap2\n      swap1\n      pop\n      jump\t// out\n        /* \"#utility.yul\":12586:13005   */\n    tag_61:\n        /* \"#utility.yul\":12752:12756   */\n      0x00\n        /* \"#utility.yul\":12790:12792   */\n      0x20\n        /* \"#utility.yul\":12779:12788   */\n      dup3\n        /* \"#utility.yul\":12775:12793   */\n      add\n        /* \"#utility.yul\":12767:12793   */\n      swap1\n      pop\n        /* \"#utility.yul\":12839:12848   */\n      dup2\n        /* \"#utility.yul\":12833:12837   */\n      dup2\n        /* \"#utility.yul\":12829:12849   */\n      sub\n        /* \"#utility.yul\":12825:12826   */\n      0x00\n        /* \"#utility.yul\":12814:12823   */\n      dup4\n        /* \"#utility.yul\":12810:12827   */\n      add\n        /* \"#utility.yul\":12803:12850   */\n      mstore\n        /* \"#utility.yul\":12867:12998   */\n      tag_277\n        /* \"#utility.yul\":12993:12997   */\n      dup2\n        /* \"#utility.yul\":12867:12998   */\n      tag_141\n      jump\t// in\n    tag_277:\n        /* \"#utility.yul\":12859:12998   */\n      swap1\n      pop\n        /* \"#utility.yul\":12586:13005   */\n      swap2\n      swap1\n      pop\n      jump\t// out\n        /* \"#utility.yul\":13011:13233   */\n    tag_63:\n        /* \"#utility.yul\":13104:13108   */\n      0x00\n        /* \"#utility.yul\":13142:13144   */\n      0x20\n        /* \"#utility.yul\":13131:13140   */\n      dup3\n        /* \"#utility.yul\":13127:13145   */\n      add\n        /* \"#utility.yul\":13119:13145   */\n      swap1\n      pop\n        /* \"#utility.yul\":13155:13226   */\n      tag_279\n        /* \"#utility.yul\":13223:13224   */\n      0x00\n        /* \"#utility.yul\":13212:13221   */\n      dup4\n        /* \"#utility.yul\":13208:13225   */\n      add\n        /* \"#utility.yul\":13199:13205   */\n      dup5\n        /* \"#utility.yul\":13155:13226   */\n      tag_134\n      jump\t// in\n    tag_279:\n        /* \"#utility.yul\":13011:13233   */\n      swap3\n      swap2\n      pop\n      pop\n      jump\t// out\n        /* \"#utility.yul\":13239:13419   */\n    tag_75:\n        /* \"#utility.yul\":13287:13364   */\n      0x4e487b7100000000000000000000000000000000000000000000000000000000\n        /* \"#utility.yul\":13284:13285   */\n      0x00\n        /* \"#utility.yul\":13277:13365   */\n      mstore\n        /* \"#utility.yul\":13384:13388   */\n      0x32\n        /* \"#utility.yul\":13381:13382   */\n      0x04\n        /* \"#utility.yul\":13374:13389   */\n      mstore\n        /* \"#utility.yul\":13408:13412   */\n      0x24\n        /* \"#utility.yul\":13405:13406   */\n      0x00\n        /* \"#utility.yul\":13398:13413   */\n      revert\n        /* \"#utility.yul\":13425:13605   */\n    tag_142:\n        /* \"#utility.yul\":13473:13550   */\n      0x4e487b7100000000000000000000000000000000000000000000000000000000\n        /* \"#utility.yul\":13470:13471   */\n      0x00\n        /* \"#utility.yul\":13463:13551   */\n      mstore\n        /* \"#utility.yul\":13570:13574   */\n      0x11\n        /* \"#utility.yul\":13567:13568   */\n      0x04\n        /* \"#utility.yul\":13560:13575   */\n      mstore\n        /* \"#utility.yul\":13594:13598   */\n      0x24\n        /* \"#utility.yul\":13591:13592   */\n      0x00\n        /* \"#utility.yul\":13584:13599   */\n      revert\n        /* \"#utility.yul\":13611:13844   */\n    tag_77:\n        /* \"#utility.yul\":13650:13653   */\n      0x00\n        /* \"#utility.yul\":13673:13697   */\n      tag_283\n        /* \"#utility.yul\":13691:13696   */\n      dup3\n        /* \"#utility.yul\":13673:13697   */\n      tag_109\n      jump\t// in\n    tag_283:\n        /* \"#utility.yul\":13664:13697   */\n      swap2\n      pop\n        /* \"#utility.yul\":13719:13785   */\n      0xffffffffffffffffffffffffffffffffffffffffffffffffffffffffffffffff\n        /* \"#utility.yul\":13712:13717   */\n      dup3\n        /* \"#utility.yul\":13709:13786   */\n      sub\n        /* \"#utility.yul\":13706:13809   */\n      tag_284\n      jumpi\n        /* \"#utility.yul\":13789:13807   */\n      tag_285\n      tag_142\n      jump\t// in\n    tag_285:\n        /* \"#utility.yul\":13706:13809   */\n    tag_284:\n        /* \"#utility.yul\":13836:13837   */\n      0x01\n        /* \"#utility.yul\":13829:13834   */\n      dup3\n        /* \"#utility.yul\":13825:13838   */\n      add\n        /* \"#utility.yul\":13818:13838   */\n      swap1\n      pop\n        /* \"#utility.yul\":13611:13844   */\n      swap2\n      swap1\n      pop\n      jump\t// out\n        /* \"#utility.yul\":13850:14005   */\n    tag_143:\n        /* \"#utility.yul\":13990:13997   */\n      0x4753313033000000000000000000000000000000000000000000000000000000\n        /* \"#utility.yul\":13986:13987   */\n      0x00\n        /* \"#utility.yul\":13978:13984   */\n      dup3\n        /* \"#utility.yul\":13974:13988   */\n      add\n        /* \"#utility.yul\":13967:13998   */\n      mstore\n        /* \"#utility.yul\":13850:14005   */\n      pop\n      jump\t// out\n        /* \"#utility.yul\":14011:14376   */\n    tag_144:\n        /* \"#utility.yul\":14153:14156   */\n      0x00\n        /* \"#utility.yul\":14174:14240   */\n      tag_288\n        /* \"#utility.yul\":14238:14239   */\n      0x05\n        /* \"#utility.yul\":14233:14236   */\n      dup4\n        /* \"#utility.yul\":14174:14240   */\n      tag_135\n      jump\t// in\n    tag_288:\n        /* \"#utility.yul\":14167:14240   */\n      swap2\n      pop\n        /* \"#utility.yul\":14249:14342   */\n      tag_289\n        /* \"#utility.yul\":14338:14341   */\n      dup3\n        /* \"#utility.yul\":14249:14342   */\n      tag_143\n      jump\t// in\n    tag_289:\n        /* \"#utility.yul\":14367:14369   */\n      0x20\n        /* \"#utility.yul\":14362:14365   */\n      dup3\n        /* \"#utility.yul\":14358:14370   */\n      add\n        /* \"#utility.yul\":14351:14370   */\n      swap1\n      pop\n        /* \"#utility.yul\":14011:14376   */\n      swap2\n      swap1\n      pop\n      jump\t// out\n        /* \"#utility.yul\":14382:14801   */\n    tag_86:\n        /* \"#utility.yul\":14548:14552   */\n      0x00\n        /* \"#utility.yul\":14586:14588   */\n      0x20\n        /* \"#utility.yul\":14575:14584   */\n      dup3\n        /* \"#utility.yul\":14571:14589   */\n      add\n        /* \"#utility.yul\":14563:14589   */\n      swap1\n      pop\n        /* \"#utility.yul\":14635:14644   */\n      dup2\n        /* \"#utility.yul\":14629:14633   */\n      dup2\n        /* \"#utility.yul\":14625:14645   */\n      sub\n        /* \"#utility.yul\":14621:14622   */\n      0x00\n        /* \"#utility.yul\":14610:14619   */\n      dup4\n        /* \"#utility.yul\":14606:14623   */\n      add\n        /* \"#utility.yul\":14599:14646   */\n      mstore\n        /* \"#utility.yul\":14663:14794   */\n      tag_291\n        /* \"#utility.yul\":14789:14793   */\n      dup2\n        /* \"#utility.yul\":14663:14794   */\n      tag_144\n      jump\t// in\n    tag_291:\n        /* \"#utility.yul\":14655:14794   */\n      swap1\n      pop\n        /* \"#utility.yul\":14382:14801   */\n      swap2\n      swap1\n      pop\n      jump\t// out\n        /* \"#utility.yul\":14807:14987   */\n    tag_91:\n        /* \"#utility.yul\":14855:14932   */\n      0x4e487b7100000000000000000000000000000000000000000000000000000000\n        /* \"#utility.yul\":14852:14853   */\n      0x00\n        /* \"#utility.yul\":14845:14933   */\n      mstore\n        /* \"#utility.yul\":14952:14956   */\n      0x21\n        /* \"#utility.yul\":14949:14950   */\n      0x04\n        /* \"#utility.yul\":14942:14957   */\n      mstore\n        /* \"#utility.yul\":14976:14980   */\n      0x24\n        /* \"#utility.yul\":14973:14974   */\n      0x00\n        /* \"#utility.yul\":14966:14981   */\n      revert\n        /* \"#utility.yul\":14993:15148   */\n    tag_145:\n        /* \"#utility.yul\":15133:15140   */\n      0x4753303331000000000000000000000000000000000000000000000000000000\n        /* \"#utility.yul\":15129:15130   */\n      0x00\n        /* \"#utility.yul\":15121:15127   */\n      dup3\n        /* \"#utility.yul\":15117:15131   */\n      add\n        /* \"#utility.yul\":15110:15141   */\n      mstore\n        /* \"#utility.yul\":14993:15148   */\n      pop\n      jump\t// out\n        /* \"#utility.yul\":15154:15519   */\n    tag_146:\n        /* \"#utility.yul\":15296:15299   */\n      0x00\n        /* \"#utility.yul\":15317:15383   */\n      tag_295\n        /* \"#utility.yul\":15381:15382   */\n      0x05\n        /* \"#utility.yul\":15376:15379   */\n      dup4\n        /* \"#utility.yul\":15317:15383   */\n      tag_135\n      jump\t// in\n    tag_295:\n        /* \"#utility.yul\":15310:15383   */\n      swap2\n      pop\n        /* \"#utility.yul\":15392:15485   */\n      tag_296\n        /* \"#utility.yul\":15481:15484   */\n      dup3\n        /* \"#utility.yul\":15392:15485   */\n      tag_145\n      jump\t// in\n    tag_296:\n        /* \"#utility.yul\":15510:15512   */\n      0x20\n        /* \"#utility.yul\":15505:15508   */\n      dup3\n        /* \"#utility.yul\":15501:15513   */\n      add\n        /* \"#utility.yul\":15494:15513   */\n      swap1\n      pop\n        /* \"#utility.yul\":15154:15519   */\n      swap2\n      swap1\n      pop\n      jump\t// out\n        /* \"#utility.yul\":15525:15944   */\n    tag_99:\n        /* \"#utility.yul\":15691:15695   */\n      0x00\n        /* \"#utility.yul\":15729:15731   */\n      0x20\n        /* \"#utility.yul\":15718:15727   */\n      dup3\n        /* \"#utility.yul\":15714:15732   */\n      add\n        /* \"#utility.yul\":15706:15732   */\n      swap1\n      pop\n        /* \"#utility.yul\":15778:15787   */\n      dup2\n        /* \"#utility.yul\":15772:15776   */\n      dup2\n        /* \"#utility.yul\":15768:15788   */\n      sub\n        /* \"#utility.yul\":15764:15765   */\n      0x00\n        /* \"#utility.yul\":15753:15762   */\n      dup4\n        /* \"#utility.yul\":15749:15766   */\n      add\n        /* \"#utility.yul\":15742:15789   */\n      mstore\n        /* \"#utility.yul\":15806:15937   */\n      tag_298\n        /* \"#utility.yul\":15932:15936   */\n      dup2\n        /* \"#utility.yul\":15806:15937   */\n      tag_146\n      jump\t// in\n    tag_298:\n        /* \"#utility.yul\":15798:15937   */\n      swap1\n      pop\n        /* \"#utility.yul\":15525:15944   */\n      swap2\n      swap1\n      pop\n      jump\t// out\n\n    auxdata: 0xa264697066735822122058742dad5b4c133177c2bde4af28cca430c012d0f001bc65c328dc8e8d30733f64736f6c63430008180033\n}\n",
				"bytecode": {
					"linkReferences": {},
					"object": "608060405234801561000f575f80fd5b506114f68061001d5f395ff3fe608060405234801561000f575f80fd5b5060043610610060575f3560e01c80632d9ad53d14610064578063468721a7146100945780635229073f146100c4578063610b5925146100f5578063cc2f845214610111578063e009cfde14610142575b5f80fd5b61007e60048036038101906100799190610d39565b61015e565b60405161008b9190610d7e565b60405180910390f35b6100ae60048036038101906100a99190610f29565b61022a565b6040516100bb9190610d7e565b60405180910390f35b6100de60048036038101906100d99190610f29565b6103d7565b6040516100ec929190611023565b60405180910390f35b61010f600480360381019061010a9190610d39565b61040b565b005b61012b60048036038101906101269190611051565b61070f565b604051610139929190611155565b60405180910390f35b61015c60048036038101906101579190611183565b610905565b005b5f8173ffffffffffffffffffffffffffffffffffffffff16600173ffffffffffffffffffffffffffffffffffffffff161415801561022357505f73ffffffffffffffffffffffffffffffffffffffff165f808473ffffffffffffffffffffffffffffffffffffffff1673ffffffffffffffffffffffffffffffffffffffff1681526020019081526020015f205f9054906101000a900473ffffffffffffffffffffffffffffffffffffffff1673ffffffffffffffffffffffffffffffffffffffff1614155b9050919050565b5f600173ffffffffffffffffffffffffffffffffffffffff163373ffffffffffffffffffffffffffffffffffffffff16141580156102ef57505f73ffffffffffffffffffffffffffffffffffffffff165f803373ffffffffffffffffffffffffffffffffffffffff1673ffffffffffffffffffffffffffffffffffffffff1681526020019081526020015f205f9054906101000a900473ffffffffffffffffffffffffffffffffffffffff1673ffffffffffffffffffffffffffffffffffffffff1614155b61032e576040517f08c379a00000000000000000000000000000000000000000000000000000000081526004016103259061121b565b60405180910390fd5b61033b858585855a610c08565b9050801561038b573373ffffffffffffffffffffffffffffffffffffffff167f6895c13664aa4f67288b25d7a21d7aaa34916e355fb9b6fae0a139a9085becb860405160405180910390a26103cf565b3373ffffffffffffffffffffffffffffffffffffffff167facd2c8702804128fdb0db2bb49f6d127dd0181c13fd45dbfe16de0930e2bd37560405160405180910390a25b949350505050565b5f60606103e68686868661022a565b915060405160203d0181016040523d81523d5f602083013e8091505094509492505050565b610413610c5e565b5f73ffffffffffffffffffffffffffffffffffffffff168173ffffffffffffffffffffffffffffffffffffffff161415801561047c5750600173ffffffffffffffffffffffffffffffffffffffff168173ffffffffffffffffffffffffffffffffffffffff1614155b6104bb576040517f08c379a00000000000000000000000000000000000000000000000000000000081526004016104b290611283565b60405180910390fd5b5f73ffffffffffffffffffffffffffffffffffffffff165f808373ffffffffffffffffffffffffffffffffffffffff1673ffffffffffffffffffffffffffffffffffffffff1681526020019081526020015f205f9054906101000a900473ffffffffffffffffffffffffffffffffffffffff1673ffffffffffffffffffffffffffffffffffffffff1614610584576040517f08c379a000000000000000000000000000000000000000000000000000000000815260040161057b906112eb565b60405180910390fd5b5f80600173ffffffffffffffffffffffffffffffffffffffff1673ffffffffffffffffffffffffffffffffffffffff1681526020019081526020015f205f9054906101000a900473ffffffffffffffffffffffffffffffffffffffff165f808373ffffffffffffffffffffffffffffffffffffffff1673ffffffffffffffffffffffffffffffffffffffff1681526020019081526020015f205f6101000a81548173ffffffffffffffffffffffffffffffffffffffff021916908373ffffffffffffffffffffffffffffffffffffffff160217905550805f80600173ffffffffffffffffffffffffffffffffffffffff1673ffffffffffffffffffffffffffffffffffffffff1681526020019081526020015f205f6101000a81548173ffffffffffffffffffffffffffffffffffffffff021916908373ffffffffffffffffffffffffffffffffffffffff1602179055507fecdf3a3effea5783a3c4c2140e677577666428d44ed9d474a0b3a4c9943f8440816040516107049190611309565b60405180910390a150565b60605f8267ffffffffffffffff81111561072c5761072b610de2565b5b60405190808252806020026020018201604052801561075a5781602001602082028036833780820191505090505b5091505f80805f8773ffffffffffffffffffffffffffffffffffffffff1673ffffffffffffffffffffffffffffffffffffffff1681526020019081526020015f205f9054906101000a900473ffffffffffffffffffffffffffffffffffffffff1690505b5f73ffffffffffffffffffffffffffffffffffffffff168173ffffffffffffffffffffffffffffffffffffffff16141580156108275750600173ffffffffffffffffffffffffffffffffffffffff168173ffffffffffffffffffffffffffffffffffffffff1614155b801561083257508482105b156108f6578084838151811061084b5761084a611322565b5b602002602001019073ffffffffffffffffffffffffffffffffffffffff16908173ffffffffffffffffffffffffffffffffffffffff16815250505f808273ffffffffffffffffffffffffffffffffffffffff1673ffffffffffffffffffffffffffffffffffffffff1681526020019081526020015f205f9054906101000a900473ffffffffffffffffffffffffffffffffffffffff16905081806108ee9061137c565b9250506107be565b80925081845250509250929050565b61090d610c5e565b5f73ffffffffffffffffffffffffffffffffffffffff168173ffffffffffffffffffffffffffffffffffffffff16141580156109765750600173ffffffffffffffffffffffffffffffffffffffff168173ffffffffffffffffffffffffffffffffffffffff1614155b6109b5576040517f08c379a00000000000000000000000000000000000000000000000000000000081526004016109ac90611283565b60405180910390fd5b8073ffffffffffffffffffffffffffffffffffffffff165f808473ffffffffffffffffffffffffffffffffffffffff1673ffffffffffffffffffffffffffffffffffffffff1681526020019081526020015f205f9054906101000a900473ffffffffffffffffffffffffffffffffffffffff1673ffffffffffffffffffffffffffffffffffffffff1614610a7e576040517f08c379a0000000000000000000000000000000000000000000000000000000008152600401610a759061140d565b60405180910390fd5b5f808273ffffffffffffffffffffffffffffffffffffffff1673ffffffffffffffffffffffffffffffffffffffff1681526020019081526020015f205f9054906101000a900473ffffffffffffffffffffffffffffffffffffffff165f808473ffffffffffffffffffffffffffffffffffffffff1673ffffffffffffffffffffffffffffffffffffffff1681526020019081526020015f205f6101000a81548173ffffffffffffffffffffffffffffffffffffffff021916908373ffffffffffffffffffffffffffffffffffffffff1602179055505f805f8373ffffffffffffffffffffffffffffffffffffffff1673ffffffffffffffffffffffffffffffffffffffff1681526020019081526020015f205f6101000a81548173ffffffffffffffffffffffffffffffffffffffff021916908373ffffffffffffffffffffffffffffffffffffffff1602179055507faab4fa2b463f581b2b32cb3b7e3b704b9ce37cc209b5fb4d77e593ace405427681604051610bfc9190611309565b60405180910390a15050565b5f600180811115610c1c57610c1b61142b565b5b836001811115610c2f57610c2e61142b565b5b03610c46575f808551602087018986f49050610c55565b5f80855160208701888a87f190505b95945050505050565b3073ffffffffffffffffffffffffffffffffffffffff163373ffffffffffffffffffffffffffffffffffffffff1614610ccc576040517f08c379a0000000000000000000000000000000000000000000000000000000008152600401610cc3906114a2565b60405180910390fd5b565b5f604051905090565b5f80fd5b5f80fd5b5f73ffffffffffffffffffffffffffffffffffffffff82169050919050565b5f610d0882610cdf565b9050919050565b610d1881610cfe565b8114610d22575f80fd5b50565b5f81359050610d3381610d0f565b92915050565b5f60208284031215610d4e57610d4d610cd7565b5b5f610d5b84828501610d25565b91505092915050565b5f8115159050919050565b610d7881610d64565b82525050565b5f602082019050610d915f830184610d6f565b92915050565b5f819050919050565b610da981610d97565b8114610db3575f80fd5b50565b5f81359050610dc481610da0565b92915050565b5f80fd5b5f80fd5b5f601f19601f8301169050919050565b7f4e487b71000000000000000000000000000000000000000000000000000000005f52604160045260245ffd5b610e1882610dd2565b810181811067ffffffffffffffff82111715610e3757610e36610de2565b5b80604052505050565b5f610e49610cce565b9050610e558282610e0f565b919050565b5f67ffffffffffffffff821115610e7457610e73610de2565b5b610e7d82610dd2565b9050602081019050919050565b828183375f83830152505050565b5f610eaa610ea584610e5a565b610e40565b905082815260208101848484011115610ec657610ec5610dce565b5b610ed1848285610e8a565b509392505050565b5f82601f830112610eed57610eec610dca565b5b8135610efd848260208601610e98565b91505092915050565b60028110610f12575f80fd5b50565b5f81359050610f2381610f06565b92915050565b5f805f8060808587031215610f4157610f40610cd7565b5b5f610f4e87828801610d25565b9450506020610f5f87828801610db6565b935050604085013567ffffffffffffffff811115610f8057610f7f610cdb565b5b610f8c87828801610ed9565b9250506060610f9d87828801610f15565b91505092959194509250565b5f81519050919050565b5f82825260208201905092915050565b5f5b83811015610fe0578082015181840152602081019050610fc5565b5f8484015250505050565b5f610ff582610fa9565b610fff8185610fb3565b935061100f818560208601610fc3565b61101881610dd2565b840191505092915050565b5f6040820190506110365f830185610d6f565b81810360208301526110488184610feb565b90509392505050565b5f806040838503121561106757611066610cd7565b5b5f61107485828601610d25565b925050602061108585828601610db6565b9150509250929050565b5f81519050919050565b5f82825260208201905092915050565b5f819050602082019050919050565b6110c181610cfe565b82525050565b5f6110d283836110b8565b60208301905092915050565b5f602082019050919050565b5f6110f48261108f565b6110fe8185611099565b9350611109836110a9565b805f5b8381101561113957815161112088826110c7565b975061112b836110de565b92505060018101905061110c565b5085935050505092915050565b61114f81610cfe565b82525050565b5f6040820190508181035f83015261116d81856110ea565b905061117c6020830184611146565b9392505050565b5f806040838503121561119957611198610cd7565b5b5f6111a685828601610d25565b92505060206111b785828601610d25565b9150509250929050565b5f82825260208201905092915050565b7f47533130340000000000000000000000000000000000000000000000000000005f82015250565b5f6112056005836111c1565b9150611210826111d1565b602082019050919050565b5f6020820190508181035f830152611232816111f9565b9050919050565b7f47533130310000000000000000000000000000000000000000000000000000005f82015250565b5f61126d6005836111c1565b915061127882611239565b602082019050919050565b5f6020820190508181035f83015261129a81611261565b9050919050565b7f47533130320000000000000000000000000000000000000000000000000000005f82015250565b5f6112d56005836111c1565b91506112e0826112a1565b602082019050919050565b5f6020820190508181035f830152611302816112c9565b9050919050565b5f60208201905061131c5f830184611146565b92915050565b7f4e487b71000000000000000000000000000000000000000000000000000000005f52603260045260245ffd5b7f4e487b71000000000000000000000000000000000000000000000000000000005f52601160045260245ffd5b5f61138682610d97565b91507fffffffffffffffffffffffffffffffffffffffffffffffffffffffffffffffff82036113b8576113b761134f565b5b600182019050919050565b7f47533130330000000000000000000000000000000000000000000000000000005f82015250565b5f6113f76005836111c1565b9150611402826113c3565b602082019050919050565b5f6020820190508181035f830152611424816113eb565b9050919050565b7f4e487b71000000000000000000000000000000000000000000000000000000005f52602160045260245ffd5b7f47533033310000000000000000000000000000000000000000000000000000005f82015250565b5f61148c6005836111c1565b915061149782611458565b602082019050919050565b5f6020820190508181035f8301526114b981611480565b905091905056fea264697066735822122058742dad5b4c133177c2bde4af28cca430c012d0f001bc65c328dc8e8d30733f64736f6c63430008180033",
					"opcodes": "PUSH1 0x80 PUSH1 0x40 MSTORE CALLVALUE DUP1 ISZERO PUSH2 0xF JUMPI PUSH0 DUP1 REVERT JUMPDEST POP PUSH2 0x14F6 DUP1 PUSH2 0x1D PUSH0 CODECOPY PUSH0 RETURN INVALID PUSH1 0x80 PUSH1 0x40 MSTORE CALLVALUE DUP1 ISZERO PUSH2 0xF JUMPI PUSH0 DUP1 REVERT JUMPDEST POP PUSH1 0x4 CALLDATASIZE LT PUSH2 0x60 JUMPI PUSH0 CALLDATALOAD PUSH1 0xE0 SHR DUP1 PUSH4 0x2D9AD53D EQ PUSH2 0x64 JUMPI DUP1 PUSH4 0x468721A7 EQ PUSH2 0x94 JUMPI DUP1 PUSH4 0x5229073F EQ PUSH2 0xC4 JUMPI DUP1 PUSH4 0x610B5925 EQ PUSH2 0xF5 JUMPI DUP1 PUSH4 0xCC2F8452 EQ PUSH2 0x111 JUMPI DUP1 PUSH4 0xE009CFDE EQ PUSH2 0x142 JUMPI JUMPDEST PUSH0 DUP1 REVERT JUMPDEST PUSH2 0x7E PUSH1 0x4 DUP1 CALLDATASIZE SUB DUP2 ADD SWAP1 PUSH2 0x79 SWAP2 SWAP1 PUSH2 0xD39 JUMP JUMPDEST PUSH2 0x15E JUMP JUMPDEST PUSH1 0x40 MLOAD PUSH2 0x8B SWAP2 SWAP1 PUSH2 0xD7E JUMP JUMPDEST PUSH1 0x40 MLOAD DUP1 SWAP2 SUB SWAP1 RETURN JUMPDEST PUSH2 0xAE PUSH1 0x4 DUP1 CALLDATASIZE SUB DUP2 ADD SWAP1 PUSH2 0xA9 SWAP2 SWAP1 PUSH2 0xF29 JUMP JUMPDEST PUSH2 0x22A JUMP JUMPDEST PUSH1 0x40 MLOAD PUSH2 0xBB SWAP2 SWAP1 PUSH2 0xD7E JUMP JUMPDEST PUSH1 0x40 MLOAD DUP1 SWAP2 SUB SWAP1 RETURN JUMPDEST PUSH2 0xDE PUSH1 0x4 DUP1 CALLDATASIZE SUB DUP2 ADD SWAP1 PUSH2 0xD9 SWAP2 SWAP1 PUSH2 0xF29 JUMP JUMPDEST PUSH2 0x3D7 JUMP JUMPDEST PUSH1 0x40 MLOAD PUSH2 0xEC SWAP3 SWAP2 SWAP1 PUSH2 0x1023 JUMP JUMPDEST PUSH1 0x40 MLOAD DUP1 SWAP2 SUB SWAP1 RETURN JUMPDEST PUSH2 0x10F PUSH1 0x4 DUP1 CALLDATASIZE SUB DUP2 ADD SWAP1 PUSH2 0x10A SWAP2 SWAP1 PUSH2 0xD39 JUMP JUMPDEST PUSH2 0x40B JUMP JUMPDEST STOP JUMPDEST PUSH2 0x12B PUSH1 0x4 DUP1 CALLDATASIZE SUB DUP2 ADD SWAP1 PUSH2 0x126 SWAP2 SWAP1 PUSH2 0x1051 JUMP JUMPDEST PUSH2 0x70F JUMP JUMPDEST PUSH1 0x40 MLOAD PUSH2 0x139 SWAP3 SWAP2 SWAP1 PUSH2 0x1155 JUMP JUMPDEST PUSH1 0x40 MLOAD DUP1 SWAP2 SUB SWAP1 RETURN JUMPDEST PUSH2 0x15C PUSH1 0x4 DUP1 CALLDATASIZE SUB DUP2 ADD SWAP1 PUSH2 0x157 SWAP2 SWAP1 PUSH2 0x1183 JUMP JUMPDEST PUSH2 0x905 JUMP JUMPDEST STOP JUMPDEST PUSH0 DUP2 PUSH20 0xFFFFFFFFFFFFFFFFFFFFFFFFFFFFFFFFFFFFFFFF AND PUSH1 0x1 PUSH20 0xFFFFFFFFFFFFFFFFFFFFFFFFFFFFFFFFFFFFFFFF AND EQ ISZERO DUP1 ISZERO PUSH2 0x223 JUMPI POP PUSH0 PUSH20 0xFFFFFFFFFFFFFFFFFFFFFFFFFFFFFFFFFFFFFFFF AND PUSH0 DUP1 DUP5 PUSH20 0xFFFFFFFFFFFFFFFFFFFFFFFFFFFFFFFFFFFFFFFF AND PUSH20 0xFFFFFFFFFFFFFFFFFFFFFFFFFFFFFFFFFFFFFFFF AND DUP2 MSTORE PUSH1 0x20 ADD SWAP1 DUP2 MSTORE PUSH1 0x20 ADD PUSH0 KECCAK256 PUSH0 SWAP1 SLOAD SWAP1 PUSH2 0x100 EXP SWAP1 DIV PUSH20 0xFFFFFFFFFFFFFFFFFFFFFFFFFFFFFFFFFFFFFFFF AND PUSH20 0xFFFFFFFFFFFFFFFFFFFFFFFFFFFFFFFFFFFFFFFF AND EQ ISZERO JUMPDEST SWAP1 POP SWAP2 SWAP1 POP JUMP JUMPDEST PUSH0 PUSH1 0x1 PUSH20 0xFFFFFFFFFFFFFFFFFFFFFFFFFFFFFFFFFFFFFFFF AND CALLER PUSH20 0xFFFFFFFFFFFFFFFFFFFFFFFFFFFFFFFFFFFFFFFF AND EQ ISZERO DUP1 ISZERO PUSH2 0x2EF JUMPI POP PUSH0 PUSH20 0xFFFFFFFFFFFFFFFFFFFFFFFFFFFFFFFFFFFFFFFF AND PUSH0 DUP1 CALLER PUSH20 0xFFFFFFFFFFFFFFFFFFFFFFFFFFFFFFFFFFFFFFFF AND PUSH20 0xFFFFFFFFFFFFFFFFFFFFFFFFFFFFFFFFFFFFFFFF AND DUP2 MSTORE PUSH1 0x20 ADD SWAP1 DUP2 MSTORE PUSH1 0x20 ADD PUSH0 KECCAK256 PUSH0 SWAP1 SLOAD SWAP1 PUSH2 0x100 EXP SWAP1 DIV PUSH20 0xFFFFFFFFFFFFFFFFFFFFFFFFFFFFFFFFFFFFFFFF AND PUSH20 0xFFFFFFFFFFFFFFFFFFFFFFFFFFFFFFFFFFFFFFFF AND EQ ISZERO JUMPDEST PUSH2 0x32E JUMPI PUSH1 0x40 MLOAD PUSH32 0x8C379A000000000000000000000000000000000000000000000000000000000 DUP2 MSTORE PUSH1 0x4 ADD PUSH2 0x325 SWAP1 PUSH2 0x121B JUMP JUMPDEST PUSH1 0x40 MLOAD DUP1 SWAP2 SUB SWAP1 REVERT JUMPDEST PUSH2 0x33B DUP6 DUP6 DUP6 DUP6 GAS PUSH2 0xC08 JUMP JUMPDEST SWAP1 POP DUP1 ISZERO PUSH2 0x38B JUMPI CALLER PUSH20 0xFFFFFFFFFFFFFFFFFFFFFFFFFFFFFFFFFFFFFFFF AND PUSH32 0x6895C13664AA4F67288B25D7A21D7AAA34916E355FB9B6FAE0A139A9085BECB8 PUSH1 0x40 MLOAD PUSH1 0x40 MLOAD DUP1 SWAP2 SUB SWAP1 LOG2 PUSH2 0x3CF JUMP JUMPDEST CALLER PUSH20 0xFFFFFFFFFFFFFFFFFFFFFFFFFFFFFFFFFFFFFFFF AND PUSH32 0xACD2C8702804128FDB0DB2BB49F6D127DD0181C13FD45DBFE16DE0930E2BD375 PUSH1 0x40 MLOAD PUSH1 0x40 MLOAD DUP1 SWAP2 SUB SWAP1 LOG2 JUMPDEST SWAP5 SWAP4 POP POP POP POP JUMP JUMPDEST PUSH0 PUSH1 0x60 PUSH2 0x3E6 DUP7 DUP7 DUP7 DUP7 PUSH2 0x22A JUMP JUMPDEST SWAP2 POP PUSH1 0x40 MLOAD PUSH1 0x20 RETURNDATASIZE ADD DUP2 ADD PUSH1 0x40 MSTORE RETURNDATASIZE DUP2 MSTORE RETURNDATASIZE PUSH0 PUSH1 0x20 DUP4 ADD RETURNDATACOPY DUP1 SWAP2 POP POP SWAP5 POP SWAP5 SWAP3 POP POP POP JUMP JUMPDEST PUSH2 0x413 PUSH2 0xC5E JUMP JUMPDEST PUSH0 PUSH20 0xFFFFFFFFFFFFFFFFFFFFFFFFFFFFFFFFFFFFFFFF AND DUP2 PUSH20 0xFFFFFFFFFFFFFFFFFFFFFFFFFFFFFFFFFFFFFFFF AND EQ ISZERO DUP1 ISZERO PUSH2 0x47C JUMPI POP PUSH1 0x1 PUSH20 0xFFFFFFFFFFFFFFFFFFFFFFFFFFFFFFFFFFFFFFFF AND DUP2 PUSH20 0xFFFFFFFFFFFFFFFFFFFFFFFFFFFFFFFFFFFFFFFF AND EQ ISZERO JUMPDEST PUSH2 0x4BB JUMPI PUSH1 0x40 MLOAD PUSH32 0x8C379A000000000000000000000000000000000000000000000000000000000 DUP2 MSTORE PUSH1 0x4 ADD PUSH2 0x4B2 SWAP1 PUSH2 0x1283 JUMP JUMPDEST PUSH1 0x40 MLOAD DUP1 SWAP2 SUB SWAP1 REVERT JUMPDEST PUSH0 PUSH20 0xFFFFFFFFFFFFFFFFFFFFFFFFFFFFFFFFFFFFFFFF AND PUSH0 DUP1 DUP4 PUSH20 0xFFFFFFFFFFFFFFFFFFFFFFFFFFFFFFFFFFFFFFFF AND PUSH20 0xFFFFFFFFFFFFFFFFFFFFFFFFFFFFFFFFFFFFFFFF AND DUP2 MSTORE PUSH1 0x20 ADD SWAP1 DUP2 MSTORE PUSH1 0x20 ADD PUSH0 KECCAK256 PUSH0 SWAP1 SLOAD SWAP1 PUSH2 0x100 EXP SWAP1 DIV PUSH20 0xFFFFFFFFFFFFFFFFFFFFFFFFFFFFFFFFFFFFFFFF AND PUSH20 0xFFFFFFFFFFFFFFFFFFFFFFFFFFFFFFFFFFFFFFFF AND EQ PUSH2 0x584 JUMPI PUSH1 0x40 MLOAD PUSH32 0x8C379A000000000000000000000000000000000000000000000000000000000 DUP2 MSTORE PUSH1 0x4 ADD PUSH2 0x57B SWAP1 PUSH2 0x12EB JUMP JUMPDEST PUSH1 0x40 MLOAD DUP1 SWAP2 SUB SWAP1 REVERT JUMPDEST PUSH0 DUP1 PUSH1 0x1 PUSH20 0xFFFFFFFFFFFFFFFFFFFFFFFFFFFFFFFFFFFFFFFF AND PUSH20 0xFFFFFFFFFFFFFFFFFFFFFFFFFFFFFFFFFFFFFFFF AND DUP2 MSTORE PUSH1 0x20 ADD SWAP1 DUP2 MSTORE PUSH1 0x20 ADD PUSH0 KECCAK256 PUSH0 SWAP1 SLOAD SWAP1 PUSH2 0x100 EXP SWAP1 DIV PUSH20 0xFFFFFFFFFFFFFFFFFFFFFFFFFFFFFFFFFFFFFFFF AND PUSH0 DUP1 DUP4 PUSH20 0xFFFFFFFFFFFFFFFFFFFFFFFFFFFFFFFFFFFFFFFF AND PUSH20 0xFFFFFFFFFFFFFFFFFFFFFFFFFFFFFFFFFFFFFFFF AND DUP2 MSTORE PUSH1 0x20 ADD SWAP1 DUP2 MSTORE PUSH1 0x20 ADD PUSH0 KECCAK256 PUSH0 PUSH2 0x100 EXP DUP2 SLOAD DUP2 PUSH20 0xFFFFFFFFFFFFFFFFFFFFFFFFFFFFFFFFFFFFFFFF MUL NOT AND SWAP1 DUP4 PUSH20 0xFFFFFFFFFFFFFFFFFFFFFFFFFFFFFFFFFFFFFFFF AND MUL OR SWAP1 SSTORE POP DUP1 PUSH0 DUP1 PUSH1 0x1 PUSH20 0xFFFFFFFFFFFFFFFFFFFFFFFFFFFFFFFFFFFFFFFF AND PUSH20 0xFFFFFFFFFFFFFFFFFFFFFFFFFFFFFFFFFFFFFFFF AND DUP2 MSTORE PUSH1 0x20 ADD SWAP1 DUP2 MSTORE PUSH1 0x20 ADD PUSH0 KECCAK256 PUSH0 PUSH2 0x100 EXP DUP2 SLOAD DUP2 PUSH20 0xFFFFFFFFFFFFFFFFFFFFFFFFFFFFFFFFFFFFFFFF MUL NOT AND SWAP1 DUP4 PUSH20 0xFFFFFFFFFFFFFFFFFFFFFFFFFFFFFFFFFFFFFFFF AND MUL OR SWAP1 SSTORE POP PUSH32 0xECDF3A3EFFEA5783A3C4C2140E677577666428D44ED9D474A0B3A4C9943F8440 DUP2 PUSH1 0x40 MLOAD PUSH2 0x704 SWAP2 SWAP1 PUSH2 0x1309 JUMP JUMPDEST PUSH1 0x40 MLOAD DUP1 SWAP2 SUB SWAP1 LOG1 POP JUMP JUMPDEST PUSH1 0x60 PUSH0 DUP3 PUSH8 0xFFFFFFFFFFFFFFFF DUP2 GT ISZERO PUSH2 0x72C JUMPI PUSH2 0x72B PUSH2 0xDE2 JUMP JUMPDEST JUMPDEST PUSH1 0x40 MLOAD SWAP1 DUP1 DUP3 MSTORE DUP1 PUSH1 0x20 MUL PUSH1 0x20 ADD DUP3 ADD PUSH1 0x40 MSTORE DUP1 ISZERO PUSH2 0x75A JUMPI DUP2 PUSH1 0x20 ADD PUSH1 0x20 DUP3 MUL DUP1 CALLDATASIZE DUP4 CALLDATACOPY DUP1 DUP3 ADD SWAP2 POP POP SWAP1 POP JUMPDEST POP SWAP2 POP PUSH0 DUP1 DUP1 PUSH0 DUP8 PUSH20 0xFFFFFFFFFFFFFFFFFFFFFFFFFFFFFFFFFFFFFFFF AND PUSH20 0xFFFFFFFFFFFFFFFFFFFFFFFFFFFFFFFFFFFFFFFF AND DUP2 MSTORE PUSH1 0x20 ADD SWAP1 DUP2 MSTORE PUSH1 0x20 ADD PUSH0 KECCAK256 PUSH0 SWAP1 SLOAD SWAP1 PUSH2 0x100 EXP SWAP1 DIV PUSH20 0xFFFFFFFFFFFFFFFFFFFFFFFFFFFFFFFFFFFFFFFF AND SWAP1 POP JUMPDEST PUSH0 PUSH20 0xFFFFFFFFFFFFFFFFFFFFFFFFFFFFFFFFFFFFFFFF AND DUP2 PUSH20 0xFFFFFFFFFFFFFFFFFFFFFFFFFFFFFFFFFFFFFFFF AND EQ ISZERO DUP1 ISZERO PUSH2 0x827 JUMPI POP PUSH1 0x1 PUSH20 0xFFFFFFFFFFFFFFFFFFFFFFFFFFFFFFFFFFFFFFFF AND DUP2 PUSH20 0xFFFFFFFFFFFFFFFFFFFFFFFFFFFFFFFFFFFFFFFF AND EQ ISZERO JUMPDEST DUP1 ISZERO PUSH2 0x832 JUMPI POP DUP5 DUP3 LT JUMPDEST ISZERO PUSH2 0x8F6 JUMPI DUP1 DUP5 DUP4 DUP2 MLOAD DUP2 LT PUSH2 0x84B JUMPI PUSH2 0x84A PUSH2 0x1322 JUMP JUMPDEST JUMPDEST PUSH1 0x20 MUL PUSH1 0x20 ADD ADD SWAP1 PUSH20 0xFFFFFFFFFFFFFFFFFFFFFFFFFFFFFFFFFFFFFFFF AND SWAP1 DUP2 PUSH20 0xFFFFFFFFFFFFFFFFFFFFFFFFFFFFFFFFFFFFFFFF AND DUP2 MSTORE POP POP PUSH0 DUP1 DUP3 PUSH20 0xFFFFFFFFFFFFFFFFFFFFFFFFFFFFFFFFFFFFFFFF AND PUSH20 0xFFFFFFFFFFFFFFFFFFFFFFFFFFFFFFFFFFFFFFFF AND DUP2 MSTORE PUSH1 0x20 ADD SWAP1 DUP2 MSTORE PUSH1 0x20 ADD PUSH0 KECCAK256 PUSH0 SWAP1 SLOAD SWAP1 PUSH2 0x100 EXP SWAP1 DIV PUSH20 0xFFFFFFFFFFFFFFFFFFFFFFFFFFFFFFFFFFFFFFFF AND SWAP1 POP DUP2 DUP1 PUSH2 0x8EE SWAP1 PUSH2 0x137C JUMP JUMPDEST SWAP3 POP POP PUSH2 0x7BE JUMP JUMPDEST DUP1 SWAP3 POP DUP2 DUP5 MSTORE POP POP SWAP3 POP SWAP3 SWAP1 POP JUMP JUMPDEST PUSH2 0x90D PUSH2 0xC5E JUMP JUMPDEST PUSH0 PUSH20 0xFFFFFFFFFFFFFFFFFFFFFFFFFFFFFFFFFFFFFFFF AND DUP2 PUSH20 0xFFFFFFFFFFFFFFFFFFFFFFFFFFFFFFFFFFFFFFFF AND EQ ISZERO DUP1 ISZERO PUSH2 0x976 JUMPI POP PUSH1 0x1 PUSH20 0xFFFFFFFFFFFFFFFFFFFFFFFFFFFFFFFFFFFFFFFF AND DUP2 PUSH20 0xFFFFFFFFFFFFFFFFFFFFFFFFFFFFFFFFFFFFFFFF AND EQ ISZERO JUMPDEST PUSH2 0x9B5 JUMPI PUSH1 0x40 MLOAD PUSH32 0x8C379A000000000000000000000000000000000000000000000000000000000 DUP2 MSTORE PUSH1 0x4 ADD PUSH2 0x9AC SWAP1 PUSH2 0x1283 JUMP JUMPDEST PUSH1 0x40 MLOAD DUP1 SWAP2 SUB SWAP1 REVERT JUMPDEST DUP1 PUSH20 0xFFFFFFFFFFFFFFFFFFFFFFFFFFFFFFFFFFFFFFFF AND PUSH0 DUP1 DUP5 PUSH20 0xFFFFFFFFFFFFFFFFFFFFFFFFFFFFFFFFFFFFFFFF AND PUSH20 0xFFFFFFFFFFFFFFFFFFFFFFFFFFFFFFFFFFFFFFFF AND DUP2 MSTORE PUSH1 0x20 ADD SWAP1 DUP2 MSTORE PUSH1 0x20 ADD PUSH0 KECCAK256 PUSH0 SWAP1 SLOAD SWAP1 PUSH2 0x100 EXP SWAP1 DIV PUSH20 0xFFFFFFFFFFFFFFFFFFFFFFFFFFFFFFFFFFFFFFFF AND PUSH20 0xFFFFFFFFFFFFFFFFFFFFFFFFFFFFFFFFFFFFFFFF AND EQ PUSH2 0xA7E JUMPI PUSH1 0x40 MLOAD PUSH32 0x8C379A000000000000000000000000000000000000000000000000000000000 DUP2 MSTORE PUSH1 0x4 ADD PUSH2 0xA75 SWAP1 PUSH2 0x140D JUMP JUMPDEST PUSH1 0x40 MLOAD DUP1 SWAP2 SUB SWAP1 REVERT JUMPDEST PUSH0 DUP1 DUP3 PUSH20 0xFFFFFFFFFFFFFFFFFFFFFFFFFFFFFFFFFFFFFFFF AND PUSH20 0xFFFFFFFFFFFFFFFFFFFFFFFFFFFFFFFFFFFFFFFF AND DUP2 MSTORE PUSH1 0x20 ADD SWAP1 DUP2 MSTORE PUSH1 0x20 ADD PUSH0 KECCAK256 PUSH0 SWAP1 SLOAD SWAP1 PUSH2 0x100 EXP SWAP1 DIV PUSH20 0xFFFFFFFFFFFFFFFFFFFFFFFFFFFFFFFFFFFFFFFF AND PUSH0 DUP1 DUP5 PUSH20 0xFFFFFFFFFFFFFFFFFFFFFFFFFFFFFFFFFFFFFFFF AND PUSH20 0xFFFFFFFFFFFFFFFFFFFFFFFFFFFFFFFFFFFFFFFF AND DUP2 MSTORE PUSH1 0x20 ADD SWAP1 DUP2 MSTORE PUSH1 0x20 ADD PUSH0 KECCAK256 PUSH0 PUSH2 0x100 EXP DUP2 SLOAD DUP2 PUSH20 0xFFFFFFFFFFFFFFFFFFFFFFFFFFFFFFFFFFFFFFFF MUL NOT AND SWAP1 DUP4 PUSH20 0xFFFFFFFFFFFFFFFFFFFFFFFFFFFFFFFFFFFFFFFF AND MUL OR SWAP1 SSTORE POP PUSH0 DUP1 PUSH0 DUP4 PUSH20 0xFFFFFFFFFFFFFFFFFFFFFFFFFFFFFFFFFFFFFFFF AND PUSH20 0xFFFFFFFFFFFFFFFFFFFFFFFFFFFFFFFFFFFFFFFF AND DUP2 MSTORE PUSH1 0x20 ADD SWAP1 DUP2 MSTORE PUSH1 0x20 ADD PUSH0 KECCAK256 PUSH0 PUSH2 0x100 EXP DUP2 SLOAD DUP2 PUSH20 0xFFFFFFFFFFFFFFFFFFFFFFFFFFFFFFFFFFFFFFFF MUL NOT AND SWAP1 DUP4 PUSH20 0xFFFFFFFFFFFFFFFFFFFFFFFFFFFFFFFFFFFFFFFF AND MUL OR SWAP1 SSTORE POP PUSH32 0xAAB4FA2B463F581B2B32CB3B7E3B704B9CE37CC209B5FB4D77E593ACE4054276 DUP2 PUSH1 0x40 MLOAD PUSH2 0xBFC SWAP2 SWAP1 PUSH2 0x1309 JUMP JUMPDEST PUSH1 0x40 MLOAD DUP1 SWAP2 SUB SWAP1 LOG1 POP POP JUMP JUMPDEST PUSH0 PUSH1 0x1 DUP1 DUP2 GT ISZERO PUSH2 0xC1C JUMPI PUSH2 0xC1B PUSH2 0x142B JUMP JUMPDEST JUMPDEST DUP4 PUSH1 0x1 DUP2 GT ISZERO PUSH2 0xC2F JUMPI PUSH2 0xC2E PUSH2 0x142B JUMP JUMPDEST JUMPDEST SUB PUSH2 0xC46 JUMPI PUSH0 DUP1 DUP6 MLOAD PUSH1 0x20 DUP8 ADD DUP10 DUP7 DELEGATECALL SWAP1 POP PUSH2 0xC55 JUMP JUMPDEST PUSH0 DUP1 DUP6 MLOAD PUSH1 0x20 DUP8 ADD DUP9 DUP11 DUP8 CALL SWAP1 POP JUMPDEST SWAP6 SWAP5 POP POP POP POP POP JUMP JUMPDEST ADDRESS PUSH20 0xFFFFFFFFFFFFFFFFFFFFFFFFFFFFFFFFFFFFFFFF AND CALLER PUSH20 0xFFFFFFFFFFFFFFFFFFFFFFFFFFFFFFFFFFFFFFFF AND EQ PUSH2 0xCCC JUMPI PUSH1 0x40 MLOAD PUSH32 0x8C379A000000000000000000000000000000000000000000000000000000000 DUP2 MSTORE PUSH1 0x4 ADD PUSH2 0xCC3 SWAP1 PUSH2 0x14A2 JUMP JUMPDEST PUSH1 0x40 MLOAD DUP1 SWAP2 SUB SWAP1 REVERT JUMPDEST JUMP JUMPDEST PUSH0 PUSH1 0x40 MLOAD SWAP1 POP SWAP1 JUMP JUMPDEST PUSH0 DUP1 REVERT JUMPDEST PUSH0 DUP1 REVERT JUMPDEST PUSH0 PUSH20 0xFFFFFFFFFFFFFFFFFFFFFFFFFFFFFFFFFFFFFFFF DUP3 AND SWAP1 POP SWAP2 SWAP1 POP JUMP JUMPDEST PUSH0 PUSH2 0xD08 DUP3 PUSH2 0xCDF JUMP JUMPDEST SWAP1 POP SWAP2 SWAP1 POP JUMP JUMPDEST PUSH2 0xD18 DUP2 PUSH2 0xCFE JUMP JUMPDEST DUP2 EQ PUSH2 0xD22 JUMPI PUSH0 DUP1 REVERT JUMPDEST POP JUMP JUMPDEST PUSH0 DUP2 CALLDATALOAD SWAP1 POP PUSH2 0xD33 DUP2 PUSH2 0xD0F JUMP JUMPDEST SWAP3 SWAP2 POP POP JUMP JUMPDEST PUSH0 PUSH1 0x20 DUP3 DUP5 SUB SLT ISZERO PUSH2 0xD4E JUMPI PUSH2 0xD4D PUSH2 0xCD7 JUMP JUMPDEST JUMPDEST PUSH0 PUSH2 0xD5B DUP5 DUP3 DUP6 ADD PUSH2 0xD25 JUMP JUMPDEST SWAP2 POP POP SWAP3 SWAP2 POP POP JUMP JUMPDEST PUSH0 DUP2 ISZERO ISZERO SWAP1 POP SWAP2 SWAP1 POP JUMP JUMPDEST PUSH2 0xD78 DUP2 PUSH2 0xD64 JUMP JUMPDEST DUP3 MSTORE POP POP JUMP JUMPDEST PUSH0 PUSH1 0x20 DUP3 ADD SWAP1 POP PUSH2 0xD91 PUSH0 DUP4 ADD DUP5 PUSH2 0xD6F JUMP JUMPDEST SWAP3 SWAP2 POP POP JUMP JUMPDEST PUSH0 DUP2 SWAP1 POP SWAP2 SWAP1 POP JUMP JUMPDEST PUSH2 0xDA9 DUP2 PUSH2 0xD97 JUMP JUMPDEST DUP2 EQ PUSH2 0xDB3 JUMPI PUSH0 DUP1 REVERT JUMPDEST POP JUMP JUMPDEST PUSH0 DUP2 CALLDATALOAD SWAP1 POP PUSH2 0xDC4 DUP2 PUSH2 0xDA0 JUMP JUMPDEST SWAP3 SWAP2 POP POP JUMP JUMPDEST PUSH0 DUP1 REVERT JUMPDEST PUSH0 DUP1 REVERT JUMPDEST PUSH0 PUSH1 0x1F NOT PUSH1 0x1F DUP4 ADD AND SWAP1 POP SWAP2 SWAP1 POP JUMP JUMPDEST PUSH32 0x4E487B7100000000000000000000000000000000000000000000000000000000 PUSH0 MSTORE PUSH1 0x41 PUSH1 0x4 MSTORE PUSH1 0x24 PUSH0 REVERT JUMPDEST PUSH2 0xE18 DUP3 PUSH2 0xDD2 JUMP JUMPDEST DUP2 ADD DUP2 DUP2 LT PUSH8 0xFFFFFFFFFFFFFFFF DUP3 GT OR ISZERO PUSH2 0xE37 JUMPI PUSH2 0xE36 PUSH2 0xDE2 JUMP JUMPDEST JUMPDEST DUP1 PUSH1 0x40 MSTORE POP POP POP JUMP JUMPDEST PUSH0 PUSH2 0xE49 PUSH2 0xCCE JUMP JUMPDEST SWAP1 POP PUSH2 0xE55 DUP3 DUP3 PUSH2 0xE0F JUMP JUMPDEST SWAP2 SWAP1 POP JUMP JUMPDEST PUSH0 PUSH8 0xFFFFFFFFFFFFFFFF DUP3 GT ISZERO PUSH2 0xE74 JUMPI PUSH2 0xE73 PUSH2 0xDE2 JUMP JUMPDEST JUMPDEST PUSH2 0xE7D DUP3 PUSH2 0xDD2 JUMP JUMPDEST SWAP1 POP PUSH1 0x20 DUP2 ADD SWAP1 POP SWAP2 SWAP1 POP JUMP JUMPDEST DUP3 DUP2 DUP4 CALLDATACOPY PUSH0 DUP4 DUP4 ADD MSTORE POP POP POP JUMP JUMPDEST PUSH0 PUSH2 0xEAA PUSH2 0xEA5 DUP5 PUSH2 0xE5A JUMP JUMPDEST PUSH2 0xE40 JUMP JUMPDEST SWAP1 POP DUP3 DUP2 MSTORE PUSH1 0x20 DUP2 ADD DUP5 DUP5 DUP5 ADD GT ISZERO PUSH2 0xEC6 JUMPI PUSH2 0xEC5 PUSH2 0xDCE JUMP JUMPDEST JUMPDEST PUSH2 0xED1 DUP5 DUP3 DUP6 PUSH2 0xE8A JUMP JUMPDEST POP SWAP4 SWAP3 POP POP POP JUMP JUMPDEST PUSH0 DUP3 PUSH1 0x1F DUP4 ADD SLT PUSH2 0xEED JUMPI PUSH2 0xEEC PUSH2 0xDCA JUMP JUMPDEST JUMPDEST DUP2 CALLDATALOAD PUSH2 0xEFD DUP5 DUP3 PUSH1 0x20 DUP7 ADD PUSH2 0xE98 JUMP JUMPDEST SWAP2 POP POP SWAP3 SWAP2 POP POP JUMP JUMPDEST PUSH1 0x2 DUP2 LT PUSH2 0xF12 JUMPI PUSH0 DUP1 REVERT JUMPDEST POP JUMP JUMPDEST PUSH0 DUP2 CALLDATALOAD SWAP1 POP PUSH2 0xF23 DUP2 PUSH2 0xF06 JUMP JUMPDEST SWAP3 SWAP2 POP POP JUMP JUMPDEST PUSH0 DUP1 PUSH0 DUP1 PUSH1 0x80 DUP6 DUP8 SUB SLT ISZERO PUSH2 0xF41 JUMPI PUSH2 0xF40 PUSH2 0xCD7 JUMP JUMPDEST JUMPDEST PUSH0 PUSH2 0xF4E DUP8 DUP3 DUP9 ADD PUSH2 0xD25 JUMP JUMPDEST SWAP5 POP POP PUSH1 0x20 PUSH2 0xF5F DUP8 DUP3 DUP9 ADD PUSH2 0xDB6 JUMP JUMPDEST SWAP4 POP POP PUSH1 0x40 DUP6 ADD CALLDATALOAD PUSH8 0xFFFFFFFFFFFFFFFF DUP2 GT ISZERO PUSH2 0xF80 JUMPI PUSH2 0xF7F PUSH2 0xCDB JUMP JUMPDEST JUMPDEST PUSH2 0xF8C DUP8 DUP3 DUP9 ADD PUSH2 0xED9 JUMP JUMPDEST SWAP3 POP POP PUSH1 0x60 PUSH2 0xF9D DUP8 DUP3 DUP9 ADD PUSH2 0xF15 JUMP JUMPDEST SWAP2 POP POP SWAP3 SWAP6 SWAP2 SWAP5 POP SWAP3 POP JUMP JUMPDEST PUSH0 DUP2 MLOAD SWAP1 POP SWAP2 SWAP1 POP JUMP JUMPDEST PUSH0 DUP3 DUP3 MSTORE PUSH1 0x20 DUP3 ADD SWAP1 POP SWAP3 SWAP2 POP POP JUMP JUMPDEST PUSH0 JUMPDEST DUP4 DUP2 LT ISZERO PUSH2 0xFE0 JUMPI DUP1 DUP3 ADD MLOAD DUP2 DUP5 ADD MSTORE PUSH1 0x20 DUP2 ADD SWAP1 POP PUSH2 0xFC5 JUMP JUMPDEST PUSH0 DUP5 DUP5 ADD MSTORE POP POP POP POP JUMP JUMPDEST PUSH0 PUSH2 0xFF5 DUP3 PUSH2 0xFA9 JUMP JUMPDEST PUSH2 0xFFF DUP2 DUP6 PUSH2 0xFB3 JUMP JUMPDEST SWAP4 POP PUSH2 0x100F DUP2 DUP6 PUSH1 0x20 DUP7 ADD PUSH2 0xFC3 JUMP JUMPDEST PUSH2 0x1018 DUP2 PUSH2 0xDD2 JUMP JUMPDEST DUP5 ADD SWAP2 POP POP SWAP3 SWAP2 POP POP JUMP JUMPDEST PUSH0 PUSH1 0x40 DUP3 ADD SWAP1 POP PUSH2 0x1036 PUSH0 DUP4 ADD DUP6 PUSH2 0xD6F JUMP JUMPDEST DUP2 DUP2 SUB PUSH1 0x20 DUP4 ADD MSTORE PUSH2 0x1048 DUP2 DUP5 PUSH2 0xFEB JUMP JUMPDEST SWAP1 POP SWAP4 SWAP3 POP POP POP JUMP JUMPDEST PUSH0 DUP1 PUSH1 0x40 DUP4 DUP6 SUB SLT ISZERO PUSH2 0x1067 JUMPI PUSH2 0x1066 PUSH2 0xCD7 JUMP JUMPDEST JUMPDEST PUSH0 PUSH2 0x1074 DUP6 DUP3 DUP7 ADD PUSH2 0xD25 JUMP JUMPDEST SWAP3 POP POP PUSH1 0x20 PUSH2 0x1085 DUP6 DUP3 DUP7 ADD PUSH2 0xDB6 JUMP JUMPDEST SWAP2 POP POP SWAP3 POP SWAP3 SWAP1 POP JUMP JUMPDEST PUSH0 DUP2 MLOAD SWAP1 POP SWAP2 SWAP1 POP JUMP JUMPDEST PUSH0 DUP3 DUP3 MSTORE PUSH1 0x20 DUP3 ADD SWAP1 POP SWAP3 SWAP2 POP POP JUMP JUMPDEST PUSH0 DUP2 SWAP1 POP PUSH1 0x20 DUP3 ADD SWAP1 POP SWAP2 SWAP1 POP JUMP JUMPDEST PUSH2 0x10C1 DUP2 PUSH2 0xCFE JUMP JUMPDEST DUP3 MSTORE POP POP JUMP JUMPDEST PUSH0 PUSH2 0x10D2 DUP4 DUP4 PUSH2 0x10B8 JUMP JUMPDEST PUSH1 0x20 DUP4 ADD SWAP1 POP SWAP3 SWAP2 POP POP JUMP JUMPDEST PUSH0 PUSH1 0x20 DUP3 ADD SWAP1 POP SWAP2 SWAP1 POP JUMP JUMPDEST PUSH0 PUSH2 0x10F4 DUP3 PUSH2 0x108F JUMP JUMPDEST PUSH2 0x10FE DUP2 DUP6 PUSH2 0x1099 JUMP JUMPDEST SWAP4 POP PUSH2 0x1109 DUP4 PUSH2 0x10A9 JUMP JUMPDEST DUP1 PUSH0 JUMPDEST DUP4 DUP2 LT ISZERO PUSH2 0x1139 JUMPI DUP2 MLOAD PUSH2 0x1120 DUP9 DUP3 PUSH2 0x10C7 JUMP JUMPDEST SWAP8 POP PUSH2 0x112B DUP4 PUSH2 0x10DE JUMP JUMPDEST SWAP3 POP POP PUSH1 0x1 DUP2 ADD SWAP1 POP PUSH2 0x110C JUMP JUMPDEST POP DUP6 SWAP4 POP POP POP POP SWAP3 SWAP2 POP POP JUMP JUMPDEST PUSH2 0x114F DUP2 PUSH2 0xCFE JUMP JUMPDEST DUP3 MSTORE POP POP JUMP JUMPDEST PUSH0 PUSH1 0x40 DUP3 ADD SWAP1 POP DUP2 DUP2 SUB PUSH0 DUP4 ADD MSTORE PUSH2 0x116D DUP2 DUP6 PUSH2 0x10EA JUMP JUMPDEST SWAP1 POP PUSH2 0x117C PUSH1 0x20 DUP4 ADD DUP5 PUSH2 0x1146 JUMP JUMPDEST SWAP4 SWAP3 POP POP POP JUMP JUMPDEST PUSH0 DUP1 PUSH1 0x40 DUP4 DUP6 SUB SLT ISZERO PUSH2 0x1199 JUMPI PUSH2 0x1198 PUSH2 0xCD7 JUMP JUMPDEST JUMPDEST PUSH0 PUSH2 0x11A6 DUP6 DUP3 DUP7 ADD PUSH2 0xD25 JUMP JUMPDEST SWAP3 POP POP PUSH1 0x20 PUSH2 0x11B7 DUP6 DUP3 DUP7 ADD PUSH2 0xD25 JUMP JUMPDEST SWAP2 POP POP SWAP3 POP SWAP3 SWAP1 POP JUMP JUMPDEST PUSH0 DUP3 DUP3 MSTORE PUSH1 0x20 DUP3 ADD SWAP1 POP SWAP3 SWAP2 POP POP JUMP JUMPDEST PUSH32 0x4753313034000000000000000000000000000000000000000000000000000000 PUSH0 DUP3 ADD MSTORE POP JUMP JUMPDEST PUSH0 PUSH2 0x1205 PUSH1 0x5 DUP4 PUSH2 0x11C1 JUMP JUMPDEST SWAP2 POP PUSH2 0x1210 DUP3 PUSH2 0x11D1 JUMP JUMPDEST PUSH1 0x20 DUP3 ADD SWAP1 POP SWAP2 SWAP1 POP JUMP JUMPDEST PUSH0 PUSH1 0x20 DUP3 ADD SWAP1 POP DUP2 DUP2 SUB PUSH0 DUP4 ADD MSTORE PUSH2 0x1232 DUP2 PUSH2 0x11F9 JUMP JUMPDEST SWAP1 POP SWAP2 SWAP1 POP JUMP JUMPDEST PUSH32 0x4753313031000000000000000000000000000000000000000000000000000000 PUSH0 DUP3 ADD MSTORE POP JUMP JUMPDEST PUSH0 PUSH2 0x126D PUSH1 0x5 DUP4 PUSH2 0x11C1 JUMP JUMPDEST SWAP2 POP PUSH2 0x1278 DUP3 PUSH2 0x1239 JUMP JUMPDEST PUSH1 0x20 DUP3 ADD SWAP1 POP SWAP2 SWAP1 POP JUMP JUMPDEST PUSH0 PUSH1 0x20 DUP3 ADD SWAP1 POP DUP2 DUP2 SUB PUSH0 DUP4 ADD MSTORE PUSH2 0x129A DUP2 PUSH2 0x1261 JUMP JUMPDEST SWAP1 POP SWAP2 SWAP1 POP JUMP JUMPDEST PUSH32 0x4753313032000000000000000000000000000000000000000000000000000000 PUSH0 DUP3 ADD MSTORE POP JUMP JUMPDEST PUSH0 PUSH2 0x12D5 PUSH1 0x5 DUP4 PUSH2 0x11C1 JUMP JUMPDEST SWAP2 POP PUSH2 0x12E0 DUP3 PUSH2 0x12A1 JUMP JUMPDEST PUSH1 0x20 DUP3 ADD SWAP1 POP SWAP2 SWAP1 POP JUMP JUMPDEST PUSH0 PUSH1 0x20 DUP3 ADD SWAP1 POP DUP2 DUP2 SUB PUSH0 DUP4 ADD MSTORE PUSH2 0x1302 DUP2 PUSH2 0x12C9 JUMP JUMPDEST SWAP1 POP SWAP2 SWAP1 POP JUMP JUMPDEST PUSH0 PUSH1 0x20 DUP3 ADD SWAP1 POP PUSH2 0x131C PUSH0 DUP4 ADD DUP5 PUSH2 0x1146 JUMP JUMPDEST SWAP3 SWAP2 POP POP JUMP JUMPDEST PUSH32 0x4E487B7100000000000000000000000000000000000000000000000000000000 PUSH0 MSTORE PUSH1 0x32 PUSH1 0x4 MSTORE PUSH1 0x24 PUSH0 REVERT JUMPDEST PUSH32 0x4E487B7100000000000000000000000000000000000000000000000000000000 PUSH0 MSTORE PUSH1 0x11 PUSH1 0x4 MSTORE PUSH1 0x24 PUSH0 REVERT JUMPDEST PUSH0 PUSH2 0x1386 DUP3 PUSH2 0xD97 JUMP JUMPDEST SWAP2 POP PUSH32 0xFFFFFFFFFFFFFFFFFFFFFFFFFFFFFFFFFFFFFFFFFFFFFFFFFFFFFFFFFFFFFFFF DUP3 SUB PUSH2 0x13B8 JUMPI PUSH2 0x13B7 PUSH2 0x134F JUMP JUMPDEST JUMPDEST PUSH1 0x1 DUP3 ADD SWAP1 POP SWAP2 SWAP1 POP JUMP JUMPDEST PUSH32 0x4753313033000000000000000000000000000000000000000000000000000000 PUSH0 DUP3 ADD MSTORE POP JUMP JUMPDEST PUSH0 PUSH2 0x13F7 PUSH1 0x5 DUP4 PUSH2 0x11C1 JUMP JUMPDEST SWAP2 POP PUSH2 0x1402 DUP3 PUSH2 0x13C3 JUMP JUMPDEST PUSH1 0x20 DUP3 ADD SWAP1 POP SWAP2 SWAP1 POP JUMP JUMPDEST PUSH0 PUSH1 0x20 DUP3 ADD SWAP1 POP DUP2 DUP2 SUB PUSH0 DUP4 ADD MSTORE PUSH2 0x1424 DUP2 PUSH2 0x13EB JUMP JUMPDEST SWAP1 POP SWAP2 SWAP1 POP JUMP JUMPDEST PUSH32 0x4E487B7100000000000000000000000000000000000000000000000000000000 PUSH0 MSTORE PUSH1 0x21 PUSH1 0x4 MSTORE PUSH1 0x24 PUSH0 REVERT JUMPDEST PUSH32 0x4753303331000000000000000000000000000000000000000000000000000000 PUSH0 DUP3 ADD MSTORE POP JUMP JUMPDEST PUSH0 PUSH2 0x148C PUSH1 0x5 DUP4 PUSH2 0x11C1 JUMP JUMPDEST SWAP2 POP PUSH2 0x1497 DUP3 PUSH2 0x1458 JUMP JUMPDEST PUSH1 0x20 DUP3 ADD SWAP1 POP SWAP2 SWAP1 POP JUMP JUMPDEST PUSH0 PUSH1 0x20 DUP3 ADD SWAP1 POP DUP2 DUP2 SUB PUSH0 DUP4 ADD MSTORE PUSH2 0x14B9 DUP2 PUSH2 0x1480 JUMP JUMPDEST SWAP1 POP SWAP2 SWAP1 POP JUMP INVALID LOG2 PUSH5 0x6970667358 0x22 SLT KECCAK256 PC PUSH21 0x2DAD5B4C133177C2BDE4AF28CCA430C012D0F001BC PUSH6 0xC328DC8E8D30 PUSH20 0x3F64736F6C634300081800330000000000000000 "
				},
				"gasEstimates": {
					"creation": {
						"codeDepositCost": "1073200",
						"executionCost": "1112",
						"totalCost": "1074312"
					},
					"external": {
						"disableModule(address,address)": "infinite",
						"enableModule(address)": "infinite",
						"execTransactionFromModule(address,uint256,bytes,uint8)": "infinite",
						"execTransactionFromModuleReturnData(address,uint256,bytes,uint8)": "infinite",
						"getModulesPaginated(address,uint256)": "infinite",
						"isModuleEnabled(address)": "2914"
					},
					"internal": {
						"setupModules(address,bytes memory)": "infinite"
					}
				},
				"methodIdentifiers": {
					"disableModule(address,address)": "e009cfde",
					"enableModule(address)": "610b5925",
					"execTransactionFromModule(address,uint256,bytes,uint8)": "468721a7",
					"execTransactionFromModuleReturnData(address,uint256,bytes,uint8)": "5229073f",
					"getModulesPaginated(address,uint256)": "cc2f8452",
					"isModuleEnabled(address)": "2d9ad53d"
				}
			},
			"storageLayout": {
				"storage": [
					{
						"astId": 67,
						"contract": ".deps/npm/@gnosis.pm/safe-contracts@1.3.0/contracts/base/ModuleManager.sol:ModuleManager",
						"label": "modules",
						"offset": 0,
						"slot": "0",
						"type": "t_mapping(t_address,t_address)"
					}
				],
				"types": {
					"t_address": {
						"encoding": "inplace",
						"label": "address",
						"numberOfBytes": "20"
					},
					"t_mapping(t_address,t_address)": {
						"encoding": "mapping",
						"key": "t_address",
						"label": "mapping(address => address)",
						"numberOfBytes": "32",
						"value": "t_address"
					}
				}
			},
			"userdoc": {
				"kind": "user",
				"methods": {
					"disableModule(address,address)": {
						"notice": "Disables the module `module` for the Safe."
					},
					"enableModule(address)": {
						"notice": "Enables the module `module` for the Safe."
					}
				},
				"version": 1
			}
		}
	}
}