{
	".deps/npm/@gnosis.pm/safe-contracts@1.3.0/contracts/base/OwnerManager.sol": {
		"OwnerManager": {
			"abi": [
				{
					"anonymous": false,
					"inputs": [
						{
							"indexed": false,
							"internalType": "address",
							"name": "owner",
							"type": "address"
						}
					],
					"name": "AddedOwner",
					"type": "event"
				},
				{
					"anonymous": false,
					"inputs": [
						{
							"indexed": false,
							"internalType": "uint256",
							"name": "threshold",
							"type": "uint256"
						}
					],
					"name": "ChangedThreshold",
					"type": "event"
				},
				{
					"anonymous": false,
					"inputs": [
						{
							"indexed": false,
							"internalType": "address",
							"name": "owner",
							"type": "address"
						}
					],
					"name": "RemovedOwner",
					"type": "event"
				},
				{
					"inputs": [
						{
							"internalType": "address",
							"name": "owner",
							"type": "address"
						},
						{
							"internalType": "uint256",
							"name": "_threshold",
							"type": "uint256"
						}
					],
					"name": "addOwnerWithThreshold",
					"outputs": [],
					"stateMutability": "nonpayable",
					"type": "function"
				},
				{
					"inputs": [
						{
							"internalType": "uint256",
							"name": "_threshold",
							"type": "uint256"
						}
					],
					"name": "changeThreshold",
					"outputs": [],
					"stateMutability": "nonpayable",
					"type": "function"
				},
				{
					"inputs": [],
					"name": "getOwners",
					"outputs": [
						{
							"internalType": "address[]",
							"name": "",
							"type": "address[]"
						}
					],
					"stateMutability": "view",
					"type": "function"
				},
				{
					"inputs": [],
					"name": "getThreshold",
					"outputs": [
						{
							"internalType": "uint256",
							"name": "",
							"type": "uint256"
						}
					],
					"stateMutability": "view",
					"type": "function"
				},
				{
					"inputs": [
						{
							"internalType": "address",
							"name": "owner",
							"type": "address"
						}
					],
					"name": "isOwner",
					"outputs": [
						{
							"internalType": "bool",
							"name": "",
							"type": "bool"
						}
					],
					"stateMutability": "view",
					"type": "function"
				},
				{
					"inputs": [
						{
							"internalType": "address",
							"name": "prevOwner",
							"type": "address"
						},
						{
							"internalType": "address",
							"name": "owner",
							"type": "address"
						},
						{
							"internalType": "uint256",
							"name": "_threshold",
							"type": "uint256"
						}
					],
					"name": "removeOwner",
					"outputs": [],
					"stateMutability": "nonpayable",
					"type": "function"
				},
				{
					"inputs": [
						{
							"internalType": "address",
							"name": "prevOwner",
							"type": "address"
						},
						{
							"internalType": "address",
							"name": "oldOwner",
							"type": "address"
						},
						{
							"internalType": "address",
							"name": "newOwner",
							"type": "address"
						}
					],
					"name": "swapOwner",
					"outputs": [],
					"stateMutability": "nonpayable",
					"type": "function"
				}
			],
			"devdoc": {
				"author": "Stefan George - <stefan@gnosis.pm>Richard Meissner - <richard@gnosis.pm>",
				"kind": "dev",
				"methods": {
					"addOwnerWithThreshold(address,uint256)": {
						"details": "Allows to add a new owner to the Safe and update the threshold at the same time.      This can only be done via a Safe transaction.",
						"params": {
							"_threshold": "New threshold.",
							"owner": "New owner address."
						}
					},
					"changeThreshold(uint256)": {
						"details": "Allows to update the number of required confirmations by Safe owners.      This can only be done via a Safe transaction.",
						"params": {
							"_threshold": "New threshold."
						}
					},
					"getOwners()": {
						"details": "Returns array of owners.",
						"returns": {
							"_0": "Array of Safe owners."
						}
					},
					"removeOwner(address,address,uint256)": {
						"details": "Allows to remove an owner from the Safe and update the threshold at the same time.      This can only be done via a Safe transaction.",
						"params": {
							"_threshold": "New threshold.",
							"owner": "Owner address to be removed.",
							"prevOwner": "Owner that pointed to the owner to be removed in the linked list"
						}
					},
					"swapOwner(address,address,address)": {
						"details": "Allows to swap/replace an owner from the Safe with another address.      This can only be done via a Safe transaction.",
						"params": {
							"newOwner": "New owner address.",
							"oldOwner": "Owner address to be replaced.",
							"prevOwner": "Owner that pointed to the owner to be replaced in the linked list"
						}
					}
				},
				"title": "OwnerManager - Manages a set of owners and a threshold to perform actions.",
				"version": 1
			},
			"evm": {
				"assembly": "    /* \".deps/npm/@gnosis.pm/safe-contracts@1.3.0/contracts/base/OwnerManager.sol\":298:7214  contract OwnerManager is SelfAuthorized {  //拥有者管理合约，用于管理合约的拥有者列表和执行特定操作所需的确认数量... */\n  mstore(0x40, 0x80)\n  callvalue\n  dup1\n  iszero\n  tag_1\n  jumpi\n  0x00\n  dup1\n  revert\ntag_1:\n  pop\n  dataSize(sub_0)\n  dup1\n  dataOffset(sub_0)\n  0x00\n  codecopy\n  0x00\n  return\nstop\n\nsub_0: assembly {\n        /* \".deps/npm/@gnosis.pm/safe-contracts@1.3.0/contracts/base/OwnerManager.sol\":298:7214  contract OwnerManager is SelfAuthorized {  //拥有者管理合约，用于管理合约的拥有者列表和执行特定操作所需的确认数量... */\n      mstore(0x40, 0x80)\n      callvalue\n      dup1\n      iszero\n      tag_1\n      jumpi\n      0x00\n      dup1\n      revert\n    tag_1:\n      pop\n      jumpi(tag_2, lt(calldatasize, 0x04))\n      shr(0xe0, calldataload(0x00))\n      dup1\n      0xa0e67e2b\n      gt\n      tag_10\n      jumpi\n      dup1\n      0xa0e67e2b\n      eq\n      tag_6\n      jumpi\n      dup1\n      0xe318b52b\n      eq\n      tag_7\n      jumpi\n      dup1\n      0xe75235b8\n      eq\n      tag_8\n      jumpi\n      dup1\n      0xf8dc5dd9\n      eq\n      tag_9\n      jumpi\n      jump(tag_2)\n    tag_10:\n      dup1\n      0x0d582f13\n      eq\n      tag_3\n      jumpi\n      dup1\n      0x2f54bf6e\n      eq\n      tag_4\n      jumpi\n      dup1\n      0x694e80c3\n      eq\n      tag_5\n      jumpi\n    tag_2:\n      0x00\n      dup1\n      revert\n        /* \".deps/npm/@gnosis.pm/safe-contracts@1.3.0/contracts/base/OwnerManager.sol\":2634:3259  function addOwnerWithThreshold(address owner, uint256 _threshold) public authorized {... */\n    tag_3:\n      tag_11\n      0x04\n      dup1\n      calldatasize\n      sub\n      dup2\n      add\n      swap1\n      tag_12\n      swap2\n      swap1\n      tag_13\n      jump\t// in\n    tag_12:\n      tag_14\n      jump\t// in\n    tag_11:\n      stop\n        /* \".deps/npm/@gnosis.pm/safe-contracts@1.3.0/contracts/base/OwnerManager.sol\":6524:6662  function isOwner(address owner) public view returns (bool) {... */\n    tag_4:\n      tag_15\n      0x04\n      dup1\n      calldatasize\n      sub\n      dup2\n      add\n      swap1\n      tag_16\n      swap2\n      swap1\n      tag_17\n      jump\t// in\n    tag_16:\n      tag_18\n      jump\t// in\n    tag_15:\n      mload(0x40)\n      tag_19\n      swap2\n      swap1\n      tag_20\n      jump\t// in\n    tag_19:\n      mload(0x40)\n      dup1\n      swap2\n      sub\n      swap1\n      return\n        /* \".deps/npm/@gnosis.pm/safe-contracts@1.3.0/contracts/base/OwnerManager.sol\":6002:6362  function changeThreshold(uint256 _threshold) public authorized {... */\n    tag_5:\n      tag_21\n      0x04\n      dup1\n      calldatasize\n      sub\n      dup2\n      add\n      swap1\n      tag_22\n      swap2\n      swap1\n      tag_23\n      jump\t// in\n    tag_22:\n      tag_24\n      jump\t// in\n    tag_21:\n      stop\n        /* \".deps/npm/@gnosis.pm/safe-contracts@1.3.0/contracts/base/OwnerManager.sol\":6775:7212  function getOwners() public view returns (address[] memory) {... */\n    tag_6:\n      tag_25\n      tag_26\n      jump\t// in\n    tag_25:\n      mload(0x40)\n      tag_27\n      swap2\n      swap1\n      tag_28\n      jump\t// in\n    tag_27:\n      mload(0x40)\n      dup1\n      swap2\n      sub\n      swap1\n      return\n        /* \".deps/npm/@gnosis.pm/safe-contracts@1.3.0/contracts/base/OwnerManager.sol\":4895:5721  function swapOwner(... */\n    tag_7:\n      tag_29\n      0x04\n      dup1\n      calldatasize\n      sub\n      dup2\n      add\n      swap1\n      tag_30\n      swap2\n      swap1\n      tag_31\n      jump\t// in\n    tag_30:\n      tag_32\n      jump\t// in\n    tag_29:\n      stop\n        /* \".deps/npm/@gnosis.pm/safe-contracts@1.3.0/contracts/base/OwnerManager.sol\":6392:6479  function getThreshold() public view returns (uint256) {... */\n    tag_8:\n      tag_33\n      tag_34\n      jump\t// in\n    tag_33:\n      mload(0x40)\n      tag_35\n      swap2\n      swap1\n      tag_36\n      jump\t// in\n    tag_35:\n      mload(0x40)\n      dup1\n      swap2\n      sub\n      swap1\n      return\n        /* \".deps/npm/@gnosis.pm/safe-contracts@1.3.0/contracts/base/OwnerManager.sol\":3737:4464  function removeOwner(... */\n    tag_9:\n      tag_37\n      0x04\n      dup1\n      calldatasize\n      sub\n      dup2\n      add\n      swap1\n      tag_38\n      swap2\n      swap1\n      tag_39\n      jump\t// in\n    tag_38:\n      tag_40\n      jump\t// in\n    tag_37:\n      stop\n        /* \".deps/npm/@gnosis.pm/safe-contracts@1.3.0/contracts/base/OwnerManager.sol\":2634:3259  function addOwnerWithThreshold(address owner, uint256 _threshold) public authorized {... */\n    tag_14:\n        /* \".deps/npm/@gnosis.pm/safe-contracts@1.3.0/contracts/common/SelfAuthorized.sol\":440:457  requireSelfCall() */\n      tag_42\n        /* \".deps/npm/@gnosis.pm/safe-contracts@1.3.0/contracts/common/SelfAuthorized.sol\":440:455  requireSelfCall */\n      tag_43\n        /* \".deps/npm/@gnosis.pm/safe-contracts@1.3.0/contracts/common/SelfAuthorized.sol\":440:457  requireSelfCall() */\n      jump\t// in\n    tag_42:\n        /* \".deps/npm/@gnosis.pm/safe-contracts@1.3.0/contracts/base/OwnerManager.sol\":2827:2828  0 */\n      0x00\n        /* \".deps/npm/@gnosis.pm/safe-contracts@1.3.0/contracts/base/OwnerManager.sol\":2810:2829  owner != address(0) */\n      0xffffffffffffffffffffffffffffffffffffffff\n      and\n        /* \".deps/npm/@gnosis.pm/safe-contracts@1.3.0/contracts/base/OwnerManager.sol\":2810:2815  owner */\n      dup3\n        /* \".deps/npm/@gnosis.pm/safe-contracts@1.3.0/contracts/base/OwnerManager.sol\":2810:2829  owner != address(0) */\n      0xffffffffffffffffffffffffffffffffffffffff\n      and\n      eq\n      iszero\n        /* \".deps/npm/@gnosis.pm/safe-contracts@1.3.0/contracts/base/OwnerManager.sol\":2810:2857  owner != address(0) && owner != SENTINEL_OWNERS */\n      dup1\n      iszero\n      tag_45\n      jumpi\n      pop\n        /* \".deps/npm/@gnosis.pm/safe-contracts@1.3.0/contracts/base/OwnerManager.sol\":628:631  0x1 */\n      0x01\n        /* \".deps/npm/@gnosis.pm/safe-contracts@1.3.0/contracts/base/OwnerManager.sol\":2833:2857  owner != SENTINEL_OWNERS */\n      0xffffffffffffffffffffffffffffffffffffffff\n      and\n        /* \".deps/npm/@gnosis.pm/safe-contracts@1.3.0/contracts/base/OwnerManager.sol\":2833:2838  owner */\n      dup3\n        /* \".deps/npm/@gnosis.pm/safe-contracts@1.3.0/contracts/base/OwnerManager.sol\":2833:2857  owner != SENTINEL_OWNERS */\n      0xffffffffffffffffffffffffffffffffffffffff\n      and\n      eq\n      iszero\n        /* \".deps/npm/@gnosis.pm/safe-contracts@1.3.0/contracts/base/OwnerManager.sol\":2810:2857  owner != address(0) && owner != SENTINEL_OWNERS */\n    tag_45:\n        /* \".deps/npm/@gnosis.pm/safe-contracts@1.3.0/contracts/base/OwnerManager.sol\":2810:2883  owner != address(0) && owner != SENTINEL_OWNERS && owner != address(this) */\n      dup1\n      iszero\n      tag_46\n      jumpi\n      pop\n        /* \".deps/npm/@gnosis.pm/safe-contracts@1.3.0/contracts/base/OwnerManager.sol\":2878:2882  this */\n      address\n        /* \".deps/npm/@gnosis.pm/safe-contracts@1.3.0/contracts/base/OwnerManager.sol\":2861:2883  owner != address(this) */\n      0xffffffffffffffffffffffffffffffffffffffff\n      and\n        /* \".deps/npm/@gnosis.pm/safe-contracts@1.3.0/contracts/base/OwnerManager.sol\":2861:2866  owner */\n      dup3\n        /* \".deps/npm/@gnosis.pm/safe-contracts@1.3.0/contracts/base/OwnerManager.sol\":2861:2883  owner != address(this) */\n      0xffffffffffffffffffffffffffffffffffffffff\n      and\n      eq\n      iszero\n        /* \".deps/npm/@gnosis.pm/safe-contracts@1.3.0/contracts/base/OwnerManager.sol\":2810:2883  owner != address(0) && owner != SENTINEL_OWNERS && owner != address(this) */\n    tag_46:\n        /* \".deps/npm/@gnosis.pm/safe-contracts@1.3.0/contracts/base/OwnerManager.sol\":2802:2893  require(owner != address(0) && owner != SENTINEL_OWNERS && owner != address(this), \"GS203\") */\n      tag_47\n      jumpi\n      mload(0x40)\n      0x08c379a000000000000000000000000000000000000000000000000000000000\n      dup2\n      mstore\n      0x04\n      add\n      tag_48\n      swap1\n      tag_49\n      jump\t// in\n    tag_48:\n      mload(0x40)\n      dup1\n      swap2\n      sub\n      swap1\n      revert\n    tag_47:\n        /* \".deps/npm/@gnosis.pm/safe-contracts@1.3.0/contracts/base/OwnerManager.sol\":2976:2977  0 */\n      0x00\n        /* \".deps/npm/@gnosis.pm/safe-contracts@1.3.0/contracts/base/OwnerManager.sol\":2951:2978  owners[owner] == address(0) */\n      0xffffffffffffffffffffffffffffffffffffffff\n      and\n        /* \".deps/npm/@gnosis.pm/safe-contracts@1.3.0/contracts/base/OwnerManager.sol\":2951:2957  owners */\n      0x00\n        /* \".deps/npm/@gnosis.pm/safe-contracts@1.3.0/contracts/base/OwnerManager.sol\":2951:2964  owners[owner] */\n      dup1\n        /* \".deps/npm/@gnosis.pm/safe-contracts@1.3.0/contracts/base/OwnerManager.sol\":2958:2963  owner */\n      dup5\n        /* \".deps/npm/@gnosis.pm/safe-contracts@1.3.0/contracts/base/OwnerManager.sol\":2951:2964  owners[owner] */\n      0xffffffffffffffffffffffffffffffffffffffff\n      and\n      0xffffffffffffffffffffffffffffffffffffffff\n      and\n      dup2\n      mstore\n      0x20\n      add\n      swap1\n      dup2\n      mstore\n      0x20\n      add\n      0x00\n      keccak256\n      0x00\n      swap1\n      sload\n      swap1\n      0x0100\n      exp\n      swap1\n      div\n      0xffffffffffffffffffffffffffffffffffffffff\n      and\n        /* \".deps/npm/@gnosis.pm/safe-contracts@1.3.0/contracts/base/OwnerManager.sol\":2951:2978  owners[owner] == address(0) */\n      0xffffffffffffffffffffffffffffffffffffffff\n      and\n      eq\n        /* \".deps/npm/@gnosis.pm/safe-contracts@1.3.0/contracts/base/OwnerManager.sol\":2943:2988  require(owners[owner] == address(0), \"GS204\") */\n      tag_50\n      jumpi\n      mload(0x40)\n      0x08c379a000000000000000000000000000000000000000000000000000000000\n      dup2\n      mstore\n      0x04\n      add\n      tag_51\n      swap1\n      tag_52\n      jump\t// in\n    tag_51:\n      mload(0x40)\n      dup1\n      swap2\n      sub\n      swap1\n      revert\n    tag_50:\n        /* \".deps/npm/@gnosis.pm/safe-contracts@1.3.0/contracts/base/OwnerManager.sol\":3014:3020  owners */\n      0x00\n        /* \".deps/npm/@gnosis.pm/safe-contracts@1.3.0/contracts/base/OwnerManager.sol\":3014:3037  owners[SENTINEL_OWNERS] */\n      dup1\n        /* \".deps/npm/@gnosis.pm/safe-contracts@1.3.0/contracts/base/OwnerManager.sol\":628:631  0x1 */\n      0x01\n        /* \".deps/npm/@gnosis.pm/safe-contracts@1.3.0/contracts/base/OwnerManager.sol\":3014:3037  owners[SENTINEL_OWNERS] */\n      0xffffffffffffffffffffffffffffffffffffffff\n      and\n      0xffffffffffffffffffffffffffffffffffffffff\n      and\n      dup2\n      mstore\n      0x20\n      add\n      swap1\n      dup2\n      mstore\n      0x20\n      add\n      0x00\n      keccak256\n      0x00\n      swap1\n      sload\n      swap1\n      0x0100\n      exp\n      swap1\n      div\n      0xffffffffffffffffffffffffffffffffffffffff\n      and\n        /* \".deps/npm/@gnosis.pm/safe-contracts@1.3.0/contracts/base/OwnerManager.sol\":2998:3004  owners */\n      0x00\n        /* \".deps/npm/@gnosis.pm/safe-contracts@1.3.0/contracts/base/OwnerManager.sol\":2998:3011  owners[owner] */\n      dup1\n        /* \".deps/npm/@gnosis.pm/safe-contracts@1.3.0/contracts/base/OwnerManager.sol\":3005:3010  owner */\n      dup5\n        /* \".deps/npm/@gnosis.pm/safe-contracts@1.3.0/contracts/base/OwnerManager.sol\":2998:3011  owners[owner] */\n      0xffffffffffffffffffffffffffffffffffffffff\n      and\n      0xffffffffffffffffffffffffffffffffffffffff\n      and\n      dup2\n      mstore\n      0x20\n      add\n      swap1\n      dup2\n      mstore\n      0x20\n      add\n      0x00\n      keccak256\n      0x00\n        /* \".deps/npm/@gnosis.pm/safe-contracts@1.3.0/contracts/base/OwnerManager.sol\":2998:3037  owners[owner] = owners[SENTINEL_OWNERS] */\n      0x0100\n      exp\n      dup2\n      sload\n      dup2\n      0xffffffffffffffffffffffffffffffffffffffff\n      mul\n      not\n      and\n      swap1\n      dup4\n      0xffffffffffffffffffffffffffffffffffffffff\n      and\n      mul\n      or\n      swap1\n      sstore\n      pop\n        /* \".deps/npm/@gnosis.pm/safe-contracts@1.3.0/contracts/base/OwnerManager.sol\":3073:3078  owner */\n      dup2\n        /* \".deps/npm/@gnosis.pm/safe-contracts@1.3.0/contracts/base/OwnerManager.sol\":3047:3053  owners */\n      0x00\n        /* \".deps/npm/@gnosis.pm/safe-contracts@1.3.0/contracts/base/OwnerManager.sol\":3047:3070  owners[SENTINEL_OWNERS] */\n      dup1\n        /* \".deps/npm/@gnosis.pm/safe-contracts@1.3.0/contracts/base/OwnerManager.sol\":628:631  0x1 */\n      0x01\n        /* \".deps/npm/@gnosis.pm/safe-contracts@1.3.0/contracts/base/OwnerManager.sol\":3047:3070  owners[SENTINEL_OWNERS] */\n      0xffffffffffffffffffffffffffffffffffffffff\n      and\n      0xffffffffffffffffffffffffffffffffffffffff\n      and\n      dup2\n      mstore\n      0x20\n      add\n      swap1\n      dup2\n      mstore\n      0x20\n      add\n      0x00\n      keccak256\n      0x00\n        /* \".deps/npm/@gnosis.pm/safe-contracts@1.3.0/contracts/base/OwnerManager.sol\":3047:3078  owners[SENTINEL_OWNERS] = owner */\n      0x0100\n      exp\n      dup2\n      sload\n      dup2\n      0xffffffffffffffffffffffffffffffffffffffff\n      mul\n      not\n      and\n      swap1\n      dup4\n      0xffffffffffffffffffffffffffffffffffffffff\n      and\n      mul\n      or\n      swap1\n      sstore\n      pop\n        /* \".deps/npm/@gnosis.pm/safe-contracts@1.3.0/contracts/base/OwnerManager.sol\":3088:3098  ownerCount */\n      0x01\n      0x00\n        /* \".deps/npm/@gnosis.pm/safe-contracts@1.3.0/contracts/base/OwnerManager.sol\":3088:3100  ownerCount++ */\n      dup2\n      sload\n      dup1\n      swap3\n      swap2\n      swap1\n      tag_53\n      swap1\n      tag_54\n      jump\t// in\n    tag_53:\n      swap2\n      swap1\n      pop\n      sstore\n      pop\n        /* \".deps/npm/@gnosis.pm/safe-contracts@1.3.0/contracts/base/OwnerManager.sol\":3115:3132  AddedOwner(owner) */\n      0x9465fa0c962cc76958e6373a993326400c1c94f8be2fe3a952adfa7f60b2ea26\n        /* \".deps/npm/@gnosis.pm/safe-contracts@1.3.0/contracts/base/OwnerManager.sol\":3126:3131  owner */\n      dup3\n        /* \".deps/npm/@gnosis.pm/safe-contracts@1.3.0/contracts/base/OwnerManager.sol\":3115:3132  AddedOwner(owner) */\n      mload(0x40)\n      tag_55\n      swap2\n      swap1\n      tag_56\n      jump\t// in\n    tag_55:\n      mload(0x40)\n      dup1\n      swap2\n      sub\n      swap1\n      log1\n        /* \".deps/npm/@gnosis.pm/safe-contracts@1.3.0/contracts/base/OwnerManager.sol\":3213:3223  _threshold */\n      dup1\n        /* \".deps/npm/@gnosis.pm/safe-contracts@1.3.0/contracts/base/OwnerManager.sol\":3200:3209  threshold */\n      sload(0x02)\n        /* \".deps/npm/@gnosis.pm/safe-contracts@1.3.0/contracts/base/OwnerManager.sol\":3200:3223  threshold != _threshold */\n      eq\n        /* \".deps/npm/@gnosis.pm/safe-contracts@1.3.0/contracts/base/OwnerManager.sol\":3196:3252  if (threshold != _threshold) changeThreshold(_threshold) */\n      tag_57\n      jumpi\n        /* \".deps/npm/@gnosis.pm/safe-contracts@1.3.0/contracts/base/OwnerManager.sol\":3225:3252  changeThreshold(_threshold) */\n      tag_58\n        /* \".deps/npm/@gnosis.pm/safe-contracts@1.3.0/contracts/base/OwnerManager.sol\":3241:3251  _threshold */\n      dup2\n        /* \".deps/npm/@gnosis.pm/safe-contracts@1.3.0/contracts/base/OwnerManager.sol\":3225:3240  changeThreshold */\n      tag_24\n        /* \".deps/npm/@gnosis.pm/safe-contracts@1.3.0/contracts/base/OwnerManager.sol\":3225:3252  changeThreshold(_threshold) */\n      jump\t// in\n    tag_58:\n        /* \".deps/npm/@gnosis.pm/safe-contracts@1.3.0/contracts/base/OwnerManager.sol\":3196:3252  if (threshold != _threshold) changeThreshold(_threshold) */\n    tag_57:\n        /* \".deps/npm/@gnosis.pm/safe-contracts@1.3.0/contracts/base/OwnerManager.sol\":2634:3259  function addOwnerWithThreshold(address owner, uint256 _threshold) public authorized {... */\n      pop\n      pop\n      jump\t// out\n        /* \".deps/npm/@gnosis.pm/safe-contracts@1.3.0/contracts/base/OwnerManager.sol\":6524:6662  function isOwner(address owner) public view returns (bool) {... */\n    tag_18:\n        /* \".deps/npm/@gnosis.pm/safe-contracts@1.3.0/contracts/base/OwnerManager.sol\":6577:6581  bool */\n      0x00\n        /* \".deps/npm/@gnosis.pm/safe-contracts@1.3.0/contracts/base/OwnerManager.sol\":628:631  0x1 */\n      0x01\n        /* \".deps/npm/@gnosis.pm/safe-contracts@1.3.0/contracts/base/OwnerManager.sol\":6600:6624  owner != SENTINEL_OWNERS */\n      0xffffffffffffffffffffffffffffffffffffffff\n      and\n        /* \".deps/npm/@gnosis.pm/safe-contracts@1.3.0/contracts/base/OwnerManager.sol\":6600:6605  owner */\n      dup3\n        /* \".deps/npm/@gnosis.pm/safe-contracts@1.3.0/contracts/base/OwnerManager.sol\":6600:6624  owner != SENTINEL_OWNERS */\n      0xffffffffffffffffffffffffffffffffffffffff\n      and\n      eq\n      iszero\n        /* \".deps/npm/@gnosis.pm/safe-contracts@1.3.0/contracts/base/OwnerManager.sol\":6600:6655  owner != SENTINEL_OWNERS && owners[owner] != address(0) */\n      dup1\n      iszero\n      tag_60\n      jumpi\n      pop\n        /* \".deps/npm/@gnosis.pm/safe-contracts@1.3.0/contracts/base/OwnerManager.sol\":6653:6654  0 */\n      0x00\n        /* \".deps/npm/@gnosis.pm/safe-contracts@1.3.0/contracts/base/OwnerManager.sol\":6628:6655  owners[owner] != address(0) */\n      0xffffffffffffffffffffffffffffffffffffffff\n      and\n        /* \".deps/npm/@gnosis.pm/safe-contracts@1.3.0/contracts/base/OwnerManager.sol\":6628:6634  owners */\n      0x00\n        /* \".deps/npm/@gnosis.pm/safe-contracts@1.3.0/contracts/base/OwnerManager.sol\":6628:6641  owners[owner] */\n      dup1\n        /* \".deps/npm/@gnosis.pm/safe-contracts@1.3.0/contracts/base/OwnerManager.sol\":6635:6640  owner */\n      dup5\n        /* \".deps/npm/@gnosis.pm/safe-contracts@1.3.0/contracts/base/OwnerManager.sol\":6628:6641  owners[owner] */\n      0xffffffffffffffffffffffffffffffffffffffff\n      and\n      0xffffffffffffffffffffffffffffffffffffffff\n      and\n      dup2\n      mstore\n      0x20\n      add\n      swap1\n      dup2\n      mstore\n      0x20\n      add\n      0x00\n      keccak256\n      0x00\n      swap1\n      sload\n      swap1\n      0x0100\n      exp\n      swap1\n      div\n      0xffffffffffffffffffffffffffffffffffffffff\n      and\n        /* \".deps/npm/@gnosis.pm/safe-contracts@1.3.0/contracts/base/OwnerManager.sol\":6628:6655  owners[owner] != address(0) */\n      0xffffffffffffffffffffffffffffffffffffffff\n      and\n      eq\n      iszero\n        /* \".deps/npm/@gnosis.pm/safe-contracts@1.3.0/contracts/base/OwnerManager.sol\":6600:6655  owner != SENTINEL_OWNERS && owners[owner] != address(0) */\n    tag_60:\n        /* \".deps/npm/@gnosis.pm/safe-contracts@1.3.0/contracts/base/OwnerManager.sol\":6593:6655  return owner != SENTINEL_OWNERS && owners[owner] != address(0) */\n      swap1\n      pop\n        /* \".deps/npm/@gnosis.pm/safe-contracts@1.3.0/contracts/base/OwnerManager.sol\":6524:6662  function isOwner(address owner) public view returns (bool) {... */\n      swap2\n      swap1\n      pop\n      jump\t// out\n        /* \".deps/npm/@gnosis.pm/safe-contracts@1.3.0/contracts/base/OwnerManager.sol\":6002:6362  function changeThreshold(uint256 _threshold) public authorized {... */\n    tag_24:\n        /* \".deps/npm/@gnosis.pm/safe-contracts@1.3.0/contracts/common/SelfAuthorized.sol\":440:457  requireSelfCall() */\n      tag_62\n        /* \".deps/npm/@gnosis.pm/safe-contracts@1.3.0/contracts/common/SelfAuthorized.sol\":440:455  requireSelfCall */\n      tag_43\n        /* \".deps/npm/@gnosis.pm/safe-contracts@1.3.0/contracts/common/SelfAuthorized.sol\":440:457  requireSelfCall() */\n      jump\t// in\n    tag_62:\n        /* \".deps/npm/@gnosis.pm/safe-contracts@1.3.0/contracts/base/OwnerManager.sol\":6166:6176  ownerCount */\n      sload(0x01)\n        /* \".deps/npm/@gnosis.pm/safe-contracts@1.3.0/contracts/base/OwnerManager.sol\":6152:6162  _threshold */\n      dup2\n        /* \".deps/npm/@gnosis.pm/safe-contracts@1.3.0/contracts/base/OwnerManager.sol\":6152:6176  _threshold <= ownerCount */\n      gt\n      iszero\n        /* \".deps/npm/@gnosis.pm/safe-contracts@1.3.0/contracts/base/OwnerManager.sol\":6144:6186  require(_threshold <= ownerCount, \"GS201\") */\n      tag_64\n      jumpi\n      mload(0x40)\n      0x08c379a000000000000000000000000000000000000000000000000000000000\n      dup2\n      mstore\n      0x04\n      add\n      tag_65\n      swap1\n      tag_66\n      jump\t// in\n    tag_65:\n      mload(0x40)\n      dup1\n      swap2\n      sub\n      swap1\n      revert\n    tag_64:\n        /* \".deps/npm/@gnosis.pm/safe-contracts@1.3.0/contracts/base/OwnerManager.sol\":6270:6271  1 */\n      0x01\n        /* \".deps/npm/@gnosis.pm/safe-contracts@1.3.0/contracts/base/OwnerManager.sol\":6256:6266  _threshold */\n      dup2\n        /* \".deps/npm/@gnosis.pm/safe-contracts@1.3.0/contracts/base/OwnerManager.sol\":6256:6271  _threshold >= 1 */\n      lt\n      iszero\n        /* \".deps/npm/@gnosis.pm/safe-contracts@1.3.0/contracts/base/OwnerManager.sol\":6248:6281  require(_threshold >= 1, \"GS202\") */\n      tag_67\n      jumpi\n      mload(0x40)\n      0x08c379a000000000000000000000000000000000000000000000000000000000\n      dup2\n      mstore\n      0x04\n      add\n      tag_68\n      swap1\n      tag_69\n      jump\t// in\n    tag_68:\n      mload(0x40)\n      dup1\n      swap2\n      sub\n      swap1\n      revert\n    tag_67:\n        /* \".deps/npm/@gnosis.pm/safe-contracts@1.3.0/contracts/base/OwnerManager.sol\":6303:6313  _threshold */\n      dup1\n        /* \".deps/npm/@gnosis.pm/safe-contracts@1.3.0/contracts/base/OwnerManager.sol\":6291:6300  threshold */\n      0x02\n        /* \".deps/npm/@gnosis.pm/safe-contracts@1.3.0/contracts/base/OwnerManager.sol\":6291:6313  threshold = _threshold */\n      dup2\n      swap1\n      sstore\n      pop\n        /* \".deps/npm/@gnosis.pm/safe-contracts@1.3.0/contracts/base/OwnerManager.sol\":6328:6355  ChangedThreshold(threshold) */\n      0x610f7ff2b304ae8903c3de74c60c6ab1f7d6226b3f52c5161905bb5ad4039c93\n        /* \".deps/npm/@gnosis.pm/safe-contracts@1.3.0/contracts/base/OwnerManager.sol\":6345:6354  threshold */\n      sload(0x02)\n        /* \".deps/npm/@gnosis.pm/safe-contracts@1.3.0/contracts/base/OwnerManager.sol\":6328:6355  ChangedThreshold(threshold) */\n      mload(0x40)\n      tag_70\n      swap2\n      swap1\n      tag_36\n      jump\t// in\n    tag_70:\n      mload(0x40)\n      dup1\n      swap2\n      sub\n      swap1\n      log1\n        /* \".deps/npm/@gnosis.pm/safe-contracts@1.3.0/contracts/base/OwnerManager.sol\":6002:6362  function changeThreshold(uint256 _threshold) public authorized {... */\n      pop\n      jump\t// out\n        /* \".deps/npm/@gnosis.pm/safe-contracts@1.3.0/contracts/base/OwnerManager.sol\":6775:7212  function getOwners() public view returns (address[] memory) {... */\n    tag_26:\n        /* \".deps/npm/@gnosis.pm/safe-contracts@1.3.0/contracts/base/OwnerManager.sol\":6817:6833  address[] memory */\n      0x60\n        /* \".deps/npm/@gnosis.pm/safe-contracts@1.3.0/contracts/base/OwnerManager.sol\":6845:6867  address[] memory array */\n      0x00\n        /* \".deps/npm/@gnosis.pm/safe-contracts@1.3.0/contracts/base/OwnerManager.sol\":6884:6894  ownerCount */\n      sload(0x01)\n        /* \".deps/npm/@gnosis.pm/safe-contracts@1.3.0/contracts/base/OwnerManager.sol\":6870:6895  new address[](ownerCount) */\n      0xffffffffffffffff\n      dup2\n      gt\n      iszero\n      tag_72\n      jumpi\n      tag_73\n      tag_74\n      jump\t// in\n    tag_73:\n    tag_72:\n      mload(0x40)\n      swap1\n      dup1\n      dup3\n      mstore\n      dup1\n      0x20\n      mul\n      0x20\n      add\n      dup3\n      add\n      0x40\n      mstore\n      dup1\n      iszero\n      tag_75\n      jumpi\n      dup2\n      0x20\n      add\n      0x20\n      dup3\n      mul\n      dup1\n      calldatasize\n      dup4\n      calldatacopy\n      dup1\n      dup3\n      add\n      swap2\n      pop\n      pop\n      swap1\n      pop\n    tag_75:\n      pop\n        /* \".deps/npm/@gnosis.pm/safe-contracts@1.3.0/contracts/base/OwnerManager.sol\":6845:6895  address[] memory array = new address[](ownerCount) */\n      swap1\n      pop\n        /* \".deps/npm/@gnosis.pm/safe-contracts@1.3.0/contracts/base/OwnerManager.sol\":6939:6952  uint256 index */\n      0x00\n        /* \".deps/npm/@gnosis.pm/safe-contracts@1.3.0/contracts/base/OwnerManager.sol\":6966:6986  address currentOwner */\n      dup1\n        /* \".deps/npm/@gnosis.pm/safe-contracts@1.3.0/contracts/base/OwnerManager.sol\":6989:6995  owners */\n      dup1\n        /* \".deps/npm/@gnosis.pm/safe-contracts@1.3.0/contracts/base/OwnerManager.sol\":6989:7012  owners[SENTINEL_OWNERS] */\n      0x00\n        /* \".deps/npm/@gnosis.pm/safe-contracts@1.3.0/contracts/base/OwnerManager.sol\":628:631  0x1 */\n      0x01\n        /* \".deps/npm/@gnosis.pm/safe-contracts@1.3.0/contracts/base/OwnerManager.sol\":6989:7012  owners[SENTINEL_OWNERS] */\n      0xffffffffffffffffffffffffffffffffffffffff\n      and\n      0xffffffffffffffffffffffffffffffffffffffff\n      and\n      dup2\n      mstore\n      0x20\n      add\n      swap1\n      dup2\n      mstore\n      0x20\n      add\n      0x00\n      keccak256\n      0x00\n      swap1\n      sload\n      swap1\n      0x0100\n      exp\n      swap1\n      div\n      0xffffffffffffffffffffffffffffffffffffffff\n      and\n        /* \".deps/npm/@gnosis.pm/safe-contracts@1.3.0/contracts/base/OwnerManager.sol\":6966:7012  address currentOwner = owners[SENTINEL_OWNERS] */\n      swap1\n      pop\n        /* \".deps/npm/@gnosis.pm/safe-contracts@1.3.0/contracts/base/OwnerManager.sol\":7022:7184  while (currentOwner != SENTINEL_OWNERS) {... */\n    tag_76:\n        /* \".deps/npm/@gnosis.pm/safe-contracts@1.3.0/contracts/base/OwnerManager.sol\":628:631  0x1 */\n      0x01\n        /* \".deps/npm/@gnosis.pm/safe-contracts@1.3.0/contracts/base/OwnerManager.sol\":7029:7060  currentOwner != SENTINEL_OWNERS */\n      0xffffffffffffffffffffffffffffffffffffffff\n      and\n        /* \".deps/npm/@gnosis.pm/safe-contracts@1.3.0/contracts/base/OwnerManager.sol\":7029:7041  currentOwner */\n      dup2\n        /* \".deps/npm/@gnosis.pm/safe-contracts@1.3.0/contracts/base/OwnerManager.sol\":7029:7060  currentOwner != SENTINEL_OWNERS */\n      0xffffffffffffffffffffffffffffffffffffffff\n      and\n      eq\n        /* \".deps/npm/@gnosis.pm/safe-contracts@1.3.0/contracts/base/OwnerManager.sol\":7022:7184  while (currentOwner != SENTINEL_OWNERS) {... */\n      tag_77\n      jumpi\n        /* \".deps/npm/@gnosis.pm/safe-contracts@1.3.0/contracts/base/OwnerManager.sol\":7091:7103  currentOwner */\n      dup1\n        /* \".deps/npm/@gnosis.pm/safe-contracts@1.3.0/contracts/base/OwnerManager.sol\":7076:7081  array */\n      dup4\n        /* \".deps/npm/@gnosis.pm/safe-contracts@1.3.0/contracts/base/OwnerManager.sol\":7082:7087  index */\n      dup4\n        /* \".deps/npm/@gnosis.pm/safe-contracts@1.3.0/contracts/base/OwnerManager.sol\":7076:7088  array[index] */\n      dup2\n      mload\n      dup2\n      lt\n      tag_78\n      jumpi\n      tag_79\n      tag_80\n      jump\t// in\n    tag_79:\n    tag_78:\n      0x20\n      mul\n      0x20\n      add\n      add\n        /* \".deps/npm/@gnosis.pm/safe-contracts@1.3.0/contracts/base/OwnerManager.sol\":7076:7103  array[index] = currentOwner */\n      swap1\n      0xffffffffffffffffffffffffffffffffffffffff\n      and\n      swap1\n      dup2\n      0xffffffffffffffffffffffffffffffffffffffff\n      and\n      dup2\n      mstore\n      pop\n      pop\n        /* \".deps/npm/@gnosis.pm/safe-contracts@1.3.0/contracts/base/OwnerManager.sol\":7132:7138  owners */\n      0x00\n        /* \".deps/npm/@gnosis.pm/safe-contracts@1.3.0/contracts/base/OwnerManager.sol\":7132:7152  owners[currentOwner] */\n      dup1\n        /* \".deps/npm/@gnosis.pm/safe-contracts@1.3.0/contracts/base/OwnerManager.sol\":7139:7151  currentOwner */\n      dup3\n        /* \".deps/npm/@gnosis.pm/safe-contracts@1.3.0/contracts/base/OwnerManager.sol\":7132:7152  owners[currentOwner] */\n      0xffffffffffffffffffffffffffffffffffffffff\n      and\n      0xffffffffffffffffffffffffffffffffffffffff\n      and\n      dup2\n      mstore\n      0x20\n      add\n      swap1\n      dup2\n      mstore\n      0x20\n      add\n      0x00\n      keccak256\n      0x00\n      swap1\n      sload\n      swap1\n      0x0100\n      exp\n      swap1\n      div\n      0xffffffffffffffffffffffffffffffffffffffff\n      and\n        /* \".deps/npm/@gnosis.pm/safe-contracts@1.3.0/contracts/base/OwnerManager.sol\":7117:7152  currentOwner = owners[currentOwner] */\n      swap1\n      pop\n        /* \".deps/npm/@gnosis.pm/safe-contracts@1.3.0/contracts/base/OwnerManager.sol\":7166:7173  index++ */\n      dup2\n      dup1\n      tag_81\n      swap1\n      tag_54\n      jump\t// in\n    tag_81:\n      swap3\n      pop\n      pop\n        /* \".deps/npm/@gnosis.pm/safe-contracts@1.3.0/contracts/base/OwnerManager.sol\":7022:7184  while (currentOwner != SENTINEL_OWNERS) {... */\n      jump(tag_76)\n    tag_77:\n        /* \".deps/npm/@gnosis.pm/safe-contracts@1.3.0/contracts/base/OwnerManager.sol\":7200:7205  array */\n      dup3\n        /* \".deps/npm/@gnosis.pm/safe-contracts@1.3.0/contracts/base/OwnerManager.sol\":7193:7205  return array */\n      swap4\n      pop\n      pop\n      pop\n      pop\n        /* \".deps/npm/@gnosis.pm/safe-contracts@1.3.0/contracts/base/OwnerManager.sol\":6775:7212  function getOwners() public view returns (address[] memory) {... */\n      swap1\n      jump\t// out\n        /* \".deps/npm/@gnosis.pm/safe-contracts@1.3.0/contracts/base/OwnerManager.sol\":4895:5721  function swapOwner(... */\n    tag_32:\n        /* \".deps/npm/@gnosis.pm/safe-contracts@1.3.0/contracts/common/SelfAuthorized.sol\":440:457  requireSelfCall() */\n      tag_83\n        /* \".deps/npm/@gnosis.pm/safe-contracts@1.3.0/contracts/common/SelfAuthorized.sol\":440:455  requireSelfCall */\n      tag_43\n        /* \".deps/npm/@gnosis.pm/safe-contracts@1.3.0/contracts/common/SelfAuthorized.sol\":440:457  requireSelfCall() */\n      jump\t// in\n    tag_83:\n        /* \".deps/npm/@gnosis.pm/safe-contracts@1.3.0/contracts/base/OwnerManager.sol\":5129:5130  0 */\n      0x00\n        /* \".deps/npm/@gnosis.pm/safe-contracts@1.3.0/contracts/base/OwnerManager.sol\":5109:5131  newOwner != address(0) */\n      0xffffffffffffffffffffffffffffffffffffffff\n      and\n        /* \".deps/npm/@gnosis.pm/safe-contracts@1.3.0/contracts/base/OwnerManager.sol\":5109:5117  newOwner */\n      dup2\n        /* \".deps/npm/@gnosis.pm/safe-contracts@1.3.0/contracts/base/OwnerManager.sol\":5109:5131  newOwner != address(0) */\n      0xffffffffffffffffffffffffffffffffffffffff\n      and\n      eq\n      iszero\n        /* \".deps/npm/@gnosis.pm/safe-contracts@1.3.0/contracts/base/OwnerManager.sol\":5109:5162  newOwner != address(0) && newOwner != SENTINEL_OWNERS */\n      dup1\n      iszero\n      tag_85\n      jumpi\n      pop\n        /* \".deps/npm/@gnosis.pm/safe-contracts@1.3.0/contracts/base/OwnerManager.sol\":628:631  0x1 */\n      0x01\n        /* \".deps/npm/@gnosis.pm/safe-contracts@1.3.0/contracts/base/OwnerManager.sol\":5135:5162  newOwner != SENTINEL_OWNERS */\n      0xffffffffffffffffffffffffffffffffffffffff\n      and\n        /* \".deps/npm/@gnosis.pm/safe-contracts@1.3.0/contracts/base/OwnerManager.sol\":5135:5143  newOwner */\n      dup2\n        /* \".deps/npm/@gnosis.pm/safe-contracts@1.3.0/contracts/base/OwnerManager.sol\":5135:5162  newOwner != SENTINEL_OWNERS */\n      0xffffffffffffffffffffffffffffffffffffffff\n      and\n      eq\n      iszero\n        /* \".deps/npm/@gnosis.pm/safe-contracts@1.3.0/contracts/base/OwnerManager.sol\":5109:5162  newOwner != address(0) && newOwner != SENTINEL_OWNERS */\n    tag_85:\n        /* \".deps/npm/@gnosis.pm/safe-contracts@1.3.0/contracts/base/OwnerManager.sol\":5109:5191  newOwner != address(0) && newOwner != SENTINEL_OWNERS && newOwner != address(this) */\n      dup1\n      iszero\n      tag_86\n      jumpi\n      pop\n        /* \".deps/npm/@gnosis.pm/safe-contracts@1.3.0/contracts/base/OwnerManager.sol\":5186:5190  this */\n      address\n        /* \".deps/npm/@gnosis.pm/safe-contracts@1.3.0/contracts/base/OwnerManager.sol\":5166:5191  newOwner != address(this) */\n      0xffffffffffffffffffffffffffffffffffffffff\n      and\n        /* \".deps/npm/@gnosis.pm/safe-contracts@1.3.0/contracts/base/OwnerManager.sol\":5166:5174  newOwner */\n      dup2\n        /* \".deps/npm/@gnosis.pm/safe-contracts@1.3.0/contracts/base/OwnerManager.sol\":5166:5191  newOwner != address(this) */\n      0xffffffffffffffffffffffffffffffffffffffff\n      and\n      eq\n      iszero\n        /* \".deps/npm/@gnosis.pm/safe-contracts@1.3.0/contracts/base/OwnerManager.sol\":5109:5191  newOwner != address(0) && newOwner != SENTINEL_OWNERS && newOwner != address(this) */\n    tag_86:\n        /* \".deps/npm/@gnosis.pm/safe-contracts@1.3.0/contracts/base/OwnerManager.sol\":5101:5201  require(newOwner != address(0) && newOwner != SENTINEL_OWNERS && newOwner != address(this), \"GS203\") */\n      tag_87\n      jumpi\n      mload(0x40)\n      0x08c379a000000000000000000000000000000000000000000000000000000000\n      dup2\n      mstore\n      0x04\n      add\n      tag_88\n      swap1\n      tag_49\n      jump\t// in\n    tag_88:\n      mload(0x40)\n      dup1\n      swap2\n      sub\n      swap1\n      revert\n    tag_87:\n        /* \".deps/npm/@gnosis.pm/safe-contracts@1.3.0/contracts/base/OwnerManager.sol\":5287:5288  0 */\n      0x00\n        /* \".deps/npm/@gnosis.pm/safe-contracts@1.3.0/contracts/base/OwnerManager.sol\":5259:5289  owners[newOwner] == address(0) */\n      0xffffffffffffffffffffffffffffffffffffffff\n      and\n        /* \".deps/npm/@gnosis.pm/safe-contracts@1.3.0/contracts/base/OwnerManager.sol\":5259:5265  owners */\n      0x00\n        /* \".deps/npm/@gnosis.pm/safe-contracts@1.3.0/contracts/base/OwnerManager.sol\":5259:5275  owners[newOwner] */\n      dup1\n        /* \".deps/npm/@gnosis.pm/safe-contracts@1.3.0/contracts/base/OwnerManager.sol\":5266:5274  newOwner */\n      dup4\n        /* \".deps/npm/@gnosis.pm/safe-contracts@1.3.0/contracts/base/OwnerManager.sol\":5259:5275  owners[newOwner] */\n      0xffffffffffffffffffffffffffffffffffffffff\n      and\n      0xffffffffffffffffffffffffffffffffffffffff\n      and\n      dup2\n      mstore\n      0x20\n      add\n      swap1\n      dup2\n      mstore\n      0x20\n      add\n      0x00\n      keccak256\n      0x00\n      swap1\n      sload\n      swap1\n      0x0100\n      exp\n      swap1\n      div\n      0xffffffffffffffffffffffffffffffffffffffff\n      and\n        /* \".deps/npm/@gnosis.pm/safe-contracts@1.3.0/contracts/base/OwnerManager.sol\":5259:5289  owners[newOwner] == address(0) */\n      0xffffffffffffffffffffffffffffffffffffffff\n      and\n      eq\n        /* \".deps/npm/@gnosis.pm/safe-contracts@1.3.0/contracts/base/OwnerManager.sol\":5251:5299  require(owners[newOwner] == address(0), \"GS204\") */\n      tag_89\n      jumpi\n      mload(0x40)\n      0x08c379a000000000000000000000000000000000000000000000000000000000\n      dup2\n      mstore\n      0x04\n      add\n      tag_90\n      swap1\n      tag_52\n      jump\t// in\n    tag_90:\n      mload(0x40)\n      dup1\n      swap2\n      sub\n      swap1\n      revert\n    tag_89:\n        /* \".deps/npm/@gnosis.pm/safe-contracts@1.3.0/contracts/base/OwnerManager.sol\":5420:5421  0 */\n      0x00\n        /* \".deps/npm/@gnosis.pm/safe-contracts@1.3.0/contracts/base/OwnerManager.sol\":5400:5422  oldOwner != address(0) */\n      0xffffffffffffffffffffffffffffffffffffffff\n      and\n        /* \".deps/npm/@gnosis.pm/safe-contracts@1.3.0/contracts/base/OwnerManager.sol\":5400:5408  oldOwner */\n      dup3\n        /* \".deps/npm/@gnosis.pm/safe-contracts@1.3.0/contracts/base/OwnerManager.sol\":5400:5422  oldOwner != address(0) */\n      0xffffffffffffffffffffffffffffffffffffffff\n      and\n      eq\n      iszero\n        /* \".deps/npm/@gnosis.pm/safe-contracts@1.3.0/contracts/base/OwnerManager.sol\":5400:5453  oldOwner != address(0) && oldOwner != SENTINEL_OWNERS */\n      dup1\n      iszero\n      tag_91\n      jumpi\n      pop\n        /* \".deps/npm/@gnosis.pm/safe-contracts@1.3.0/contracts/base/OwnerManager.sol\":628:631  0x1 */\n      0x01\n        /* \".deps/npm/@gnosis.pm/safe-contracts@1.3.0/contracts/base/OwnerManager.sol\":5426:5453  oldOwner != SENTINEL_OWNERS */\n      0xffffffffffffffffffffffffffffffffffffffff\n      and\n        /* \".deps/npm/@gnosis.pm/safe-contracts@1.3.0/contracts/base/OwnerManager.sol\":5426:5434  oldOwner */\n      dup3\n        /* \".deps/npm/@gnosis.pm/safe-contracts@1.3.0/contracts/base/OwnerManager.sol\":5426:5453  oldOwner != SENTINEL_OWNERS */\n      0xffffffffffffffffffffffffffffffffffffffff\n      and\n      eq\n      iszero\n        /* \".deps/npm/@gnosis.pm/safe-contracts@1.3.0/contracts/base/OwnerManager.sol\":5400:5453  oldOwner != address(0) && oldOwner != SENTINEL_OWNERS */\n    tag_91:\n        /* \".deps/npm/@gnosis.pm/safe-contracts@1.3.0/contracts/base/OwnerManager.sol\":5392:5463  require(oldOwner != address(0) && oldOwner != SENTINEL_OWNERS, \"GS203\") */\n      tag_92\n      jumpi\n      mload(0x40)\n      0x08c379a000000000000000000000000000000000000000000000000000000000\n      dup2\n      mstore\n      0x04\n      add\n      tag_93\n      swap1\n      tag_49\n      jump\t// in\n    tag_93:\n      mload(0x40)\n      dup1\n      swap2\n      sub\n      swap1\n      revert\n    tag_92:\n        /* \".deps/npm/@gnosis.pm/safe-contracts@1.3.0/contracts/base/OwnerManager.sol\":5502:5510  oldOwner */\n      dup2\n        /* \".deps/npm/@gnosis.pm/safe-contracts@1.3.0/contracts/base/OwnerManager.sol\":5481:5510  owners[prevOwner] == oldOwner */\n      0xffffffffffffffffffffffffffffffffffffffff\n      and\n        /* \".deps/npm/@gnosis.pm/safe-contracts@1.3.0/contracts/base/OwnerManager.sol\":5481:5487  owners */\n      0x00\n        /* \".deps/npm/@gnosis.pm/safe-contracts@1.3.0/contracts/base/OwnerManager.sol\":5481:5498  owners[prevOwner] */\n      dup1\n        /* \".deps/npm/@gnosis.pm/safe-contracts@1.3.0/contracts/base/OwnerManager.sol\":5488:5497  prevOwner */\n      dup6\n        /* \".deps/npm/@gnosis.pm/safe-contracts@1.3.0/contracts/base/OwnerManager.sol\":5481:5498  owners[prevOwner] */\n      0xffffffffffffffffffffffffffffffffffffffff\n      and\n      0xffffffffffffffffffffffffffffffffffffffff\n      and\n      dup2\n      mstore\n      0x20\n      add\n      swap1\n      dup2\n      mstore\n      0x20\n      add\n      0x00\n      keccak256\n      0x00\n      swap1\n      sload\n      swap1\n      0x0100\n      exp\n      swap1\n      div\n      0xffffffffffffffffffffffffffffffffffffffff\n      and\n        /* \".deps/npm/@gnosis.pm/safe-contracts@1.3.0/contracts/base/OwnerManager.sol\":5481:5510  owners[prevOwner] == oldOwner */\n      0xffffffffffffffffffffffffffffffffffffffff\n      and\n      eq\n        /* \".deps/npm/@gnosis.pm/safe-contracts@1.3.0/contracts/base/OwnerManager.sol\":5473:5520  require(owners[prevOwner] == oldOwner, \"GS205\") */\n      tag_94\n      jumpi\n      mload(0x40)\n      0x08c379a000000000000000000000000000000000000000000000000000000000\n      dup2\n      mstore\n      0x04\n      add\n      tag_95\n      swap1\n      tag_96\n      jump\t// in\n    tag_95:\n      mload(0x40)\n      dup1\n      swap2\n      sub\n      swap1\n      revert\n    tag_94:\n        /* \".deps/npm/@gnosis.pm/safe-contracts@1.3.0/contracts/base/OwnerManager.sol\":5549:5555  owners */\n      0x00\n        /* \".deps/npm/@gnosis.pm/safe-contracts@1.3.0/contracts/base/OwnerManager.sol\":5549:5565  owners[oldOwner] */\n      dup1\n        /* \".deps/npm/@gnosis.pm/safe-contracts@1.3.0/contracts/base/OwnerManager.sol\":5556:5564  oldOwner */\n      dup4\n        /* \".deps/npm/@gnosis.pm/safe-contracts@1.3.0/contracts/base/OwnerManager.sol\":5549:5565  owners[oldOwner] */\n      0xffffffffffffffffffffffffffffffffffffffff\n      and\n      0xffffffffffffffffffffffffffffffffffffffff\n      and\n      dup2\n      mstore\n      0x20\n      add\n      swap1\n      dup2\n      mstore\n      0x20\n      add\n      0x00\n      keccak256\n      0x00\n      swap1\n      sload\n      swap1\n      0x0100\n      exp\n      swap1\n      div\n      0xffffffffffffffffffffffffffffffffffffffff\n      and\n        /* \".deps/npm/@gnosis.pm/safe-contracts@1.3.0/contracts/base/OwnerManager.sol\":5530:5536  owners */\n      0x00\n        /* \".deps/npm/@gnosis.pm/safe-contracts@1.3.0/contracts/base/OwnerManager.sol\":5530:5546  owners[newOwner] */\n      dup1\n        /* \".deps/npm/@gnosis.pm/safe-contracts@1.3.0/contracts/base/OwnerManager.sol\":5537:5545  newOwner */\n      dup4\n        /* \".deps/npm/@gnosis.pm/safe-contracts@1.3.0/contracts/base/OwnerManager.sol\":5530:5546  owners[newOwner] */\n      0xffffffffffffffffffffffffffffffffffffffff\n      and\n      0xffffffffffffffffffffffffffffffffffffffff\n      and\n      dup2\n      mstore\n      0x20\n      add\n      swap1\n      dup2\n      mstore\n      0x20\n      add\n      0x00\n      keccak256\n      0x00\n        /* \".deps/npm/@gnosis.pm/safe-contracts@1.3.0/contracts/base/OwnerManager.sol\":5530:5565  owners[newOwner] = owners[oldOwner] */\n      0x0100\n      exp\n      dup2\n      sload\n      dup2\n      0xffffffffffffffffffffffffffffffffffffffff\n      mul\n      not\n      and\n      swap1\n      dup4\n      0xffffffffffffffffffffffffffffffffffffffff\n      and\n      mul\n      or\n      swap1\n      sstore\n      pop\n        /* \".deps/npm/@gnosis.pm/safe-contracts@1.3.0/contracts/base/OwnerManager.sol\":5595:5603  newOwner */\n      dup1\n        /* \".deps/npm/@gnosis.pm/safe-contracts@1.3.0/contracts/base/OwnerManager.sol\":5575:5581  owners */\n      0x00\n        /* \".deps/npm/@gnosis.pm/safe-contracts@1.3.0/contracts/base/OwnerManager.sol\":5575:5592  owners[prevOwner] */\n      dup1\n        /* \".deps/npm/@gnosis.pm/safe-contracts@1.3.0/contracts/base/OwnerManager.sol\":5582:5591  prevOwner */\n      dup6\n        /* \".deps/npm/@gnosis.pm/safe-contracts@1.3.0/contracts/base/OwnerManager.sol\":5575:5592  owners[prevOwner] */\n      0xffffffffffffffffffffffffffffffffffffffff\n      and\n      0xffffffffffffffffffffffffffffffffffffffff\n      and\n      dup2\n      mstore\n      0x20\n      add\n      swap1\n      dup2\n      mstore\n      0x20\n      add\n      0x00\n      keccak256\n      0x00\n        /* \".deps/npm/@gnosis.pm/safe-contracts@1.3.0/contracts/base/OwnerManager.sol\":5575:5603  owners[prevOwner] = newOwner */\n      0x0100\n      exp\n      dup2\n      sload\n      dup2\n      0xffffffffffffffffffffffffffffffffffffffff\n      mul\n      not\n      and\n      swap1\n      dup4\n      0xffffffffffffffffffffffffffffffffffffffff\n      and\n      mul\n      or\n      swap1\n      sstore\n      pop\n        /* \".deps/npm/@gnosis.pm/safe-contracts@1.3.0/contracts/base/OwnerManager.sol\":5640:5641  0 */\n      0x00\n        /* \".deps/npm/@gnosis.pm/safe-contracts@1.3.0/contracts/base/OwnerManager.sol\":5613:5619  owners */\n      dup1\n        /* \".deps/npm/@gnosis.pm/safe-contracts@1.3.0/contracts/base/OwnerManager.sol\":5613:5629  owners[oldOwner] */\n      0x00\n        /* \".deps/npm/@gnosis.pm/safe-contracts@1.3.0/contracts/base/OwnerManager.sol\":5620:5628  oldOwner */\n      dup5\n        /* \".deps/npm/@gnosis.pm/safe-contracts@1.3.0/contracts/base/OwnerManager.sol\":5613:5629  owners[oldOwner] */\n      0xffffffffffffffffffffffffffffffffffffffff\n      and\n      0xffffffffffffffffffffffffffffffffffffffff\n      and\n      dup2\n      mstore\n      0x20\n      add\n      swap1\n      dup2\n      mstore\n      0x20\n      add\n      0x00\n      keccak256\n      0x00\n        /* \".deps/npm/@gnosis.pm/safe-contracts@1.3.0/contracts/base/OwnerManager.sol\":5613:5642  owners[oldOwner] = address(0) */\n      0x0100\n      exp\n      dup2\n      sload\n      dup2\n      0xffffffffffffffffffffffffffffffffffffffff\n      mul\n      not\n      and\n      swap1\n      dup4\n      0xffffffffffffffffffffffffffffffffffffffff\n      and\n      mul\n      or\n      swap1\n      sstore\n      pop\n        /* \".deps/npm/@gnosis.pm/safe-contracts@1.3.0/contracts/base/OwnerManager.sol\":5657:5679  RemovedOwner(oldOwner) */\n      0xf8d49fc529812e9a7c5c50e69c20f0dccc0db8fa95c98bc58cc9a4f1c1299eaf\n        /* \".deps/npm/@gnosis.pm/safe-contracts@1.3.0/contracts/base/OwnerManager.sol\":5670:5678  oldOwner */\n      dup3\n        /* \".deps/npm/@gnosis.pm/safe-contracts@1.3.0/contracts/base/OwnerManager.sol\":5657:5679  RemovedOwner(oldOwner) */\n      mload(0x40)\n      tag_97\n      swap2\n      swap1\n      tag_56\n      jump\t// in\n    tag_97:\n      mload(0x40)\n      dup1\n      swap2\n      sub\n      swap1\n      log1\n        /* \".deps/npm/@gnosis.pm/safe-contracts@1.3.0/contracts/base/OwnerManager.sol\":5694:5714  AddedOwner(newOwner) */\n      0x9465fa0c962cc76958e6373a993326400c1c94f8be2fe3a952adfa7f60b2ea26\n        /* \".deps/npm/@gnosis.pm/safe-contracts@1.3.0/contracts/base/OwnerManager.sol\":5705:5713  newOwner */\n      dup2\n        /* \".deps/npm/@gnosis.pm/safe-contracts@1.3.0/contracts/base/OwnerManager.sol\":5694:5714  AddedOwner(newOwner) */\n      mload(0x40)\n      tag_98\n      swap2\n      swap1\n      tag_56\n      jump\t// in\n    tag_98:\n      mload(0x40)\n      dup1\n      swap2\n      sub\n      swap1\n      log1\n        /* \".deps/npm/@gnosis.pm/safe-contracts@1.3.0/contracts/base/OwnerManager.sol\":4895:5721  function swapOwner(... */\n      pop\n      pop\n      pop\n      jump\t// out\n        /* \".deps/npm/@gnosis.pm/safe-contracts@1.3.0/contracts/base/OwnerManager.sol\":6392:6479  function getThreshold() public view returns (uint256) {... */\n    tag_34:\n        /* \".deps/npm/@gnosis.pm/safe-contracts@1.3.0/contracts/base/OwnerManager.sol\":6437:6444  uint256 */\n      0x00\n        /* \".deps/npm/@gnosis.pm/safe-contracts@1.3.0/contracts/base/OwnerManager.sol\":6463:6472  threshold */\n      sload(0x02)\n        /* \".deps/npm/@gnosis.pm/safe-contracts@1.3.0/contracts/base/OwnerManager.sol\":6456:6472  return threshold */\n      swap1\n      pop\n        /* \".deps/npm/@gnosis.pm/safe-contracts@1.3.0/contracts/base/OwnerManager.sol\":6392:6479  function getThreshold() public view returns (uint256) {... */\n      swap1\n      jump\t// out\n        /* \".deps/npm/@gnosis.pm/safe-contracts@1.3.0/contracts/base/OwnerManager.sol\":3737:4464  function removeOwner(... */\n    tag_40:\n        /* \".deps/npm/@gnosis.pm/safe-contracts@1.3.0/contracts/common/SelfAuthorized.sol\":440:457  requireSelfCall() */\n      tag_101\n        /* \".deps/npm/@gnosis.pm/safe-contracts@1.3.0/contracts/common/SelfAuthorized.sol\":440:455  requireSelfCall */\n      tag_43\n        /* \".deps/npm/@gnosis.pm/safe-contracts@1.3.0/contracts/common/SelfAuthorized.sol\":440:457  requireSelfCall() */\n      jump\t// in\n    tag_101:\n        /* \".deps/npm/@gnosis.pm/safe-contracts@1.3.0/contracts/base/OwnerManager.sol\":3973:3983  _threshold */\n      dup1\n        /* \".deps/npm/@gnosis.pm/safe-contracts@1.3.0/contracts/base/OwnerManager.sol\":3968:3969  1 */\n      0x01\n        /* \".deps/npm/@gnosis.pm/safe-contracts@1.3.0/contracts/base/OwnerManager.sol\":3955:3965  ownerCount */\n      dup1\n      sload\n        /* \".deps/npm/@gnosis.pm/safe-contracts@1.3.0/contracts/base/OwnerManager.sol\":3955:3969  ownerCount - 1 */\n      tag_103\n      swap2\n      swap1\n      tag_104\n      jump\t// in\n    tag_103:\n        /* \".deps/npm/@gnosis.pm/safe-contracts@1.3.0/contracts/base/OwnerManager.sol\":3955:3983  ownerCount - 1 >= _threshold */\n      lt\n      iszero\n        /* \".deps/npm/@gnosis.pm/safe-contracts@1.3.0/contracts/base/OwnerManager.sol\":3947:3993  require(ownerCount - 1 >= _threshold, \"GS201\") */\n      tag_105\n      jumpi\n      mload(0x40)\n      0x08c379a000000000000000000000000000000000000000000000000000000000\n      dup2\n      mstore\n      0x04\n      add\n      tag_106\n      swap1\n      tag_66\n      jump\t// in\n    tag_106:\n      mload(0x40)\n      dup1\n      swap2\n      sub\n      swap1\n      revert\n    tag_105:\n        /* \".deps/npm/@gnosis.pm/safe-contracts@1.3.0/contracts/base/OwnerManager.sol\":4108:4109  0 */\n      0x00\n        /* \".deps/npm/@gnosis.pm/safe-contracts@1.3.0/contracts/base/OwnerManager.sol\":4091:4110  owner != address(0) */\n      0xffffffffffffffffffffffffffffffffffffffff\n      and\n        /* \".deps/npm/@gnosis.pm/safe-contracts@1.3.0/contracts/base/OwnerManager.sol\":4091:4096  owner */\n      dup3\n        /* \".deps/npm/@gnosis.pm/safe-contracts@1.3.0/contracts/base/OwnerManager.sol\":4091:4110  owner != address(0) */\n      0xffffffffffffffffffffffffffffffffffffffff\n      and\n      eq\n      iszero\n        /* \".deps/npm/@gnosis.pm/safe-contracts@1.3.0/contracts/base/OwnerManager.sol\":4091:4138  owner != address(0) && owner != SENTINEL_OWNERS */\n      dup1\n      iszero\n      tag_107\n      jumpi\n      pop\n        /* \".deps/npm/@gnosis.pm/safe-contracts@1.3.0/contracts/base/OwnerManager.sol\":628:631  0x1 */\n      0x01\n        /* \".deps/npm/@gnosis.pm/safe-contracts@1.3.0/contracts/base/OwnerManager.sol\":4114:4138  owner != SENTINEL_OWNERS */\n      0xffffffffffffffffffffffffffffffffffffffff\n      and\n        /* \".deps/npm/@gnosis.pm/safe-contracts@1.3.0/contracts/base/OwnerManager.sol\":4114:4119  owner */\n      dup3\n        /* \".deps/npm/@gnosis.pm/safe-contracts@1.3.0/contracts/base/OwnerManager.sol\":4114:4138  owner != SENTINEL_OWNERS */\n      0xffffffffffffffffffffffffffffffffffffffff\n      and\n      eq\n      iszero\n        /* \".deps/npm/@gnosis.pm/safe-contracts@1.3.0/contracts/base/OwnerManager.sol\":4091:4138  owner != address(0) && owner != SENTINEL_OWNERS */\n    tag_107:\n        /* \".deps/npm/@gnosis.pm/safe-contracts@1.3.0/contracts/base/OwnerManager.sol\":4083:4148  require(owner != address(0) && owner != SENTINEL_OWNERS, \"GS203\") */\n      tag_108\n      jumpi\n      mload(0x40)\n      0x08c379a000000000000000000000000000000000000000000000000000000000\n      dup2\n      mstore\n      0x04\n      add\n      tag_109\n      swap1\n      tag_49\n      jump\t// in\n    tag_109:\n      mload(0x40)\n      dup1\n      swap2\n      sub\n      swap1\n      revert\n    tag_108:\n        /* \".deps/npm/@gnosis.pm/safe-contracts@1.3.0/contracts/base/OwnerManager.sol\":4187:4192  owner */\n      dup2\n        /* \".deps/npm/@gnosis.pm/safe-contracts@1.3.0/contracts/base/OwnerManager.sol\":4166:4192  owners[prevOwner] == owner */\n      0xffffffffffffffffffffffffffffffffffffffff\n      and\n        /* \".deps/npm/@gnosis.pm/safe-contracts@1.3.0/contracts/base/OwnerManager.sol\":4166:4172  owners */\n      0x00\n        /* \".deps/npm/@gnosis.pm/safe-contracts@1.3.0/contracts/base/OwnerManager.sol\":4166:4183  owners[prevOwner] */\n      dup1\n        /* \".deps/npm/@gnosis.pm/safe-contracts@1.3.0/contracts/base/OwnerManager.sol\":4173:4182  prevOwner */\n      dup6\n        /* \".deps/npm/@gnosis.pm/safe-contracts@1.3.0/contracts/base/OwnerManager.sol\":4166:4183  owners[prevOwner] */\n      0xffffffffffffffffffffffffffffffffffffffff\n      and\n      0xffffffffffffffffffffffffffffffffffffffff\n      and\n      dup2\n      mstore\n      0x20\n      add\n      swap1\n      dup2\n      mstore\n      0x20\n      add\n      0x00\n      keccak256\n      0x00\n      swap1\n      sload\n      swap1\n      0x0100\n      exp\n      swap1\n      div\n      0xffffffffffffffffffffffffffffffffffffffff\n      and\n        /* \".deps/npm/@gnosis.pm/safe-contracts@1.3.0/contracts/base/OwnerManager.sol\":4166:4192  owners[prevOwner] == owner */\n      0xffffffffffffffffffffffffffffffffffffffff\n      and\n      eq\n        /* \".deps/npm/@gnosis.pm/safe-contracts@1.3.0/contracts/base/OwnerManager.sol\":4158:4202  require(owners[prevOwner] == owner, \"GS205\") */\n      tag_110\n      jumpi\n      mload(0x40)\n      0x08c379a000000000000000000000000000000000000000000000000000000000\n      dup2\n      mstore\n      0x04\n      add\n      tag_111\n      swap1\n      tag_96\n      jump\t// in\n    tag_111:\n      mload(0x40)\n      dup1\n      swap2\n      sub\n      swap1\n      revert\n    tag_110:\n        /* \".deps/npm/@gnosis.pm/safe-contracts@1.3.0/contracts/base/OwnerManager.sol\":4232:4238  owners */\n      0x00\n        /* \".deps/npm/@gnosis.pm/safe-contracts@1.3.0/contracts/base/OwnerManager.sol\":4232:4245  owners[owner] */\n      dup1\n        /* \".deps/npm/@gnosis.pm/safe-contracts@1.3.0/contracts/base/OwnerManager.sol\":4239:4244  owner */\n      dup4\n        /* \".deps/npm/@gnosis.pm/safe-contracts@1.3.0/contracts/base/OwnerManager.sol\":4232:4245  owners[owner] */\n      0xffffffffffffffffffffffffffffffffffffffff\n      and\n      0xffffffffffffffffffffffffffffffffffffffff\n      and\n      dup2\n      mstore\n      0x20\n      add\n      swap1\n      dup2\n      mstore\n      0x20\n      add\n      0x00\n      keccak256\n      0x00\n      swap1\n      sload\n      swap1\n      0x0100\n      exp\n      swap1\n      div\n      0xffffffffffffffffffffffffffffffffffffffff\n      and\n        /* \".deps/npm/@gnosis.pm/safe-contracts@1.3.0/contracts/base/OwnerManager.sol\":4212:4218  owners */\n      0x00\n        /* \".deps/npm/@gnosis.pm/safe-contracts@1.3.0/contracts/base/OwnerManager.sol\":4212:4229  owners[prevOwner] */\n      dup1\n        /* \".deps/npm/@gnosis.pm/safe-contracts@1.3.0/contracts/base/OwnerManager.sol\":4219:4228  prevOwner */\n      dup6\n        /* \".deps/npm/@gnosis.pm/safe-contracts@1.3.0/contracts/base/OwnerManager.sol\":4212:4229  owners[prevOwner] */\n      0xffffffffffffffffffffffffffffffffffffffff\n      and\n      0xffffffffffffffffffffffffffffffffffffffff\n      and\n      dup2\n      mstore\n      0x20\n      add\n      swap1\n      dup2\n      mstore\n      0x20\n      add\n      0x00\n      keccak256\n      0x00\n        /* \".deps/npm/@gnosis.pm/safe-contracts@1.3.0/contracts/base/OwnerManager.sol\":4212:4245  owners[prevOwner] = owners[owner] */\n      0x0100\n      exp\n      dup2\n      sload\n      dup2\n      0xffffffffffffffffffffffffffffffffffffffff\n      mul\n      not\n      and\n      swap1\n      dup4\n      0xffffffffffffffffffffffffffffffffffffffff\n      and\n      mul\n      or\n      swap1\n      sstore\n      pop\n        /* \".deps/npm/@gnosis.pm/safe-contracts@1.3.0/contracts/base/OwnerManager.sol\":4279:4280  0 */\n      0x00\n        /* \".deps/npm/@gnosis.pm/safe-contracts@1.3.0/contracts/base/OwnerManager.sol\":4255:4261  owners */\n      dup1\n        /* \".deps/npm/@gnosis.pm/safe-contracts@1.3.0/contracts/base/OwnerManager.sol\":4255:4268  owners[owner] */\n      0x00\n        /* \".deps/npm/@gnosis.pm/safe-contracts@1.3.0/contracts/base/OwnerManager.sol\":4262:4267  owner */\n      dup5\n        /* \".deps/npm/@gnosis.pm/safe-contracts@1.3.0/contracts/base/OwnerManager.sol\":4255:4268  owners[owner] */\n      0xffffffffffffffffffffffffffffffffffffffff\n      and\n      0xffffffffffffffffffffffffffffffffffffffff\n      and\n      dup2\n      mstore\n      0x20\n      add\n      swap1\n      dup2\n      mstore\n      0x20\n      add\n      0x00\n      keccak256\n      0x00\n        /* \".deps/npm/@gnosis.pm/safe-contracts@1.3.0/contracts/base/OwnerManager.sol\":4255:4281  owners[owner] = address(0) */\n      0x0100\n      exp\n      dup2\n      sload\n      dup2\n      0xffffffffffffffffffffffffffffffffffffffff\n      mul\n      not\n      and\n      swap1\n      dup4\n      0xffffffffffffffffffffffffffffffffffffffff\n      and\n      mul\n      or\n      swap1\n      sstore\n      pop\n        /* \".deps/npm/@gnosis.pm/safe-contracts@1.3.0/contracts/base/OwnerManager.sol\":4291:4301  ownerCount */\n      0x01\n      0x00\n        /* \".deps/npm/@gnosis.pm/safe-contracts@1.3.0/contracts/base/OwnerManager.sol\":4291:4303  ownerCount-- */\n      dup2\n      sload\n      dup1\n      swap3\n      swap2\n      swap1\n      tag_112\n      swap1\n      tag_113\n      jump\t// in\n    tag_112:\n      swap2\n      swap1\n      pop\n      sstore\n      pop\n        /* \".deps/npm/@gnosis.pm/safe-contracts@1.3.0/contracts/base/OwnerManager.sol\":4318:4337  RemovedOwner(owner) */\n      0xf8d49fc529812e9a7c5c50e69c20f0dccc0db8fa95c98bc58cc9a4f1c1299eaf\n        /* \".deps/npm/@gnosis.pm/safe-contracts@1.3.0/contracts/base/OwnerManager.sol\":4331:4336  owner */\n      dup3\n        /* \".deps/npm/@gnosis.pm/safe-contracts@1.3.0/contracts/base/OwnerManager.sol\":4318:4337  RemovedOwner(owner) */\n      mload(0x40)\n      tag_114\n      swap2\n      swap1\n      tag_56\n      jump\t// in\n    tag_114:\n      mload(0x40)\n      dup1\n      swap2\n      sub\n      swap1\n      log1\n        /* \".deps/npm/@gnosis.pm/safe-contracts@1.3.0/contracts/base/OwnerManager.sol\":4418:4428  _threshold */\n      dup1\n        /* \".deps/npm/@gnosis.pm/safe-contracts@1.3.0/contracts/base/OwnerManager.sol\":4405:4414  threshold */\n      sload(0x02)\n        /* \".deps/npm/@gnosis.pm/safe-contracts@1.3.0/contracts/base/OwnerManager.sol\":4405:4428  threshold != _threshold */\n      eq\n        /* \".deps/npm/@gnosis.pm/safe-contracts@1.3.0/contracts/base/OwnerManager.sol\":4401:4457  if (threshold != _threshold) changeThreshold(_threshold) */\n      tag_115\n      jumpi\n        /* \".deps/npm/@gnosis.pm/safe-contracts@1.3.0/contracts/base/OwnerManager.sol\":4430:4457  changeThreshold(_threshold) */\n      tag_116\n        /* \".deps/npm/@gnosis.pm/safe-contracts@1.3.0/contracts/base/OwnerManager.sol\":4446:4456  _threshold */\n      dup2\n        /* \".deps/npm/@gnosis.pm/safe-contracts@1.3.0/contracts/base/OwnerManager.sol\":4430:4445  changeThreshold */\n      tag_24\n        /* \".deps/npm/@gnosis.pm/safe-contracts@1.3.0/contracts/base/OwnerManager.sol\":4430:4457  changeThreshold(_threshold) */\n      jump\t// in\n    tag_116:\n        /* \".deps/npm/@gnosis.pm/safe-contracts@1.3.0/contracts/base/OwnerManager.sol\":4401:4457  if (threshold != _threshold) changeThreshold(_threshold) */\n    tag_115:\n        /* \".deps/npm/@gnosis.pm/safe-contracts@1.3.0/contracts/base/OwnerManager.sol\":3737:4464  function removeOwner(... */\n      pop\n      pop\n      pop\n      jump\t// out\n        /* \".deps/npm/@gnosis.pm/safe-contracts@1.3.0/contracts/common/SelfAuthorized.sol\":231:333  function requireSelfCall() private view {... */\n    tag_43:\n        /* \".deps/npm/@gnosis.pm/safe-contracts@1.3.0/contracts/common/SelfAuthorized.sol\":311:315  this */\n      address\n        /* \".deps/npm/@gnosis.pm/safe-contracts@1.3.0/contracts/common/SelfAuthorized.sol\":289:316  msg.sender == address(this) */\n      0xffffffffffffffffffffffffffffffffffffffff\n      and\n        /* \".deps/npm/@gnosis.pm/safe-contracts@1.3.0/contracts/common/SelfAuthorized.sol\":289:299  msg.sender */\n      caller\n        /* \".deps/npm/@gnosis.pm/safe-contracts@1.3.0/contracts/common/SelfAuthorized.sol\":289:316  msg.sender == address(this) */\n      0xffffffffffffffffffffffffffffffffffffffff\n      and\n      eq\n        /* \".deps/npm/@gnosis.pm/safe-contracts@1.3.0/contracts/common/SelfAuthorized.sol\":281:326  require(msg.sender == address(this), \"GS031\") */\n      tag_118\n      jumpi\n      mload(0x40)\n      0x08c379a000000000000000000000000000000000000000000000000000000000\n      dup2\n      mstore\n      0x04\n      add\n      tag_119\n      swap1\n      tag_120\n      jump\t// in\n    tag_119:\n      mload(0x40)\n      dup1\n      swap2\n      sub\n      swap1\n      revert\n    tag_118:\n        /* \".deps/npm/@gnosis.pm/safe-contracts@1.3.0/contracts/common/SelfAuthorized.sol\":231:333  function requireSelfCall() private view {... */\n      jump\t// out\n        /* \"#utility.yul\":88:205   */\n    tag_122:\n        /* \"#utility.yul\":197:198   */\n      0x00\n        /* \"#utility.yul\":194:195   */\n      dup1\n        /* \"#utility.yul\":187:199   */\n      revert\n        /* \"#utility.yul\":334:460   */\n    tag_124:\n        /* \"#utility.yul\":371:378   */\n      0x00\n        /* \"#utility.yul\":411:453   */\n      0xffffffffffffffffffffffffffffffffffffffff\n        /* \"#utility.yul\":404:409   */\n      dup3\n        /* \"#utility.yul\":400:454   */\n      and\n        /* \"#utility.yul\":389:454   */\n      swap1\n      pop\n        /* \"#utility.yul\":334:460   */\n      swap2\n      swap1\n      pop\n      jump\t// out\n        /* \"#utility.yul\":466:562   */\n    tag_125:\n        /* \"#utility.yul\":503:510   */\n      0x00\n        /* \"#utility.yul\":532:556   */\n      tag_162\n        /* \"#utility.yul\":550:555   */\n      dup3\n        /* \"#utility.yul\":532:556   */\n      tag_124\n      jump\t// in\n    tag_162:\n        /* \"#utility.yul\":521:556   */\n      swap1\n      pop\n        /* \"#utility.yul\":466:562   */\n      swap2\n      swap1\n      pop\n      jump\t// out\n        /* \"#utility.yul\":568:690   */\n    tag_126:\n        /* \"#utility.yul\":641:665   */\n      tag_164\n        /* \"#utility.yul\":659:664   */\n      dup2\n        /* \"#utility.yul\":641:665   */\n      tag_125\n      jump\t// in\n    tag_164:\n        /* \"#utility.yul\":634:639   */\n      dup2\n        /* \"#utility.yul\":631:666   */\n      eq\n        /* \"#utility.yul\":621:684   */\n      tag_165\n      jumpi\n        /* \"#utility.yul\":680:681   */\n      0x00\n        /* \"#utility.yul\":677:678   */\n      dup1\n        /* \"#utility.yul\":670:682   */\n      revert\n        /* \"#utility.yul\":621:684   */\n    tag_165:\n        /* \"#utility.yul\":568:690   */\n      pop\n      jump\t// out\n        /* \"#utility.yul\":696:835   */\n    tag_127:\n        /* \"#utility.yul\":742:747   */\n      0x00\n        /* \"#utility.yul\":780:786   */\n      dup2\n        /* \"#utility.yul\":767:787   */\n      calldataload\n        /* \"#utility.yul\":758:787   */\n      swap1\n      pop\n        /* \"#utility.yul\":796:829   */\n      tag_167\n        /* \"#utility.yul\":823:828   */\n      dup2\n        /* \"#utility.yul\":796:829   */\n      tag_126\n      jump\t// in\n    tag_167:\n        /* \"#utility.yul\":696:835   */\n      swap3\n      swap2\n      pop\n      pop\n      jump\t// out\n        /* \"#utility.yul\":841:918   */\n    tag_128:\n        /* \"#utility.yul\":878:885   */\n      0x00\n        /* \"#utility.yul\":907:912   */\n      dup2\n        /* \"#utility.yul\":896:912   */\n      swap1\n      pop\n        /* \"#utility.yul\":841:918   */\n      swap2\n      swap1\n      pop\n      jump\t// out\n        /* \"#utility.yul\":924:1046   */\n    tag_129:\n        /* \"#utility.yul\":997:1021   */\n      tag_170\n        /* \"#utility.yul\":1015:1020   */\n      dup2\n        /* \"#utility.yul\":997:1021   */\n      tag_128\n      jump\t// in\n    tag_170:\n        /* \"#utility.yul\":990:995   */\n      dup2\n        /* \"#utility.yul\":987:1022   */\n      eq\n        /* \"#utility.yul\":977:1040   */\n      tag_171\n      jumpi\n        /* \"#utility.yul\":1036:1037   */\n      0x00\n        /* \"#utility.yul\":1033:1034   */\n      dup1\n        /* \"#utility.yul\":1026:1038   */\n      revert\n        /* \"#utility.yul\":977:1040   */\n    tag_171:\n        /* \"#utility.yul\":924:1046   */\n      pop\n      jump\t// out\n        /* \"#utility.yul\":1052:1191   */\n    tag_130:\n        /* \"#utility.yul\":1098:1103   */\n      0x00\n        /* \"#utility.yul\":1136:1142   */\n      dup2\n        /* \"#utility.yul\":1123:1143   */\n      calldataload\n        /* \"#utility.yul\":1114:1143   */\n      swap1\n      pop\n        /* \"#utility.yul\":1152:1185   */\n      tag_173\n        /* \"#utility.yul\":1179:1184   */\n      dup2\n        /* \"#utility.yul\":1152:1185   */\n      tag_129\n      jump\t// in\n    tag_173:\n        /* \"#utility.yul\":1052:1191   */\n      swap3\n      swap2\n      pop\n      pop\n      jump\t// out\n        /* \"#utility.yul\":1197:1671   */\n    tag_13:\n        /* \"#utility.yul\":1265:1271   */\n      0x00\n        /* \"#utility.yul\":1273:1279   */\n      dup1\n        /* \"#utility.yul\":1322:1324   */\n      0x40\n        /* \"#utility.yul\":1310:1319   */\n      dup4\n        /* \"#utility.yul\":1301:1308   */\n      dup6\n        /* \"#utility.yul\":1297:1320   */\n      sub\n        /* \"#utility.yul\":1293:1325   */\n      slt\n        /* \"#utility.yul\":1290:1409   */\n      iszero\n      tag_175\n      jumpi\n        /* \"#utility.yul\":1328:1407   */\n      tag_176\n      tag_122\n      jump\t// in\n    tag_176:\n        /* \"#utility.yul\":1290:1409   */\n    tag_175:\n        /* \"#utility.yul\":1448:1449   */\n      0x00\n        /* \"#utility.yul\":1473:1526   */\n      tag_177\n        /* \"#utility.yul\":1518:1525   */\n      dup6\n        /* \"#utility.yul\":1509:1515   */\n      dup3\n        /* \"#utility.yul\":1498:1507   */\n      dup7\n        /* \"#utility.yul\":1494:1516   */\n      add\n        /* \"#utility.yul\":1473:1526   */\n      tag_127\n      jump\t// in\n    tag_177:\n        /* \"#utility.yul\":1463:1526   */\n      swap3\n      pop\n        /* \"#utility.yul\":1419:1536   */\n      pop\n        /* \"#utility.yul\":1575:1577   */\n      0x20\n        /* \"#utility.yul\":1601:1654   */\n      tag_178\n        /* \"#utility.yul\":1646:1653   */\n      dup6\n        /* \"#utility.yul\":1637:1643   */\n      dup3\n        /* \"#utility.yul\":1626:1635   */\n      dup7\n        /* \"#utility.yul\":1622:1644   */\n      add\n        /* \"#utility.yul\":1601:1654   */\n      tag_130\n      jump\t// in\n    tag_178:\n        /* \"#utility.yul\":1591:1654   */\n      swap2\n      pop\n        /* \"#utility.yul\":1546:1664   */\n      pop\n        /* \"#utility.yul\":1197:1671   */\n      swap3\n      pop\n      swap3\n      swap1\n      pop\n      jump\t// out\n        /* \"#utility.yul\":1677:2006   */\n    tag_17:\n        /* \"#utility.yul\":1736:1742   */\n      0x00\n        /* \"#utility.yul\":1785:1787   */\n      0x20\n        /* \"#utility.yul\":1773:1782   */\n      dup3\n        /* \"#utility.yul\":1764:1771   */\n      dup5\n        /* \"#utility.yul\":1760:1783   */\n      sub\n        /* \"#utility.yul\":1756:1788   */\n      slt\n        /* \"#utility.yul\":1753:1872   */\n      iszero\n      tag_180\n      jumpi\n        /* \"#utility.yul\":1791:1870   */\n      tag_181\n      tag_122\n      jump\t// in\n    tag_181:\n        /* \"#utility.yul\":1753:1872   */\n    tag_180:\n        /* \"#utility.yul\":1911:1912   */\n      0x00\n        /* \"#utility.yul\":1936:1989   */\n      tag_182\n        /* \"#utility.yul\":1981:1988   */\n      dup5\n        /* \"#utility.yul\":1972:1978   */\n      dup3\n        /* \"#utility.yul\":1961:1970   */\n      dup6\n        /* \"#utility.yul\":1957:1979   */\n      add\n        /* \"#utility.yul\":1936:1989   */\n      tag_127\n      jump\t// in\n    tag_182:\n        /* \"#utility.yul\":1926:1989   */\n      swap2\n      pop\n        /* \"#utility.yul\":1882:1999   */\n      pop\n        /* \"#utility.yul\":1677:2006   */\n      swap3\n      swap2\n      pop\n      pop\n      jump\t// out\n        /* \"#utility.yul\":2012:2102   */\n    tag_131:\n        /* \"#utility.yul\":2046:2053   */\n      0x00\n        /* \"#utility.yul\":2089:2094   */\n      dup2\n        /* \"#utility.yul\":2082:2095   */\n      iszero\n        /* \"#utility.yul\":2075:2096   */\n      iszero\n        /* \"#utility.yul\":2064:2096   */\n      swap1\n      pop\n        /* \"#utility.yul\":2012:2102   */\n      swap2\n      swap1\n      pop\n      jump\t// out\n        /* \"#utility.yul\":2108:2217   */\n    tag_132:\n        /* \"#utility.yul\":2189:2210   */\n      tag_185\n        /* \"#utility.yul\":2204:2209   */\n      dup2\n        /* \"#utility.yul\":2189:2210   */\n      tag_131\n      jump\t// in\n    tag_185:\n        /* \"#utility.yul\":2184:2187   */\n      dup3\n        /* \"#utility.yul\":2177:2211   */\n      mstore\n        /* \"#utility.yul\":2108:2217   */\n      pop\n      pop\n      jump\t// out\n        /* \"#utility.yul\":2223:2433   */\n    tag_20:\n        /* \"#utility.yul\":2310:2314   */\n      0x00\n        /* \"#utility.yul\":2348:2350   */\n      0x20\n        /* \"#utility.yul\":2337:2346   */\n      dup3\n        /* \"#utility.yul\":2333:2351   */\n      add\n        /* \"#utility.yul\":2325:2351   */\n      swap1\n      pop\n        /* \"#utility.yul\":2361:2426   */\n      tag_187\n        /* \"#utility.yul\":2423:2424   */\n      0x00\n        /* \"#utility.yul\":2412:2421   */\n      dup4\n        /* \"#utility.yul\":2408:2425   */\n      add\n        /* \"#utility.yul\":2399:2405   */\n      dup5\n        /* \"#utility.yul\":2361:2426   */\n      tag_132\n      jump\t// in\n    tag_187:\n        /* \"#utility.yul\":2223:2433   */\n      swap3\n      swap2\n      pop\n      pop\n      jump\t// out\n        /* \"#utility.yul\":2439:2768   */\n    tag_23:\n        /* \"#utility.yul\":2498:2504   */\n      0x00\n        /* \"#utility.yul\":2547:2549   */\n      0x20\n        /* \"#utility.yul\":2535:2544   */\n      dup3\n        /* \"#utility.yul\":2526:2533   */\n      dup5\n        /* \"#utility.yul\":2522:2545   */\n      sub\n        /* \"#utility.yul\":2518:2550   */\n      slt\n        /* \"#utility.yul\":2515:2634   */\n      iszero\n      tag_189\n      jumpi\n        /* \"#utility.yul\":2553:2632   */\n      tag_190\n      tag_122\n      jump\t// in\n    tag_190:\n        /* \"#utility.yul\":2515:2634   */\n    tag_189:\n        /* \"#utility.yul\":2673:2674   */\n      0x00\n        /* \"#utility.yul\":2698:2751   */\n      tag_191\n        /* \"#utility.yul\":2743:2750   */\n      dup5\n        /* \"#utility.yul\":2734:2740   */\n      dup3\n        /* \"#utility.yul\":2723:2732   */\n      dup6\n        /* \"#utility.yul\":2719:2741   */\n      add\n        /* \"#utility.yul\":2698:2751   */\n      tag_130\n      jump\t// in\n    tag_191:\n        /* \"#utility.yul\":2688:2751   */\n      swap2\n      pop\n        /* \"#utility.yul\":2644:2761   */\n      pop\n        /* \"#utility.yul\":2439:2768   */\n      swap3\n      swap2\n      pop\n      pop\n      jump\t// out\n        /* \"#utility.yul\":2774:2888   */\n    tag_133:\n        /* \"#utility.yul\":2841:2847   */\n      0x00\n        /* \"#utility.yul\":2875:2880   */\n      dup2\n        /* \"#utility.yul\":2869:2881   */\n      mload\n        /* \"#utility.yul\":2859:2881   */\n      swap1\n      pop\n        /* \"#utility.yul\":2774:2888   */\n      swap2\n      swap1\n      pop\n      jump\t// out\n        /* \"#utility.yul\":2894:3078   */\n    tag_134:\n        /* \"#utility.yul\":2993:3004   */\n      0x00\n        /* \"#utility.yul\":3027:3033   */\n      dup3\n        /* \"#utility.yul\":3022:3025   */\n      dup3\n        /* \"#utility.yul\":3015:3034   */\n      mstore\n        /* \"#utility.yul\":3067:3071   */\n      0x20\n        /* \"#utility.yul\":3062:3065   */\n      dup3\n        /* \"#utility.yul\":3058:3072   */\n      add\n        /* \"#utility.yul\":3043:3072   */\n      swap1\n      pop\n        /* \"#utility.yul\":2894:3078   */\n      swap3\n      swap2\n      pop\n      pop\n      jump\t// out\n        /* \"#utility.yul\":3084:3216   */\n    tag_135:\n        /* \"#utility.yul\":3151:3155   */\n      0x00\n        /* \"#utility.yul\":3174:3177   */\n      dup2\n        /* \"#utility.yul\":3166:3177   */\n      swap1\n      pop\n        /* \"#utility.yul\":3204:3208   */\n      0x20\n        /* \"#utility.yul\":3199:3202   */\n      dup3\n        /* \"#utility.yul\":3195:3209   */\n      add\n        /* \"#utility.yul\":3187:3209   */\n      swap1\n      pop\n        /* \"#utility.yul\":3084:3216   */\n      swap2\n      swap1\n      pop\n      jump\t// out\n        /* \"#utility.yul\":3222:3330   */\n    tag_136:\n        /* \"#utility.yul\":3299:3323   */\n      tag_196\n        /* \"#utility.yul\":3317:3322   */\n      dup2\n        /* \"#utility.yul\":3299:3323   */\n      tag_125\n      jump\t// in\n    tag_196:\n        /* \"#utility.yul\":3294:3297   */\n      dup3\n        /* \"#utility.yul\":3287:3324   */\n      mstore\n        /* \"#utility.yul\":3222:3330   */\n      pop\n      pop\n      jump\t// out\n        /* \"#utility.yul\":3336:3515   */\n    tag_137:\n        /* \"#utility.yul\":3405:3415   */\n      0x00\n        /* \"#utility.yul\":3426:3472   */\n      tag_198\n        /* \"#utility.yul\":3468:3471   */\n      dup4\n        /* \"#utility.yul\":3460:3466   */\n      dup4\n        /* \"#utility.yul\":3426:3472   */\n      tag_136\n      jump\t// in\n    tag_198:\n        /* \"#utility.yul\":3504:3508   */\n      0x20\n        /* \"#utility.yul\":3499:3502   */\n      dup4\n        /* \"#utility.yul\":3495:3509   */\n      add\n        /* \"#utility.yul\":3481:3509   */\n      swap1\n      pop\n        /* \"#utility.yul\":3336:3515   */\n      swap3\n      swap2\n      pop\n      pop\n      jump\t// out\n        /* \"#utility.yul\":3521:3634   */\n    tag_138:\n        /* \"#utility.yul\":3591:3595   */\n      0x00\n        /* \"#utility.yul\":3623:3627   */\n      0x20\n        /* \"#utility.yul\":3618:3621   */\n      dup3\n        /* \"#utility.yul\":3614:3628   */\n      add\n        /* \"#utility.yul\":3606:3628   */\n      swap1\n      pop\n        /* \"#utility.yul\":3521:3634   */\n      swap2\n      swap1\n      pop\n      jump\t// out\n        /* \"#utility.yul\":3670:4402   */\n    tag_139:\n        /* \"#utility.yul\":3789:3792   */\n      0x00\n        /* \"#utility.yul\":3818:3872   */\n      tag_201\n        /* \"#utility.yul\":3866:3871   */\n      dup3\n        /* \"#utility.yul\":3818:3872   */\n      tag_133\n      jump\t// in\n    tag_201:\n        /* \"#utility.yul\":3888:3974   */\n      tag_202\n        /* \"#utility.yul\":3967:3973   */\n      dup2\n        /* \"#utility.yul\":3962:3965   */\n      dup6\n        /* \"#utility.yul\":3888:3974   */\n      tag_134\n      jump\t// in\n    tag_202:\n        /* \"#utility.yul\":3881:3974   */\n      swap4\n      pop\n        /* \"#utility.yul\":3998:4054   */\n      tag_203\n        /* \"#utility.yul\":4048:4053   */\n      dup4\n        /* \"#utility.yul\":3998:4054   */\n      tag_135\n      jump\t// in\n    tag_203:\n        /* \"#utility.yul\":4077:4084   */\n      dup1\n        /* \"#utility.yul\":4108:4109   */\n      0x00\n        /* \"#utility.yul\":4093:4377   */\n    tag_204:\n        /* \"#utility.yul\":4118:4124   */\n      dup4\n        /* \"#utility.yul\":4115:4116   */\n      dup2\n        /* \"#utility.yul\":4112:4125   */\n      lt\n        /* \"#utility.yul\":4093:4377   */\n      iszero\n      tag_206\n      jumpi\n        /* \"#utility.yul\":4194:4200   */\n      dup2\n        /* \"#utility.yul\":4188:4201   */\n      mload\n        /* \"#utility.yul\":4221:4284   */\n      tag_207\n        /* \"#utility.yul\":4280:4283   */\n      dup9\n        /* \"#utility.yul\":4265:4278   */\n      dup3\n        /* \"#utility.yul\":4221:4284   */\n      tag_137\n      jump\t// in\n    tag_207:\n        /* \"#utility.yul\":4214:4284   */\n      swap8\n      pop\n        /* \"#utility.yul\":4307:4367   */\n      tag_208\n        /* \"#utility.yul\":4360:4366   */\n      dup4\n        /* \"#utility.yul\":4307:4367   */\n      tag_138\n      jump\t// in\n    tag_208:\n        /* \"#utility.yul\":4297:4367   */\n      swap3\n      pop\n        /* \"#utility.yul\":4153:4377   */\n      pop\n        /* \"#utility.yul\":4140:4141   */\n      0x01\n        /* \"#utility.yul\":4137:4138   */\n      dup2\n        /* \"#utility.yul\":4133:4142   */\n      add\n        /* \"#utility.yul\":4128:4142   */\n      swap1\n      pop\n        /* \"#utility.yul\":4093:4377   */\n      jump(tag_204)\n    tag_206:\n        /* \"#utility.yul\":4097:4111   */\n      pop\n        /* \"#utility.yul\":4393:4396   */\n      dup6\n        /* \"#utility.yul\":4386:4396   */\n      swap4\n      pop\n        /* \"#utility.yul\":3794:4402   */\n      pop\n      pop\n      pop\n        /* \"#utility.yul\":3670:4402   */\n      swap3\n      swap2\n      pop\n      pop\n      jump\t// out\n        /* \"#utility.yul\":4408:4781   */\n    tag_28:\n        /* \"#utility.yul\":4551:4555   */\n      0x00\n        /* \"#utility.yul\":4589:4591   */\n      0x20\n        /* \"#utility.yul\":4578:4587   */\n      dup3\n        /* \"#utility.yul\":4574:4592   */\n      add\n        /* \"#utility.yul\":4566:4592   */\n      swap1\n      pop\n        /* \"#utility.yul\":4638:4647   */\n      dup2\n        /* \"#utility.yul\":4632:4636   */\n      dup2\n        /* \"#utility.yul\":4628:4648   */\n      sub\n        /* \"#utility.yul\":4624:4625   */\n      0x00\n        /* \"#utility.yul\":4613:4622   */\n      dup4\n        /* \"#utility.yul\":4609:4626   */\n      add\n        /* \"#utility.yul\":4602:4649   */\n      mstore\n        /* \"#utility.yul\":4666:4774   */\n      tag_210\n        /* \"#utility.yul\":4769:4773   */\n      dup2\n        /* \"#utility.yul\":4760:4766   */\n      dup5\n        /* \"#utility.yul\":4666:4774   */\n      tag_139\n      jump\t// in\n    tag_210:\n        /* \"#utility.yul\":4658:4774   */\n      swap1\n      pop\n        /* \"#utility.yul\":4408:4781   */\n      swap3\n      swap2\n      pop\n      pop\n      jump\t// out\n        /* \"#utility.yul\":4787:5406   */\n    tag_31:\n        /* \"#utility.yul\":4864:4870   */\n      0x00\n        /* \"#utility.yul\":4872:4878   */\n      dup1\n        /* \"#utility.yul\":4880:4886   */\n      0x00\n        /* \"#utility.yul\":4929:4931   */\n      0x60\n        /* \"#utility.yul\":4917:4926   */\n      dup5\n        /* \"#utility.yul\":4908:4915   */\n      dup7\n        /* \"#utility.yul\":4904:4927   */\n      sub\n        /* \"#utility.yul\":4900:4932   */\n      slt\n        /* \"#utility.yul\":4897:5016   */\n      iszero\n      tag_212\n      jumpi\n        /* \"#utility.yul\":4935:5014   */\n      tag_213\n      tag_122\n      jump\t// in\n    tag_213:\n        /* \"#utility.yul\":4897:5016   */\n    tag_212:\n        /* \"#utility.yul\":5055:5056   */\n      0x00\n        /* \"#utility.yul\":5080:5133   */\n      tag_214\n        /* \"#utility.yul\":5125:5132   */\n      dup7\n        /* \"#utility.yul\":5116:5122   */\n      dup3\n        /* \"#utility.yul\":5105:5114   */\n      dup8\n        /* \"#utility.yul\":5101:5123   */\n      add\n        /* \"#utility.yul\":5080:5133   */\n      tag_127\n      jump\t// in\n    tag_214:\n        /* \"#utility.yul\":5070:5133   */\n      swap4\n      pop\n        /* \"#utility.yul\":5026:5143   */\n      pop\n        /* \"#utility.yul\":5182:5184   */\n      0x20\n        /* \"#utility.yul\":5208:5261   */\n      tag_215\n        /* \"#utility.yul\":5253:5260   */\n      dup7\n        /* \"#utility.yul\":5244:5250   */\n      dup3\n        /* \"#utility.yul\":5233:5242   */\n      dup8\n        /* \"#utility.yul\":5229:5251   */\n      add\n        /* \"#utility.yul\":5208:5261   */\n      tag_127\n      jump\t// in\n    tag_215:\n        /* \"#utility.yul\":5198:5261   */\n      swap3\n      pop\n        /* \"#utility.yul\":5153:5271   */\n      pop\n        /* \"#utility.yul\":5310:5312   */\n      0x40\n        /* \"#utility.yul\":5336:5389   */\n      tag_216\n        /* \"#utility.yul\":5381:5388   */\n      dup7\n        /* \"#utility.yul\":5372:5378   */\n      dup3\n        /* \"#utility.yul\":5361:5370   */\n      dup8\n        /* \"#utility.yul\":5357:5379   */\n      add\n        /* \"#utility.yul\":5336:5389   */\n      tag_127\n      jump\t// in\n    tag_216:\n        /* \"#utility.yul\":5326:5389   */\n      swap2\n      pop\n        /* \"#utility.yul\":5281:5399   */\n      pop\n        /* \"#utility.yul\":4787:5406   */\n      swap3\n      pop\n      swap3\n      pop\n      swap3\n      jump\t// out\n        /* \"#utility.yul\":5412:5530   */\n    tag_140:\n        /* \"#utility.yul\":5499:5523   */\n      tag_218\n        /* \"#utility.yul\":5517:5522   */\n      dup2\n        /* \"#utility.yul\":5499:5523   */\n      tag_128\n      jump\t// in\n    tag_218:\n        /* \"#utility.yul\":5494:5497   */\n      dup3\n        /* \"#utility.yul\":5487:5524   */\n      mstore\n        /* \"#utility.yul\":5412:5530   */\n      pop\n      pop\n      jump\t// out\n        /* \"#utility.yul\":5536:5758   */\n    tag_36:\n        /* \"#utility.yul\":5629:5633   */\n      0x00\n        /* \"#utility.yul\":5667:5669   */\n      0x20\n        /* \"#utility.yul\":5656:5665   */\n      dup3\n        /* \"#utility.yul\":5652:5670   */\n      add\n        /* \"#utility.yul\":5644:5670   */\n      swap1\n      pop\n        /* \"#utility.yul\":5680:5751   */\n      tag_220\n        /* \"#utility.yul\":5748:5749   */\n      0x00\n        /* \"#utility.yul\":5737:5746   */\n      dup4\n        /* \"#utility.yul\":5733:5750   */\n      add\n        /* \"#utility.yul\":5724:5730   */\n      dup5\n        /* \"#utility.yul\":5680:5751   */\n      tag_140\n      jump\t// in\n    tag_220:\n        /* \"#utility.yul\":5536:5758   */\n      swap3\n      swap2\n      pop\n      pop\n      jump\t// out\n        /* \"#utility.yul\":5764:6383   */\n    tag_39:\n        /* \"#utility.yul\":5841:5847   */\n      0x00\n        /* \"#utility.yul\":5849:5855   */\n      dup1\n        /* \"#utility.yul\":5857:5863   */\n      0x00\n        /* \"#utility.yul\":5906:5908   */\n      0x60\n        /* \"#utility.yul\":5894:5903   */\n      dup5\n        /* \"#utility.yul\":5885:5892   */\n      dup7\n        /* \"#utility.yul\":5881:5904   */\n      sub\n        /* \"#utility.yul\":5877:5909   */\n      slt\n        /* \"#utility.yul\":5874:5993   */\n      iszero\n      tag_222\n      jumpi\n        /* \"#utility.yul\":5912:5991   */\n      tag_223\n      tag_122\n      jump\t// in\n    tag_223:\n        /* \"#utility.yul\":5874:5993   */\n    tag_222:\n        /* \"#utility.yul\":6032:6033   */\n      0x00\n        /* \"#utility.yul\":6057:6110   */\n      tag_224\n        /* \"#utility.yul\":6102:6109   */\n      dup7\n        /* \"#utility.yul\":6093:6099   */\n      dup3\n        /* \"#utility.yul\":6082:6091   */\n      dup8\n        /* \"#utility.yul\":6078:6100   */\n      add\n        /* \"#utility.yul\":6057:6110   */\n      tag_127\n      jump\t// in\n    tag_224:\n        /* \"#utility.yul\":6047:6110   */\n      swap4\n      pop\n        /* \"#utility.yul\":6003:6120   */\n      pop\n        /* \"#utility.yul\":6159:6161   */\n      0x20\n        /* \"#utility.yul\":6185:6238   */\n      tag_225\n        /* \"#utility.yul\":6230:6237   */\n      dup7\n        /* \"#utility.yul\":6221:6227   */\n      dup3\n        /* \"#utility.yul\":6210:6219   */\n      dup8\n        /* \"#utility.yul\":6206:6228   */\n      add\n        /* \"#utility.yul\":6185:6238   */\n      tag_127\n      jump\t// in\n    tag_225:\n        /* \"#utility.yul\":6175:6238   */\n      swap3\n      pop\n        /* \"#utility.yul\":6130:6248   */\n      pop\n        /* \"#utility.yul\":6287:6289   */\n      0x40\n        /* \"#utility.yul\":6313:6366   */\n      tag_226\n        /* \"#utility.yul\":6358:6365   */\n      dup7\n        /* \"#utility.yul\":6349:6355   */\n      dup3\n        /* \"#utility.yul\":6338:6347   */\n      dup8\n        /* \"#utility.yul\":6334:6356   */\n      add\n        /* \"#utility.yul\":6313:6366   */\n      tag_130\n      jump\t// in\n    tag_226:\n        /* \"#utility.yul\":6303:6366   */\n      swap2\n      pop\n        /* \"#utility.yul\":6258:6376   */\n      pop\n        /* \"#utility.yul\":5764:6383   */\n      swap3\n      pop\n      swap3\n      pop\n      swap3\n      jump\t// out\n        /* \"#utility.yul\":6389:6558   */\n    tag_141:\n        /* \"#utility.yul\":6473:6484   */\n      0x00\n        /* \"#utility.yul\":6507:6513   */\n      dup3\n        /* \"#utility.yul\":6502:6505   */\n      dup3\n        /* \"#utility.yul\":6495:6514   */\n      mstore\n        /* \"#utility.yul\":6547:6551   */\n      0x20\n        /* \"#utility.yul\":6542:6545   */\n      dup3\n        /* \"#utility.yul\":6538:6552   */\n      add\n        /* \"#utility.yul\":6523:6552   */\n      swap1\n      pop\n        /* \"#utility.yul\":6389:6558   */\n      swap3\n      swap2\n      pop\n      pop\n      jump\t// out\n        /* \"#utility.yul\":6564:6719   */\n    tag_142:\n        /* \"#utility.yul\":6704:6711   */\n      0x4753323033000000000000000000000000000000000000000000000000000000\n        /* \"#utility.yul\":6700:6701   */\n      0x00\n        /* \"#utility.yul\":6692:6698   */\n      dup3\n        /* \"#utility.yul\":6688:6702   */\n      add\n        /* \"#utility.yul\":6681:6712   */\n      mstore\n        /* \"#utility.yul\":6564:6719   */\n      pop\n      jump\t// out\n        /* \"#utility.yul\":6725:7090   */\n    tag_143:\n        /* \"#utility.yul\":6867:6870   */\n      0x00\n        /* \"#utility.yul\":6888:6954   */\n      tag_230\n        /* \"#utility.yul\":6952:6953   */\n      0x05\n        /* \"#utility.yul\":6947:6950   */\n      dup4\n        /* \"#utility.yul\":6888:6954   */\n      tag_141\n      jump\t// in\n    tag_230:\n        /* \"#utility.yul\":6881:6954   */\n      swap2\n      pop\n        /* \"#utility.yul\":6963:7056   */\n      tag_231\n        /* \"#utility.yul\":7052:7055   */\n      dup3\n        /* \"#utility.yul\":6963:7056   */\n      tag_142\n      jump\t// in\n    tag_231:\n        /* \"#utility.yul\":7081:7083   */\n      0x20\n        /* \"#utility.yul\":7076:7079   */\n      dup3\n        /* \"#utility.yul\":7072:7084   */\n      add\n        /* \"#utility.yul\":7065:7084   */\n      swap1\n      pop\n        /* \"#utility.yul\":6725:7090   */\n      swap2\n      swap1\n      pop\n      jump\t// out\n        /* \"#utility.yul\":7096:7515   */\n    tag_49:\n        /* \"#utility.yul\":7262:7266   */\n      0x00\n        /* \"#utility.yul\":7300:7302   */\n      0x20\n        /* \"#utility.yul\":7289:7298   */\n      dup3\n        /* \"#utility.yul\":7285:7303   */\n      add\n        /* \"#utility.yul\":7277:7303   */\n      swap1\n      pop\n        /* \"#utility.yul\":7349:7358   */\n      dup2\n        /* \"#utility.yul\":7343:7347   */\n      dup2\n        /* \"#utility.yul\":7339:7359   */\n      sub\n        /* \"#utility.yul\":7335:7336   */\n      0x00\n        /* \"#utility.yul\":7324:7333   */\n      dup4\n        /* \"#utility.yul\":7320:7337   */\n      add\n        /* \"#utility.yul\":7313:7360   */\n      mstore\n        /* \"#utility.yul\":7377:7508   */\n      tag_233\n        /* \"#utility.yul\":7503:7507   */\n      dup2\n        /* \"#utility.yul\":7377:7508   */\n      tag_143\n      jump\t// in\n    tag_233:\n        /* \"#utility.yul\":7369:7508   */\n      swap1\n      pop\n        /* \"#utility.yul\":7096:7515   */\n      swap2\n      swap1\n      pop\n      jump\t// out\n        /* \"#utility.yul\":7521:7676   */\n    tag_144:\n        /* \"#utility.yul\":7661:7668   */\n      0x4753323034000000000000000000000000000000000000000000000000000000\n        /* \"#utility.yul\":7657:7658   */\n      0x00\n        /* \"#utility.yul\":7649:7655   */\n      dup3\n        /* \"#utility.yul\":7645:7659   */\n      add\n        /* \"#utility.yul\":7638:7669   */\n      mstore\n        /* \"#utility.yul\":7521:7676   */\n      pop\n      jump\t// out\n        /* \"#utility.yul\":7682:8047   */\n    tag_145:\n        /* \"#utility.yul\":7824:7827   */\n      0x00\n        /* \"#utility.yul\":7845:7911   */\n      tag_236\n        /* \"#utility.yul\":7909:7910   */\n      0x05\n        /* \"#utility.yul\":7904:7907   */\n      dup4\n        /* \"#utility.yul\":7845:7911   */\n      tag_141\n      jump\t// in\n    tag_236:\n        /* \"#utility.yul\":7838:7911   */\n      swap2\n      pop\n        /* \"#utility.yul\":7920:8013   */\n      tag_237\n        /* \"#utility.yul\":8009:8012   */\n      dup3\n        /* \"#utility.yul\":7920:8013   */\n      tag_144\n      jump\t// in\n    tag_237:\n        /* \"#utility.yul\":8038:8040   */\n      0x20\n        /* \"#utility.yul\":8033:8036   */\n      dup3\n        /* \"#utility.yul\":8029:8041   */\n      add\n        /* \"#utility.yul\":8022:8041   */\n      swap1\n      pop\n        /* \"#utility.yul\":7682:8047   */\n      swap2\n      swap1\n      pop\n      jump\t// out\n        /* \"#utility.yul\":8053:8472   */\n    tag_52:\n        /* \"#utility.yul\":8219:8223   */\n      0x00\n        /* \"#utility.yul\":8257:8259   */\n      0x20\n        /* \"#utility.yul\":8246:8255   */\n      dup3\n        /* \"#utility.yul\":8242:8260   */\n      add\n        /* \"#utility.yul\":8234:8260   */\n      swap1\n      pop\n        /* \"#utility.yul\":8306:8315   */\n      dup2\n        /* \"#utility.yul\":8300:8304   */\n      dup2\n        /* \"#utility.yul\":8296:8316   */\n      sub\n        /* \"#utility.yul\":8292:8293   */\n      0x00\n        /* \"#utility.yul\":8281:8290   */\n      dup4\n        /* \"#utility.yul\":8277:8294   */\n      add\n        /* \"#utility.yul\":8270:8317   */\n      mstore\n        /* \"#utility.yul\":8334:8465   */\n      tag_239\n        /* \"#utility.yul\":8460:8464   */\n      dup2\n        /* \"#utility.yul\":8334:8465   */\n      tag_145\n      jump\t// in\n    tag_239:\n        /* \"#utility.yul\":8326:8465   */\n      swap1\n      pop\n        /* \"#utility.yul\":8053:8472   */\n      swap2\n      swap1\n      pop\n      jump\t// out\n        /* \"#utility.yul\":8478:8658   */\n    tag_146:\n        /* \"#utility.yul\":8526:8603   */\n      0x4e487b7100000000000000000000000000000000000000000000000000000000\n        /* \"#utility.yul\":8523:8524   */\n      0x00\n        /* \"#utility.yul\":8516:8604   */\n      mstore\n        /* \"#utility.yul\":8623:8627   */\n      0x11\n        /* \"#utility.yul\":8620:8621   */\n      0x04\n        /* \"#utility.yul\":8613:8628   */\n      mstore\n        /* \"#utility.yul\":8647:8651   */\n      0x24\n        /* \"#utility.yul\":8644:8645   */\n      0x00\n        /* \"#utility.yul\":8637:8652   */\n      revert\n        /* \"#utility.yul\":8664:8897   */\n    tag_54:\n        /* \"#utility.yul\":8703:8706   */\n      0x00\n        /* \"#utility.yul\":8726:8750   */\n      tag_242\n        /* \"#utility.yul\":8744:8749   */\n      dup3\n        /* \"#utility.yul\":8726:8750   */\n      tag_128\n      jump\t// in\n    tag_242:\n        /* \"#utility.yul\":8717:8750   */\n      swap2\n      pop\n        /* \"#utility.yul\":8772:8838   */\n      0xffffffffffffffffffffffffffffffffffffffffffffffffffffffffffffffff\n        /* \"#utility.yul\":8765:8770   */\n      dup3\n        /* \"#utility.yul\":8762:8839   */\n      sub\n        /* \"#utility.yul\":8759:8862   */\n      tag_243\n      jumpi\n        /* \"#utility.yul\":8842:8860   */\n      tag_244\n      tag_146\n      jump\t// in\n    tag_244:\n        /* \"#utility.yul\":8759:8862   */\n    tag_243:\n        /* \"#utility.yul\":8889:8890   */\n      0x01\n        /* \"#utility.yul\":8882:8887   */\n      dup3\n        /* \"#utility.yul\":8878:8891   */\n      add\n        /* \"#utility.yul\":8871:8891   */\n      swap1\n      pop\n        /* \"#utility.yul\":8664:8897   */\n      swap2\n      swap1\n      pop\n      jump\t// out\n        /* \"#utility.yul\":8903:9021   */\n    tag_147:\n        /* \"#utility.yul\":8990:9014   */\n      tag_246\n        /* \"#utility.yul\":9008:9013   */\n      dup2\n        /* \"#utility.yul\":8990:9014   */\n      tag_125\n      jump\t// in\n    tag_246:\n        /* \"#utility.yul\":8985:8988   */\n      dup3\n        /* \"#utility.yul\":8978:9015   */\n      mstore\n        /* \"#utility.yul\":8903:9021   */\n      pop\n      pop\n      jump\t// out\n        /* \"#utility.yul\":9027:9249   */\n    tag_56:\n        /* \"#utility.yul\":9120:9124   */\n      0x00\n        /* \"#utility.yul\":9158:9160   */\n      0x20\n        /* \"#utility.yul\":9147:9156   */\n      dup3\n        /* \"#utility.yul\":9143:9161   */\n      add\n        /* \"#utility.yul\":9135:9161   */\n      swap1\n      pop\n        /* \"#utility.yul\":9171:9242   */\n      tag_248\n        /* \"#utility.yul\":9239:9240   */\n      0x00\n        /* \"#utility.yul\":9228:9237   */\n      dup4\n        /* \"#utility.yul\":9224:9241   */\n      add\n        /* \"#utility.yul\":9215:9221   */\n      dup5\n        /* \"#utility.yul\":9171:9242   */\n      tag_147\n      jump\t// in\n    tag_248:\n        /* \"#utility.yul\":9027:9249   */\n      swap3\n      swap2\n      pop\n      pop\n      jump\t// out\n        /* \"#utility.yul\":9255:9410   */\n    tag_148:\n        /* \"#utility.yul\":9395:9402   */\n      0x4753323031000000000000000000000000000000000000000000000000000000\n        /* \"#utility.yul\":9391:9392   */\n      0x00\n        /* \"#utility.yul\":9383:9389   */\n      dup3\n        /* \"#utility.yul\":9379:9393   */\n      add\n        /* \"#utility.yul\":9372:9403   */\n      mstore\n        /* \"#utility.yul\":9255:9410   */\n      pop\n      jump\t// out\n        /* \"#utility.yul\":9416:9781   */\n    tag_149:\n        /* \"#utility.yul\":9558:9561   */\n      0x00\n        /* \"#utility.yul\":9579:9645   */\n      tag_251\n        /* \"#utility.yul\":9643:9644   */\n      0x05\n        /* \"#utility.yul\":9638:9641   */\n      dup4\n        /* \"#utility.yul\":9579:9645   */\n      tag_141\n      jump\t// in\n    tag_251:\n        /* \"#utility.yul\":9572:9645   */\n      swap2\n      pop\n        /* \"#utility.yul\":9654:9747   */\n      tag_252\n        /* \"#utility.yul\":9743:9746   */\n      dup3\n        /* \"#utility.yul\":9654:9747   */\n      tag_148\n      jump\t// in\n    tag_252:\n        /* \"#utility.yul\":9772:9774   */\n      0x20\n        /* \"#utility.yul\":9767:9770   */\n      dup3\n        /* \"#utility.yul\":9763:9775   */\n      add\n        /* \"#utility.yul\":9756:9775   */\n      swap1\n      pop\n        /* \"#utility.yul\":9416:9781   */\n      swap2\n      swap1\n      pop\n      jump\t// out\n        /* \"#utility.yul\":9787:10206   */\n    tag_66:\n        /* \"#utility.yul\":9953:9957   */\n      0x00\n        /* \"#utility.yul\":9991:9993   */\n      0x20\n        /* \"#utility.yul\":9980:9989   */\n      dup3\n        /* \"#utility.yul\":9976:9994   */\n      add\n        /* \"#utility.yul\":9968:9994   */\n      swap1\n      pop\n        /* \"#utility.yul\":10040:10049   */\n      dup2\n        /* \"#utility.yul\":10034:10038   */\n      dup2\n        /* \"#utility.yul\":10030:10050   */\n      sub\n        /* \"#utility.yul\":10026:10027   */\n      0x00\n        /* \"#utility.yul\":10015:10024   */\n      dup4\n        /* \"#utility.yul\":10011:10028   */\n      add\n        /* \"#utility.yul\":10004:10051   */\n      mstore\n        /* \"#utility.yul\":10068:10199   */\n      tag_254\n        /* \"#utility.yul\":10194:10198   */\n      dup2\n        /* \"#utility.yul\":10068:10199   */\n      tag_149\n      jump\t// in\n    tag_254:\n        /* \"#utility.yul\":10060:10199   */\n      swap1\n      pop\n        /* \"#utility.yul\":9787:10206   */\n      swap2\n      swap1\n      pop\n      jump\t// out\n        /* \"#utility.yul\":10212:10367   */\n    tag_150:\n        /* \"#utility.yul\":10352:10359   */\n      0x4753323032000000000000000000000000000000000000000000000000000000\n        /* \"#utility.yul\":10348:10349   */\n      0x00\n        /* \"#utility.yul\":10340:10346   */\n      dup3\n        /* \"#utility.yul\":10336:10350   */\n      add\n        /* \"#utility.yul\":10329:10360   */\n      mstore\n        /* \"#utility.yul\":10212:10367   */\n      pop\n      jump\t// out\n        /* \"#utility.yul\":10373:10738   */\n    tag_151:\n        /* \"#utility.yul\":10515:10518   */\n      0x00\n        /* \"#utility.yul\":10536:10602   */\n      tag_257\n        /* \"#utility.yul\":10600:10601   */\n      0x05\n        /* \"#utility.yul\":10595:10598   */\n      dup4\n        /* \"#utility.yul\":10536:10602   */\n      tag_141\n      jump\t// in\n    tag_257:\n        /* \"#utility.yul\":10529:10602   */\n      swap2\n      pop\n        /* \"#utility.yul\":10611:10704   */\n      tag_258\n        /* \"#utility.yul\":10700:10703   */\n      dup3\n        /* \"#utility.yul\":10611:10704   */\n      tag_150\n      jump\t// in\n    tag_258:\n        /* \"#utility.yul\":10729:10731   */\n      0x20\n        /* \"#utility.yul\":10724:10727   */\n      dup3\n        /* \"#utility.yul\":10720:10732   */\n      add\n        /* \"#utility.yul\":10713:10732   */\n      swap1\n      pop\n        /* \"#utility.yul\":10373:10738   */\n      swap2\n      swap1\n      pop\n      jump\t// out\n        /* \"#utility.yul\":10744:11163   */\n    tag_69:\n        /* \"#utility.yul\":10910:10914   */\n      0x00\n        /* \"#utility.yul\":10948:10950   */\n      0x20\n        /* \"#utility.yul\":10937:10946   */\n      dup3\n        /* \"#utility.yul\":10933:10951   */\n      add\n        /* \"#utility.yul\":10925:10951   */\n      swap1\n      pop\n        /* \"#utility.yul\":10997:11006   */\n      dup2\n        /* \"#utility.yul\":10991:10995   */\n      dup2\n        /* \"#utility.yul\":10987:11007   */\n      sub\n        /* \"#utility.yul\":10983:10984   */\n      0x00\n        /* \"#utility.yul\":10972:10981   */\n      dup4\n        /* \"#utility.yul\":10968:10985   */\n      add\n        /* \"#utility.yul\":10961:11008   */\n      mstore\n        /* \"#utility.yul\":11025:11156   */\n      tag_260\n        /* \"#utility.yul\":11151:11155   */\n      dup2\n        /* \"#utility.yul\":11025:11156   */\n      tag_151\n      jump\t// in\n    tag_260:\n        /* \"#utility.yul\":11017:11156   */\n      swap1\n      pop\n        /* \"#utility.yul\":10744:11163   */\n      swap2\n      swap1\n      pop\n      jump\t// out\n        /* \"#utility.yul\":11169:11349   */\n    tag_74:\n        /* \"#utility.yul\":11217:11294   */\n      0x4e487b7100000000000000000000000000000000000000000000000000000000\n        /* \"#utility.yul\":11214:11215   */\n      0x00\n        /* \"#utility.yul\":11207:11295   */\n      mstore\n        /* \"#utility.yul\":11314:11318   */\n      0x41\n        /* \"#utility.yul\":11311:11312   */\n      0x04\n        /* \"#utility.yul\":11304:11319   */\n      mstore\n        /* \"#utility.yul\":11338:11342   */\n      0x24\n        /* \"#utility.yul\":11335:11336   */\n      0x00\n        /* \"#utility.yul\":11328:11343   */\n      revert\n        /* \"#utility.yul\":11355:11535   */\n    tag_80:\n        /* \"#utility.yul\":11403:11480   */\n      0x4e487b7100000000000000000000000000000000000000000000000000000000\n        /* \"#utility.yul\":11400:11401   */\n      0x00\n        /* \"#utility.yul\":11393:11481   */\n      mstore\n        /* \"#utility.yul\":11500:11504   */\n      0x32\n        /* \"#utility.yul\":11497:11498   */\n      0x04\n        /* \"#utility.yul\":11490:11505   */\n      mstore\n        /* \"#utility.yul\":11524:11528   */\n      0x24\n        /* \"#utility.yul\":11521:11522   */\n      0x00\n        /* \"#utility.yul\":11514:11529   */\n      revert\n        /* \"#utility.yul\":11541:11696   */\n    tag_152:\n        /* \"#utility.yul\":11681:11688   */\n      0x4753323035000000000000000000000000000000000000000000000000000000\n        /* \"#utility.yul\":11677:11678   */\n      0x00\n        /* \"#utility.yul\":11669:11675   */\n      dup3\n        /* \"#utility.yul\":11665:11679   */\n      add\n        /* \"#utility.yul\":11658:11689   */\n      mstore\n        /* \"#utility.yul\":11541:11696   */\n      pop\n      jump\t// out\n        /* \"#utility.yul\":11702:12067   */\n    tag_153:\n        /* \"#utility.yul\":11844:11847   */\n      0x00\n        /* \"#utility.yul\":11865:11931   */\n      tag_265\n        /* \"#utility.yul\":11929:11930   */\n      0x05\n        /* \"#utility.yul\":11924:11927   */\n      dup4\n        /* \"#utility.yul\":11865:11931   */\n      tag_141\n      jump\t// in\n    tag_265:\n        /* \"#utility.yul\":11858:11931   */\n      swap2\n      pop\n        /* \"#utility.yul\":11940:12033   */\n      tag_266\n        /* \"#utility.yul\":12029:12032   */\n      dup3\n        /* \"#utility.yul\":11940:12033   */\n      tag_152\n      jump\t// in\n    tag_266:\n        /* \"#utility.yul\":12058:12060   */\n      0x20\n        /* \"#utility.yul\":12053:12056   */\n      dup3\n        /* \"#utility.yul\":12049:12061   */\n      add\n        /* \"#utility.yul\":12042:12061   */\n      swap1\n      pop\n        /* \"#utility.yul\":11702:12067   */\n      swap2\n      swap1\n      pop\n      jump\t// out\n        /* \"#utility.yul\":12073:12492   */\n    tag_96:\n        /* \"#utility.yul\":12239:12243   */\n      0x00\n        /* \"#utility.yul\":12277:12279   */\n      0x20\n        /* \"#utility.yul\":12266:12275   */\n      dup3\n        /* \"#utility.yul\":12262:12280   */\n      add\n        /* \"#utility.yul\":12254:12280   */\n      swap1\n      pop\n        /* \"#utility.yul\":12326:12335   */\n      dup2\n        /* \"#utility.yul\":12320:12324   */\n      dup2\n        /* \"#utility.yul\":12316:12336   */\n      sub\n        /* \"#utility.yul\":12312:12313   */\n      0x00\n        /* \"#utility.yul\":12301:12310   */\n      dup4\n        /* \"#utility.yul\":12297:12314   */\n      add\n        /* \"#utility.yul\":12290:12337   */\n      mstore\n        /* \"#utility.yul\":12354:12485   */\n      tag_268\n        /* \"#utility.yul\":12480:12484   */\n      dup2\n        /* \"#utility.yul\":12354:12485   */\n      tag_153\n      jump\t// in\n    tag_268:\n        /* \"#utility.yul\":12346:12485   */\n      swap1\n      pop\n        /* \"#utility.yul\":12073:12492   */\n      swap2\n      swap1\n      pop\n      jump\t// out\n        /* \"#utility.yul\":12498:12692   */\n    tag_104:\n        /* \"#utility.yul\":12538:12542   */\n      0x00\n        /* \"#utility.yul\":12558:12578   */\n      tag_270\n        /* \"#utility.yul\":12576:12577   */\n      dup3\n        /* \"#utility.yul\":12558:12578   */\n      tag_128\n      jump\t// in\n    tag_270:\n        /* \"#utility.yul\":12553:12578   */\n      swap2\n      pop\n        /* \"#utility.yul\":12592:12612   */\n      tag_271\n        /* \"#utility.yul\":12610:12611   */\n      dup4\n        /* \"#utility.yul\":12592:12612   */\n      tag_128\n      jump\t// in\n    tag_271:\n        /* \"#utility.yul\":12587:12612   */\n      swap3\n      pop\n        /* \"#utility.yul\":12636:12637   */\n      dup3\n        /* \"#utility.yul\":12633:12634   */\n      dup3\n        /* \"#utility.yul\":12629:12638   */\n      sub\n        /* \"#utility.yul\":12621:12638   */\n      swap1\n      pop\n        /* \"#utility.yul\":12660:12661   */\n      dup2\n        /* \"#utility.yul\":12654:12658   */\n      dup2\n        /* \"#utility.yul\":12651:12662   */\n      gt\n        /* \"#utility.yul\":12648:12685   */\n      iszero\n      tag_272\n      jumpi\n        /* \"#utility.yul\":12665:12683   */\n      tag_273\n      tag_146\n      jump\t// in\n    tag_273:\n        /* \"#utility.yul\":12648:12685   */\n    tag_272:\n        /* \"#utility.yul\":12498:12692   */\n      swap3\n      swap2\n      pop\n      pop\n      jump\t// out\n        /* \"#utility.yul\":12698:12869   */\n    tag_113:\n        /* \"#utility.yul\":12737:12740   */\n      0x00\n        /* \"#utility.yul\":12760:12784   */\n      tag_275\n        /* \"#utility.yul\":12778:12783   */\n      dup3\n        /* \"#utility.yul\":12760:12784   */\n      tag_128\n      jump\t// in\n    tag_275:\n        /* \"#utility.yul\":12751:12784   */\n      swap2\n      pop\n        /* \"#utility.yul\":12806:12810   */\n      0x00\n        /* \"#utility.yul\":12799:12804   */\n      dup3\n        /* \"#utility.yul\":12796:12811   */\n      sub\n        /* \"#utility.yul\":12793:12834   */\n      tag_276\n      jumpi\n        /* \"#utility.yul\":12814:12832   */\n      tag_277\n      tag_146\n      jump\t// in\n    tag_277:\n        /* \"#utility.yul\":12793:12834   */\n    tag_276:\n        /* \"#utility.yul\":12861:12862   */\n      0x01\n        /* \"#utility.yul\":12854:12859   */\n      dup3\n        /* \"#utility.yul\":12850:12863   */\n      sub\n        /* \"#utility.yul\":12843:12863   */\n      swap1\n      pop\n        /* \"#utility.yul\":12698:12869   */\n      swap2\n      swap1\n      pop\n      jump\t// out\n        /* \"#utility.yul\":12875:13030   */\n    tag_154:\n        /* \"#utility.yul\":13015:13022   */\n      0x4753303331000000000000000000000000000000000000000000000000000000\n        /* \"#utility.yul\":13011:13012   */\n      0x00\n        /* \"#utility.yul\":13003:13009   */\n      dup3\n        /* \"#utility.yul\":12999:13013   */\n      add\n        /* \"#utility.yul\":12992:13023   */\n      mstore\n        /* \"#utility.yul\":12875:13030   */\n      pop\n      jump\t// out\n        /* \"#utility.yul\":13036:13401   */\n    tag_155:\n        /* \"#utility.yul\":13178:13181   */\n      0x00\n        /* \"#utility.yul\":13199:13265   */\n      tag_280\n        /* \"#utility.yul\":13263:13264   */\n      0x05\n        /* \"#utility.yul\":13258:13261   */\n      dup4\n        /* \"#utility.yul\":13199:13265   */\n      tag_141\n      jump\t// in\n    tag_280:\n        /* \"#utility.yul\":13192:13265   */\n      swap2\n      pop\n        /* \"#utility.yul\":13274:13367   */\n      tag_281\n        /* \"#utility.yul\":13363:13366   */\n      dup3\n        /* \"#utility.yul\":13274:13367   */\n      tag_154\n      jump\t// in\n    tag_281:\n        /* \"#utility.yul\":13392:13394   */\n      0x20\n        /* \"#utility.yul\":13387:13390   */\n      dup3\n        /* \"#utility.yul\":13383:13395   */\n      add\n        /* \"#utility.yul\":13376:13395   */\n      swap1\n      pop\n        /* \"#utility.yul\":13036:13401   */\n      swap2\n      swap1\n      pop\n      jump\t// out\n        /* \"#utility.yul\":13407:13826   */\n    tag_120:\n        /* \"#utility.yul\":13573:13577   */\n      0x00\n        /* \"#utility.yul\":13611:13613   */\n      0x20\n        /* \"#utility.yul\":13600:13609   */\n      dup3\n        /* \"#utility.yul\":13596:13614   */\n      add\n        /* \"#utility.yul\":13588:13614   */\n      swap1\n      pop\n        /* \"#utility.yul\":13660:13669   */\n      dup2\n        /* \"#utility.yul\":13654:13658   */\n      dup2\n        /* \"#utility.yul\":13650:13670   */\n      sub\n        /* \"#utility.yul\":13646:13647   */\n      0x00\n        /* \"#utility.yul\":13635:13644   */\n      dup4\n        /* \"#utility.yul\":13631:13648   */\n      add\n        /* \"#utility.yul\":13624:13671   */\n      mstore\n        /* \"#utility.yul\":13688:13819   */\n      tag_283\n        /* \"#utility.yul\":13814:13818   */\n      dup2\n        /* \"#utility.yul\":13688:13819   */\n      tag_155\n      jump\t// in\n    tag_283:\n        /* \"#utility.yul\":13680:13819   */\n      swap1\n      pop\n        /* \"#utility.yul\":13407:13826   */\n      swap2\n      swap1\n      pop\n      jump\t// out\n\n    auxdata: 0xa26469706673582212201a4a72025ee9e853554ea13bc0cc3a5360d3991bd115e13971db19fcb96a928864736f6c63430008180033\n}\n",
				"bytecode": {
					"linkReferences": {},
					"object": "608060405234801561000f575f80fd5b506118628061001d5f395ff3fe608060405234801561000f575f80fd5b506004361061007b575f3560e01c8063a0e67e2b11610059578063a0e67e2b146100e7578063e318b52b14610105578063e75235b814610121578063f8dc5dd91461013f5761007b565b80630d582f131461007f5780632f54bf6e1461009b578063694e80c3146100cb575b5f80fd5b610099600480360381019061009491906111f6565b61015b565b005b6100b560048036038101906100b09190611234565b6104c2565b6040516100c29190611279565b60405180910390f35b6100e560048036038101906100e09190611292565b61058e565b005b6100ef610662565b6040516100fc9190611374565b60405180910390f35b61011f600480360381019061011a9190611394565b610810565b005b610129610d6e565b60405161013691906113f3565b60405180910390f35b6101596004803603810190610154919061140c565b610d77565b005b6101636110f5565b5f73ffffffffffffffffffffffffffffffffffffffff168273ffffffffffffffffffffffffffffffffffffffff16141580156101cc5750600173ffffffffffffffffffffffffffffffffffffffff168273ffffffffffffffffffffffffffffffffffffffff1614155b801561020457503073ffffffffffffffffffffffffffffffffffffffff168273ffffffffffffffffffffffffffffffffffffffff1614155b610243576040517f08c379a000000000000000000000000000000000000000000000000000000000815260040161023a906114b6565b60405180910390fd5b5f73ffffffffffffffffffffffffffffffffffffffff165f808473ffffffffffffffffffffffffffffffffffffffff1673ffffffffffffffffffffffffffffffffffffffff1681526020019081526020015f205f9054906101000a900473ffffffffffffffffffffffffffffffffffffffff1673ffffffffffffffffffffffffffffffffffffffff161461030c576040517f08c379a00000000000000000000000000000000000000000000000000000000081526004016103039061151e565b60405180910390fd5b5f80600173ffffffffffffffffffffffffffffffffffffffff1673ffffffffffffffffffffffffffffffffffffffff1681526020019081526020015f205f9054906101000a900473ffffffffffffffffffffffffffffffffffffffff165f808473ffffffffffffffffffffffffffffffffffffffff1673ffffffffffffffffffffffffffffffffffffffff1681526020019081526020015f205f6101000a81548173ffffffffffffffffffffffffffffffffffffffff021916908373ffffffffffffffffffffffffffffffffffffffff160217905550815f80600173ffffffffffffffffffffffffffffffffffffffff1673ffffffffffffffffffffffffffffffffffffffff1681526020019081526020015f205f6101000a81548173ffffffffffffffffffffffffffffffffffffffff021916908373ffffffffffffffffffffffffffffffffffffffff16021790555060015f81548092919061046f90611569565b91905055507f9465fa0c962cc76958e6373a993326400c1c94f8be2fe3a952adfa7f60b2ea26826040516104a391906115bf565b60405180910390a180600254146104be576104bd8161058e565b5b5050565b5f600173ffffffffffffffffffffffffffffffffffffffff168273ffffffffffffffffffffffffffffffffffffffff161415801561058757505f73ffffffffffffffffffffffffffffffffffffffff165f808473ffffffffffffffffffffffffffffffffffffffff1673ffffffffffffffffffffffffffffffffffffffff1681526020019081526020015f205f9054906101000a900473ffffffffffffffffffffffffffffffffffffffff1673ffffffffffffffffffffffffffffffffffffffff1614155b9050919050565b6105966110f5565b6001548111156105db576040517f08c379a00000000000000000000000000000000000000000000000000000000081526004016105d290611622565b60405180910390fd5b600181101561061f576040517f08c379a00000000000000000000000000000000000000000000000000000000081526004016106169061168a565b60405180910390fd5b806002819055507f610f7ff2b304ae8903c3de74c60c6ab1f7d6226b3f52c5161905bb5ad4039c9360025460405161065791906113f3565b60405180910390a150565b60605f60015467ffffffffffffffff811115610681576106806116a8565b5b6040519080825280602002602001820160405280156106af5781602001602082028036833780820191505090505b5090505f80805f600173ffffffffffffffffffffffffffffffffffffffff1673ffffffffffffffffffffffffffffffffffffffff1681526020019081526020015f205f9054906101000a900473ffffffffffffffffffffffffffffffffffffffff1690505b600173ffffffffffffffffffffffffffffffffffffffff168173ffffffffffffffffffffffffffffffffffffffff1614610807578083838151811061075c5761075b6116d5565b5b602002602001019073ffffffffffffffffffffffffffffffffffffffff16908173ffffffffffffffffffffffffffffffffffffffff16815250505f808273ffffffffffffffffffffffffffffffffffffffff1673ffffffffffffffffffffffffffffffffffffffff1681526020019081526020015f205f9054906101000a900473ffffffffffffffffffffffffffffffffffffffff16905081806107ff90611569565b925050610714565b82935050505090565b6108186110f5565b5f73ffffffffffffffffffffffffffffffffffffffff168173ffffffffffffffffffffffffffffffffffffffff16141580156108815750600173ffffffffffffffffffffffffffffffffffffffff168173ffffffffffffffffffffffffffffffffffffffff1614155b80156108b957503073ffffffffffffffffffffffffffffffffffffffff168173ffffffffffffffffffffffffffffffffffffffff1614155b6108f8576040517f08c379a00000000000000000000000000000000000000000000000000000000081526004016108ef906114b6565b60405180910390fd5b5f73ffffffffffffffffffffffffffffffffffffffff165f808373ffffffffffffffffffffffffffffffffffffffff1673ffffffffffffffffffffffffffffffffffffffff1681526020019081526020015f205f9054906101000a900473ffffffffffffffffffffffffffffffffffffffff1673ffffffffffffffffffffffffffffffffffffffff16146109c1576040517f08c379a00000000000000000000000000000000000000000000000000000000081526004016109b89061151e565b60405180910390fd5b5f73ffffffffffffffffffffffffffffffffffffffff168273ffffffffffffffffffffffffffffffffffffffff1614158015610a2a5750600173ffffffffffffffffffffffffffffffffffffffff168273ffffffffffffffffffffffffffffffffffffffff1614155b610a69576040517f08c379a0000000000000000000000000000000000000000000000000000000008152600401610a60906114b6565b60405180910390fd5b8173ffffffffffffffffffffffffffffffffffffffff165f808573ffffffffffffffffffffffffffffffffffffffff1673ffffffffffffffffffffffffffffffffffffffff1681526020019081526020015f205f9054906101000a900473ffffffffffffffffffffffffffffffffffffffff1673ffffffffffffffffffffffffffffffffffffffff1614610b32576040517f08c379a0000000000000000000000000000000000000000000000000000000008152600401610b299061174c565b60405180910390fd5b5f808373ffffffffffffffffffffffffffffffffffffffff1673ffffffffffffffffffffffffffffffffffffffff1681526020019081526020015f205f9054906101000a900473ffffffffffffffffffffffffffffffffffffffff165f808373ffffffffffffffffffffffffffffffffffffffff1673ffffffffffffffffffffffffffffffffffffffff1681526020019081526020015f205f6101000a81548173ffffffffffffffffffffffffffffffffffffffff021916908373ffffffffffffffffffffffffffffffffffffffff160217905550805f808573ffffffffffffffffffffffffffffffffffffffff1673ffffffffffffffffffffffffffffffffffffffff1681526020019081526020015f205f6101000a81548173ffffffffffffffffffffffffffffffffffffffff021916908373ffffffffffffffffffffffffffffffffffffffff1602179055505f805f8473ffffffffffffffffffffffffffffffffffffffff1673ffffffffffffffffffffffffffffffffffffffff1681526020019081526020015f205f6101000a81548173ffffffffffffffffffffffffffffffffffffffff021916908373ffffffffffffffffffffffffffffffffffffffff1602179055507ff8d49fc529812e9a7c5c50e69c20f0dccc0db8fa95c98bc58cc9a4f1c1299eaf82604051610d2a91906115bf565b60405180910390a17f9465fa0c962cc76958e6373a993326400c1c94f8be2fe3a952adfa7f60b2ea2681604051610d6191906115bf565b60405180910390a1505050565b5f600254905090565b610d7f6110f5565b8060018054610d8e919061176a565b1015610dcf576040517f08c379a0000000000000000000000000000000000000000000000000000000008152600401610dc690611622565b60405180910390fd5b5f73ffffffffffffffffffffffffffffffffffffffff168273ffffffffffffffffffffffffffffffffffffffff1614158015610e385750600173ffffffffffffffffffffffffffffffffffffffff168273ffffffffffffffffffffffffffffffffffffffff1614155b610e77576040517f08c379a0000000000000000000000000000000000000000000000000000000008152600401610e6e906114b6565b60405180910390fd5b8173ffffffffffffffffffffffffffffffffffffffff165f808573ffffffffffffffffffffffffffffffffffffffff1673ffffffffffffffffffffffffffffffffffffffff1681526020019081526020015f205f9054906101000a900473ffffffffffffffffffffffffffffffffffffffff1673ffffffffffffffffffffffffffffffffffffffff1614610f40576040517f08c379a0000000000000000000000000000000000000000000000000000000008152600401610f379061174c565b60405180910390fd5b5f808373ffffffffffffffffffffffffffffffffffffffff1673ffffffffffffffffffffffffffffffffffffffff1681526020019081526020015f205f9054906101000a900473ffffffffffffffffffffffffffffffffffffffff165f808573ffffffffffffffffffffffffffffffffffffffff1673ffffffffffffffffffffffffffffffffffffffff1681526020019081526020015f205f6101000a81548173ffffffffffffffffffffffffffffffffffffffff021916908373ffffffffffffffffffffffffffffffffffffffff1602179055505f805f8473ffffffffffffffffffffffffffffffffffffffff1673ffffffffffffffffffffffffffffffffffffffff1681526020019081526020015f205f6101000a81548173ffffffffffffffffffffffffffffffffffffffff021916908373ffffffffffffffffffffffffffffffffffffffff16021790555060015f8154809291906110a19061179d565b91905055507ff8d49fc529812e9a7c5c50e69c20f0dccc0db8fa95c98bc58cc9a4f1c1299eaf826040516110d591906115bf565b60405180910390a180600254146110f0576110ef8161058e565b5b505050565b3073ffffffffffffffffffffffffffffffffffffffff163373ffffffffffffffffffffffffffffffffffffffff1614611163576040517f08c379a000000000000000000000000000000000000000000000000000000000815260040161115a9061180e565b60405180910390fd5b565b5f80fd5b5f73ffffffffffffffffffffffffffffffffffffffff82169050919050565b5f61119282611169565b9050919050565b6111a281611188565b81146111ac575f80fd5b50565b5f813590506111bd81611199565b92915050565b5f819050919050565b6111d5816111c3565b81146111df575f80fd5b50565b5f813590506111f0816111cc565b92915050565b5f806040838503121561120c5761120b611165565b5b5f611219858286016111af565b925050602061122a858286016111e2565b9150509250929050565b5f6020828403121561124957611248611165565b5b5f611256848285016111af565b91505092915050565b5f8115159050919050565b6112738161125f565b82525050565b5f60208201905061128c5f83018461126a565b92915050565b5f602082840312156112a7576112a6611165565b5b5f6112b4848285016111e2565b91505092915050565b5f81519050919050565b5f82825260208201905092915050565b5f819050602082019050919050565b6112ef81611188565b82525050565b5f61130083836112e6565b60208301905092915050565b5f602082019050919050565b5f611322826112bd565b61132c81856112c7565b9350611337836112d7565b805f5b8381101561136757815161134e88826112f5565b97506113598361130c565b92505060018101905061133a565b5085935050505092915050565b5f6020820190508181035f83015261138c8184611318565b905092915050565b5f805f606084860312156113ab576113aa611165565b5b5f6113b8868287016111af565b93505060206113c9868287016111af565b92505060406113da868287016111af565b9150509250925092565b6113ed816111c3565b82525050565b5f6020820190506114065f8301846113e4565b92915050565b5f805f6060848603121561142357611422611165565b5b5f611430868287016111af565b9350506020611441868287016111af565b9250506040611452868287016111e2565b9150509250925092565b5f82825260208201905092915050565b7f47533230330000000000000000000000000000000000000000000000000000005f82015250565b5f6114a060058361145c565b91506114ab8261146c565b602082019050919050565b5f6020820190508181035f8301526114cd81611494565b9050919050565b7f47533230340000000000000000000000000000000000000000000000000000005f82015250565b5f61150860058361145c565b9150611513826114d4565b602082019050919050565b5f6020820190508181035f830152611535816114fc565b9050919050565b7f4e487b71000000000000000000000000000000000000000000000000000000005f52601160045260245ffd5b5f611573826111c3565b91507fffffffffffffffffffffffffffffffffffffffffffffffffffffffffffffffff82036115a5576115a461153c565b5b600182019050919050565b6115b981611188565b82525050565b5f6020820190506115d25f8301846115b0565b92915050565b7f47533230310000000000000000000000000000000000000000000000000000005f82015250565b5f61160c60058361145c565b9150611617826115d8565b602082019050919050565b5f6020820190508181035f83015261163981611600565b9050919050565b7f47533230320000000000000000000000000000000000000000000000000000005f82015250565b5f61167460058361145c565b915061167f82611640565b602082019050919050565b5f6020820190508181035f8301526116a181611668565b9050919050565b7f4e487b71000000000000000000000000000000000000000000000000000000005f52604160045260245ffd5b7f4e487b71000000000000000000000000000000000000000000000000000000005f52603260045260245ffd5b7f47533230350000000000000000000000000000000000000000000000000000005f82015250565b5f61173660058361145c565b915061174182611702565b602082019050919050565b5f6020820190508181035f8301526117638161172a565b9050919050565b5f611774826111c3565b915061177f836111c3565b92508282039050818111156117975761179661153c565b5b92915050565b5f6117a7826111c3565b91505f82036117b9576117b861153c565b5b600182039050919050565b7f47533033310000000000000000000000000000000000000000000000000000005f82015250565b5f6117f860058361145c565b9150611803826117c4565b602082019050919050565b5f6020820190508181035f830152611825816117ec565b905091905056fea26469706673582212201a4a72025ee9e853554ea13bc0cc3a5360d3991bd115e13971db19fcb96a928864736f6c63430008180033",
					"opcodes": "PUSH1 0x80 PUSH1 0x40 MSTORE CALLVALUE DUP1 ISZERO PUSH2 0xF JUMPI PUSH0 DUP1 REVERT JUMPDEST POP PUSH2 0x1862 DUP1 PUSH2 0x1D PUSH0 CODECOPY PUSH0 RETURN INVALID PUSH1 0x80 PUSH1 0x40 MSTORE CALLVALUE DUP1 ISZERO PUSH2 0xF JUMPI PUSH0 DUP1 REVERT JUMPDEST POP PUSH1 0x4 CALLDATASIZE LT PUSH2 0x7B JUMPI PUSH0 CALLDATALOAD PUSH1 0xE0 SHR DUP1 PUSH4 0xA0E67E2B GT PUSH2 0x59 JUMPI DUP1 PUSH4 0xA0E67E2B EQ PUSH2 0xE7 JUMPI DUP1 PUSH4 0xE318B52B EQ PUSH2 0x105 JUMPI DUP1 PUSH4 0xE75235B8 EQ PUSH2 0x121 JUMPI DUP1 PUSH4 0xF8DC5DD9 EQ PUSH2 0x13F JUMPI PUSH2 0x7B JUMP JUMPDEST DUP1 PUSH4 0xD582F13 EQ PUSH2 0x7F JUMPI DUP1 PUSH4 0x2F54BF6E EQ PUSH2 0x9B JUMPI DUP1 PUSH4 0x694E80C3 EQ PUSH2 0xCB JUMPI JUMPDEST PUSH0 DUP1 REVERT JUMPDEST PUSH2 0x99 PUSH1 0x4 DUP1 CALLDATASIZE SUB DUP2 ADD SWAP1 PUSH2 0x94 SWAP2 SWAP1 PUSH2 0x11F6 JUMP JUMPDEST PUSH2 0x15B JUMP JUMPDEST STOP JUMPDEST PUSH2 0xB5 PUSH1 0x4 DUP1 CALLDATASIZE SUB DUP2 ADD SWAP1 PUSH2 0xB0 SWAP2 SWAP1 PUSH2 0x1234 JUMP JUMPDEST PUSH2 0x4C2 JUMP JUMPDEST PUSH1 0x40 MLOAD PUSH2 0xC2 SWAP2 SWAP1 PUSH2 0x1279 JUMP JUMPDEST PUSH1 0x40 MLOAD DUP1 SWAP2 SUB SWAP1 RETURN JUMPDEST PUSH2 0xE5 PUSH1 0x4 DUP1 CALLDATASIZE SUB DUP2 ADD SWAP1 PUSH2 0xE0 SWAP2 SWAP1 PUSH2 0x1292 JUMP JUMPDEST PUSH2 0x58E JUMP JUMPDEST STOP JUMPDEST PUSH2 0xEF PUSH2 0x662 JUMP JUMPDEST PUSH1 0x40 MLOAD PUSH2 0xFC SWAP2 SWAP1 PUSH2 0x1374 JUMP JUMPDEST PUSH1 0x40 MLOAD DUP1 SWAP2 SUB SWAP1 RETURN JUMPDEST PUSH2 0x11F PUSH1 0x4 DUP1 CALLDATASIZE SUB DUP2 ADD SWAP1 PUSH2 0x11A SWAP2 SWAP1 PUSH2 0x1394 JUMP JUMPDEST PUSH2 0x810 JUMP JUMPDEST STOP JUMPDEST PUSH2 0x129 PUSH2 0xD6E JUMP JUMPDEST PUSH1 0x40 MLOAD PUSH2 0x136 SWAP2 SWAP1 PUSH2 0x13F3 JUMP JUMPDEST PUSH1 0x40 MLOAD DUP1 SWAP2 SUB SWAP1 RETURN JUMPDEST PUSH2 0x159 PUSH1 0x4 DUP1 CALLDATASIZE SUB DUP2 ADD SWAP1 PUSH2 0x154 SWAP2 SWAP1 PUSH2 0x140C JUMP JUMPDEST PUSH2 0xD77 JUMP JUMPDEST STOP JUMPDEST PUSH2 0x163 PUSH2 0x10F5 JUMP JUMPDEST PUSH0 PUSH20 0xFFFFFFFFFFFFFFFFFFFFFFFFFFFFFFFFFFFFFFFF AND DUP3 PUSH20 0xFFFFFFFFFFFFFFFFFFFFFFFFFFFFFFFFFFFFFFFF AND EQ ISZERO DUP1 ISZERO PUSH2 0x1CC JUMPI POP PUSH1 0x1 PUSH20 0xFFFFFFFFFFFFFFFFFFFFFFFFFFFFFFFFFFFFFFFF AND DUP3 PUSH20 0xFFFFFFFFFFFFFFFFFFFFFFFFFFFFFFFFFFFFFFFF AND EQ ISZERO JUMPDEST DUP1 ISZERO PUSH2 0x204 JUMPI POP ADDRESS PUSH20 0xFFFFFFFFFFFFFFFFFFFFFFFFFFFFFFFFFFFFFFFF AND DUP3 PUSH20 0xFFFFFFFFFFFFFFFFFFFFFFFFFFFFFFFFFFFFFFFF AND EQ ISZERO JUMPDEST PUSH2 0x243 JUMPI PUSH1 0x40 MLOAD PUSH32 0x8C379A000000000000000000000000000000000000000000000000000000000 DUP2 MSTORE PUSH1 0x4 ADD PUSH2 0x23A SWAP1 PUSH2 0x14B6 JUMP JUMPDEST PUSH1 0x40 MLOAD DUP1 SWAP2 SUB SWAP1 REVERT JUMPDEST PUSH0 PUSH20 0xFFFFFFFFFFFFFFFFFFFFFFFFFFFFFFFFFFFFFFFF AND PUSH0 DUP1 DUP5 PUSH20 0xFFFFFFFFFFFFFFFFFFFFFFFFFFFFFFFFFFFFFFFF AND PUSH20 0xFFFFFFFFFFFFFFFFFFFFFFFFFFFFFFFFFFFFFFFF AND DUP2 MSTORE PUSH1 0x20 ADD SWAP1 DUP2 MSTORE PUSH1 0x20 ADD PUSH0 KECCAK256 PUSH0 SWAP1 SLOAD SWAP1 PUSH2 0x100 EXP SWAP1 DIV PUSH20 0xFFFFFFFFFFFFFFFFFFFFFFFFFFFFFFFFFFFFFFFF AND PUSH20 0xFFFFFFFFFFFFFFFFFFFFFFFFFFFFFFFFFFFFFFFF AND EQ PUSH2 0x30C JUMPI PUSH1 0x40 MLOAD PUSH32 0x8C379A000000000000000000000000000000000000000000000000000000000 DUP2 MSTORE PUSH1 0x4 ADD PUSH2 0x303 SWAP1 PUSH2 0x151E JUMP JUMPDEST PUSH1 0x40 MLOAD DUP1 SWAP2 SUB SWAP1 REVERT JUMPDEST PUSH0 DUP1 PUSH1 0x1 PUSH20 0xFFFFFFFFFFFFFFFFFFFFFFFFFFFFFFFFFFFFFFFF AND PUSH20 0xFFFFFFFFFFFFFFFFFFFFFFFFFFFFFFFFFFFFFFFF AND DUP2 MSTORE PUSH1 0x20 ADD SWAP1 DUP2 MSTORE PUSH1 0x20 ADD PUSH0 KECCAK256 PUSH0 SWAP1 SLOAD SWAP1 PUSH2 0x100 EXP SWAP1 DIV PUSH20 0xFFFFFFFFFFFFFFFFFFFFFFFFFFFFFFFFFFFFFFFF AND PUSH0 DUP1 DUP5 PUSH20 0xFFFFFFFFFFFFFFFFFFFFFFFFFFFFFFFFFFFFFFFF AND PUSH20 0xFFFFFFFFFFFFFFFFFFFFFFFFFFFFFFFFFFFFFFFF AND DUP2 MSTORE PUSH1 0x20 ADD SWAP1 DUP2 MSTORE PUSH1 0x20 ADD PUSH0 KECCAK256 PUSH0 PUSH2 0x100 EXP DUP2 SLOAD DUP2 PUSH20 0xFFFFFFFFFFFFFFFFFFFFFFFFFFFFFFFFFFFFFFFF MUL NOT AND SWAP1 DUP4 PUSH20 0xFFFFFFFFFFFFFFFFFFFFFFFFFFFFFFFFFFFFFFFF AND MUL OR SWAP1 SSTORE POP DUP2 PUSH0 DUP1 PUSH1 0x1 PUSH20 0xFFFFFFFFFFFFFFFFFFFFFFFFFFFFFFFFFFFFFFFF AND PUSH20 0xFFFFFFFFFFFFFFFFFFFFFFFFFFFFFFFFFFFFFFFF AND DUP2 MSTORE PUSH1 0x20 ADD SWAP1 DUP2 MSTORE PUSH1 0x20 ADD PUSH0 KECCAK256 PUSH0 PUSH2 0x100 EXP DUP2 SLOAD DUP2 PUSH20 0xFFFFFFFFFFFFFFFFFFFFFFFFFFFFFFFFFFFFFFFF MUL NOT AND SWAP1 DUP4 PUSH20 0xFFFFFFFFFFFFFFFFFFFFFFFFFFFFFFFFFFFFFFFF AND MUL OR SWAP1 SSTORE POP PUSH1 0x1 PUSH0 DUP2 SLOAD DUP1 SWAP3 SWAP2 SWAP1 PUSH2 0x46F SWAP1 PUSH2 0x1569 JUMP JUMPDEST SWAP2 SWAP1 POP SSTORE POP PUSH32 0x9465FA0C962CC76958E6373A993326400C1C94F8BE2FE3A952ADFA7F60B2EA26 DUP3 PUSH1 0x40 MLOAD PUSH2 0x4A3 SWAP2 SWAP1 PUSH2 0x15BF JUMP JUMPDEST PUSH1 0x40 MLOAD DUP1 SWAP2 SUB SWAP1 LOG1 DUP1 PUSH1 0x2 SLOAD EQ PUSH2 0x4BE JUMPI PUSH2 0x4BD DUP2 PUSH2 0x58E JUMP JUMPDEST JUMPDEST POP POP JUMP JUMPDEST PUSH0 PUSH1 0x1 PUSH20 0xFFFFFFFFFFFFFFFFFFFFFFFFFFFFFFFFFFFFFFFF AND DUP3 PUSH20 0xFFFFFFFFFFFFFFFFFFFFFFFFFFFFFFFFFFFFFFFF AND EQ ISZERO DUP1 ISZERO PUSH2 0x587 JUMPI POP PUSH0 PUSH20 0xFFFFFFFFFFFFFFFFFFFFFFFFFFFFFFFFFFFFFFFF AND PUSH0 DUP1 DUP5 PUSH20 0xFFFFFFFFFFFFFFFFFFFFFFFFFFFFFFFFFFFFFFFF AND PUSH20 0xFFFFFFFFFFFFFFFFFFFFFFFFFFFFFFFFFFFFFFFF AND DUP2 MSTORE PUSH1 0x20 ADD SWAP1 DUP2 MSTORE PUSH1 0x20 ADD PUSH0 KECCAK256 PUSH0 SWAP1 SLOAD SWAP1 PUSH2 0x100 EXP SWAP1 DIV PUSH20 0xFFFFFFFFFFFFFFFFFFFFFFFFFFFFFFFFFFFFFFFF AND PUSH20 0xFFFFFFFFFFFFFFFFFFFFFFFFFFFFFFFFFFFFFFFF AND EQ ISZERO JUMPDEST SWAP1 POP SWAP2 SWAP1 POP JUMP JUMPDEST PUSH2 0x596 PUSH2 0x10F5 JUMP JUMPDEST PUSH1 0x1 SLOAD DUP2 GT ISZERO PUSH2 0x5DB JUMPI PUSH1 0x40 MLOAD PUSH32 0x8C379A000000000000000000000000000000000000000000000000000000000 DUP2 MSTORE PUSH1 0x4 ADD PUSH2 0x5D2 SWAP1 PUSH2 0x1622 JUMP JUMPDEST PUSH1 0x40 MLOAD DUP1 SWAP2 SUB SWAP1 REVERT JUMPDEST PUSH1 0x1 DUP2 LT ISZERO PUSH2 0x61F JUMPI PUSH1 0x40 MLOAD PUSH32 0x8C379A000000000000000000000000000000000000000000000000000000000 DUP2 MSTORE PUSH1 0x4 ADD PUSH2 0x616 SWAP1 PUSH2 0x168A JUMP JUMPDEST PUSH1 0x40 MLOAD DUP1 SWAP2 SUB SWAP1 REVERT JUMPDEST DUP1 PUSH1 0x2 DUP2 SWAP1 SSTORE POP PUSH32 0x610F7FF2B304AE8903C3DE74C60C6AB1F7D6226B3F52C5161905BB5AD4039C93 PUSH1 0x2 SLOAD PUSH1 0x40 MLOAD PUSH2 0x657 SWAP2 SWAP1 PUSH2 0x13F3 JUMP JUMPDEST PUSH1 0x40 MLOAD DUP1 SWAP2 SUB SWAP1 LOG1 POP JUMP JUMPDEST PUSH1 0x60 PUSH0 PUSH1 0x1 SLOAD PUSH8 0xFFFFFFFFFFFFFFFF DUP2 GT ISZERO PUSH2 0x681 JUMPI PUSH2 0x680 PUSH2 0x16A8 JUMP JUMPDEST JUMPDEST PUSH1 0x40 MLOAD SWAP1 DUP1 DUP3 MSTORE DUP1 PUSH1 0x20 MUL PUSH1 0x20 ADD DUP3 ADD PUSH1 0x40 MSTORE DUP1 ISZERO PUSH2 0x6AF JUMPI DUP2 PUSH1 0x20 ADD PUSH1 0x20 DUP3 MUL DUP1 CALLDATASIZE DUP4 CALLDATACOPY DUP1 DUP3 ADD SWAP2 POP POP SWAP1 POP JUMPDEST POP SWAP1 POP PUSH0 DUP1 DUP1 PUSH0 PUSH1 0x1 PUSH20 0xFFFFFFFFFFFFFFFFFFFFFFFFFFFFFFFFFFFFFFFF AND PUSH20 0xFFFFFFFFFFFFFFFFFFFFFFFFFFFFFFFFFFFFFFFF AND DUP2 MSTORE PUSH1 0x20 ADD SWAP1 DUP2 MSTORE PUSH1 0x20 ADD PUSH0 KECCAK256 PUSH0 SWAP1 SLOAD SWAP1 PUSH2 0x100 EXP SWAP1 DIV PUSH20 0xFFFFFFFFFFFFFFFFFFFFFFFFFFFFFFFFFFFFFFFF AND SWAP1 POP JUMPDEST PUSH1 0x1 PUSH20 0xFFFFFFFFFFFFFFFFFFFFFFFFFFFFFFFFFFFFFFFF AND DUP2 PUSH20 0xFFFFFFFFFFFFFFFFFFFFFFFFFFFFFFFFFFFFFFFF AND EQ PUSH2 0x807 JUMPI DUP1 DUP4 DUP4 DUP2 MLOAD DUP2 LT PUSH2 0x75C JUMPI PUSH2 0x75B PUSH2 0x16D5 JUMP JUMPDEST JUMPDEST PUSH1 0x20 MUL PUSH1 0x20 ADD ADD SWAP1 PUSH20 0xFFFFFFFFFFFFFFFFFFFFFFFFFFFFFFFFFFFFFFFF AND SWAP1 DUP2 PUSH20 0xFFFFFFFFFFFFFFFFFFFFFFFFFFFFFFFFFFFFFFFF AND DUP2 MSTORE POP POP PUSH0 DUP1 DUP3 PUSH20 0xFFFFFFFFFFFFFFFFFFFFFFFFFFFFFFFFFFFFFFFF AND PUSH20 0xFFFFFFFFFFFFFFFFFFFFFFFFFFFFFFFFFFFFFFFF AND DUP2 MSTORE PUSH1 0x20 ADD SWAP1 DUP2 MSTORE PUSH1 0x20 ADD PUSH0 KECCAK256 PUSH0 SWAP1 SLOAD SWAP1 PUSH2 0x100 EXP SWAP1 DIV PUSH20 0xFFFFFFFFFFFFFFFFFFFFFFFFFFFFFFFFFFFFFFFF AND SWAP1 POP DUP2 DUP1 PUSH2 0x7FF SWAP1 PUSH2 0x1569 JUMP JUMPDEST SWAP3 POP POP PUSH2 0x714 JUMP JUMPDEST DUP3 SWAP4 POP POP POP POP SWAP1 JUMP JUMPDEST PUSH2 0x818 PUSH2 0x10F5 JUMP JUMPDEST PUSH0 PUSH20 0xFFFFFFFFFFFFFFFFFFFFFFFFFFFFFFFFFFFFFFFF AND DUP2 PUSH20 0xFFFFFFFFFFFFFFFFFFFFFFFFFFFFFFFFFFFFFFFF AND EQ ISZERO DUP1 ISZERO PUSH2 0x881 JUMPI POP PUSH1 0x1 PUSH20 0xFFFFFFFFFFFFFFFFFFFFFFFFFFFFFFFFFFFFFFFF AND DUP2 PUSH20 0xFFFFFFFFFFFFFFFFFFFFFFFFFFFFFFFFFFFFFFFF AND EQ ISZERO JUMPDEST DUP1 ISZERO PUSH2 0x8B9 JUMPI POP ADDRESS PUSH20 0xFFFFFFFFFFFFFFFFFFFFFFFFFFFFFFFFFFFFFFFF AND DUP2 PUSH20 0xFFFFFFFFFFFFFFFFFFFFFFFFFFFFFFFFFFFFFFFF AND EQ ISZERO JUMPDEST PUSH2 0x8F8 JUMPI PUSH1 0x40 MLOAD PUSH32 0x8C379A000000000000000000000000000000000000000000000000000000000 DUP2 MSTORE PUSH1 0x4 ADD PUSH2 0x8EF SWAP1 PUSH2 0x14B6 JUMP JUMPDEST PUSH1 0x40 MLOAD DUP1 SWAP2 SUB SWAP1 REVERT JUMPDEST PUSH0 PUSH20 0xFFFFFFFFFFFFFFFFFFFFFFFFFFFFFFFFFFFFFFFF AND PUSH0 DUP1 DUP4 PUSH20 0xFFFFFFFFFFFFFFFFFFFFFFFFFFFFFFFFFFFFFFFF AND PUSH20 0xFFFFFFFFFFFFFFFFFFFFFFFFFFFFFFFFFFFFFFFF AND DUP2 MSTORE PUSH1 0x20 ADD SWAP1 DUP2 MSTORE PUSH1 0x20 ADD PUSH0 KECCAK256 PUSH0 SWAP1 SLOAD SWAP1 PUSH2 0x100 EXP SWAP1 DIV PUSH20 0xFFFFFFFFFFFFFFFFFFFFFFFFFFFFFFFFFFFFFFFF AND PUSH20 0xFFFFFFFFFFFFFFFFFFFFFFFFFFFFFFFFFFFFFFFF AND EQ PUSH2 0x9C1 JUMPI PUSH1 0x40 MLOAD PUSH32 0x8C379A000000000000000000000000000000000000000000000000000000000 DUP2 MSTORE PUSH1 0x4 ADD PUSH2 0x9B8 SWAP1 PUSH2 0x151E JUMP JUMPDEST PUSH1 0x40 MLOAD DUP1 SWAP2 SUB SWAP1 REVERT JUMPDEST PUSH0 PUSH20 0xFFFFFFFFFFFFFFFFFFFFFFFFFFFFFFFFFFFFFFFF AND DUP3 PUSH20 0xFFFFFFFFFFFFFFFFFFFFFFFFFFFFFFFFFFFFFFFF AND EQ ISZERO DUP1 ISZERO PUSH2 0xA2A JUMPI POP PUSH1 0x1 PUSH20 0xFFFFFFFFFFFFFFFFFFFFFFFFFFFFFFFFFFFFFFFF AND DUP3 PUSH20 0xFFFFFFFFFFFFFFFFFFFFFFFFFFFFFFFFFFFFFFFF AND EQ ISZERO JUMPDEST PUSH2 0xA69 JUMPI PUSH1 0x40 MLOAD PUSH32 0x8C379A000000000000000000000000000000000000000000000000000000000 DUP2 MSTORE PUSH1 0x4 ADD PUSH2 0xA60 SWAP1 PUSH2 0x14B6 JUMP JUMPDEST PUSH1 0x40 MLOAD DUP1 SWAP2 SUB SWAP1 REVERT JUMPDEST DUP2 PUSH20 0xFFFFFFFFFFFFFFFFFFFFFFFFFFFFFFFFFFFFFFFF AND PUSH0 DUP1 DUP6 PUSH20 0xFFFFFFFFFFFFFFFFFFFFFFFFFFFFFFFFFFFFFFFF AND PUSH20 0xFFFFFFFFFFFFFFFFFFFFFFFFFFFFFFFFFFFFFFFF AND DUP2 MSTORE PUSH1 0x20 ADD SWAP1 DUP2 MSTORE PUSH1 0x20 ADD PUSH0 KECCAK256 PUSH0 SWAP1 SLOAD SWAP1 PUSH2 0x100 EXP SWAP1 DIV PUSH20 0xFFFFFFFFFFFFFFFFFFFFFFFFFFFFFFFFFFFFFFFF AND PUSH20 0xFFFFFFFFFFFFFFFFFFFFFFFFFFFFFFFFFFFFFFFF AND EQ PUSH2 0xB32 JUMPI PUSH1 0x40 MLOAD PUSH32 0x8C379A000000000000000000000000000000000000000000000000000000000 DUP2 MSTORE PUSH1 0x4 ADD PUSH2 0xB29 SWAP1 PUSH2 0x174C JUMP JUMPDEST PUSH1 0x40 MLOAD DUP1 SWAP2 SUB SWAP1 REVERT JUMPDEST PUSH0 DUP1 DUP4 PUSH20 0xFFFFFFFFFFFFFFFFFFFFFFFFFFFFFFFFFFFFFFFF AND PUSH20 0xFFFFFFFFFFFFFFFFFFFFFFFFFFFFFFFFFFFFFFFF AND DUP2 MSTORE PUSH1 0x20 ADD SWAP1 DUP2 MSTORE PUSH1 0x20 ADD PUSH0 KECCAK256 PUSH0 SWAP1 SLOAD SWAP1 PUSH2 0x100 EXP SWAP1 DIV PUSH20 0xFFFFFFFFFFFFFFFFFFFFFFFFFFFFFFFFFFFFFFFF AND PUSH0 DUP1 DUP4 PUSH20 0xFFFFFFFFFFFFFFFFFFFFFFFFFFFFFFFFFFFFFFFF AND PUSH20 0xFFFFFFFFFFFFFFFFFFFFFFFFFFFFFFFFFFFFFFFF AND DUP2 MSTORE PUSH1 0x20 ADD SWAP1 DUP2 MSTORE PUSH1 0x20 ADD PUSH0 KECCAK256 PUSH0 PUSH2 0x100 EXP DUP2 SLOAD DUP2 PUSH20 0xFFFFFFFFFFFFFFFFFFFFFFFFFFFFFFFFFFFFFFFF MUL NOT AND SWAP1 DUP4 PUSH20 0xFFFFFFFFFFFFFFFFFFFFFFFFFFFFFFFFFFFFFFFF AND MUL OR SWAP1 SSTORE POP DUP1 PUSH0 DUP1 DUP6 PUSH20 0xFFFFFFFFFFFFFFFFFFFFFFFFFFFFFFFFFFFFFFFF AND PUSH20 0xFFFFFFFFFFFFFFFFFFFFFFFFFFFFFFFFFFFFFFFF AND DUP2 MSTORE PUSH1 0x20 ADD SWAP1 DUP2 MSTORE PUSH1 0x20 ADD PUSH0 KECCAK256 PUSH0 PUSH2 0x100 EXP DUP2 SLOAD DUP2 PUSH20 0xFFFFFFFFFFFFFFFFFFFFFFFFFFFFFFFFFFFFFFFF MUL NOT AND SWAP1 DUP4 PUSH20 0xFFFFFFFFFFFFFFFFFFFFFFFFFFFFFFFFFFFFFFFF AND MUL OR SWAP1 SSTORE POP PUSH0 DUP1 PUSH0 DUP5 PUSH20 0xFFFFFFFFFFFFFFFFFFFFFFFFFFFFFFFFFFFFFFFF AND PUSH20 0xFFFFFFFFFFFFFFFFFFFFFFFFFFFFFFFFFFFFFFFF AND DUP2 MSTORE PUSH1 0x20 ADD SWAP1 DUP2 MSTORE PUSH1 0x20 ADD PUSH0 KECCAK256 PUSH0 PUSH2 0x100 EXP DUP2 SLOAD DUP2 PUSH20 0xFFFFFFFFFFFFFFFFFFFFFFFFFFFFFFFFFFFFFFFF MUL NOT AND SWAP1 DUP4 PUSH20 0xFFFFFFFFFFFFFFFFFFFFFFFFFFFFFFFFFFFFFFFF AND MUL OR SWAP1 SSTORE POP PUSH32 0xF8D49FC529812E9A7C5C50E69C20F0DCCC0DB8FA95C98BC58CC9A4F1C1299EAF DUP3 PUSH1 0x40 MLOAD PUSH2 0xD2A SWAP2 SWAP1 PUSH2 0x15BF JUMP JUMPDEST PUSH1 0x40 MLOAD DUP1 SWAP2 SUB SWAP1 LOG1 PUSH32 0x9465FA0C962CC76958E6373A993326400C1C94F8BE2FE3A952ADFA7F60B2EA26 DUP2 PUSH1 0x40 MLOAD PUSH2 0xD61 SWAP2 SWAP1 PUSH2 0x15BF JUMP JUMPDEST PUSH1 0x40 MLOAD DUP1 SWAP2 SUB SWAP1 LOG1 POP POP POP JUMP JUMPDEST PUSH0 PUSH1 0x2 SLOAD SWAP1 POP SWAP1 JUMP JUMPDEST PUSH2 0xD7F PUSH2 0x10F5 JUMP JUMPDEST DUP1 PUSH1 0x1 DUP1 SLOAD PUSH2 0xD8E SWAP2 SWAP1 PUSH2 0x176A JUMP JUMPDEST LT ISZERO PUSH2 0xDCF JUMPI PUSH1 0x40 MLOAD PUSH32 0x8C379A000000000000000000000000000000000000000000000000000000000 DUP2 MSTORE PUSH1 0x4 ADD PUSH2 0xDC6 SWAP1 PUSH2 0x1622 JUMP JUMPDEST PUSH1 0x40 MLOAD DUP1 SWAP2 SUB SWAP1 REVERT JUMPDEST PUSH0 PUSH20 0xFFFFFFFFFFFFFFFFFFFFFFFFFFFFFFFFFFFFFFFF AND DUP3 PUSH20 0xFFFFFFFFFFFFFFFFFFFFFFFFFFFFFFFFFFFFFFFF AND EQ ISZERO DUP1 ISZERO PUSH2 0xE38 JUMPI POP PUSH1 0x1 PUSH20 0xFFFFFFFFFFFFFFFFFFFFFFFFFFFFFFFFFFFFFFFF AND DUP3 PUSH20 0xFFFFFFFFFFFFFFFFFFFFFFFFFFFFFFFFFFFFFFFF AND EQ ISZERO JUMPDEST PUSH2 0xE77 JUMPI PUSH1 0x40 MLOAD PUSH32 0x8C379A000000000000000000000000000000000000000000000000000000000 DUP2 MSTORE PUSH1 0x4 ADD PUSH2 0xE6E SWAP1 PUSH2 0x14B6 JUMP JUMPDEST PUSH1 0x40 MLOAD DUP1 SWAP2 SUB SWAP1 REVERT JUMPDEST DUP2 PUSH20 0xFFFFFFFFFFFFFFFFFFFFFFFFFFFFFFFFFFFFFFFF AND PUSH0 DUP1 DUP6 PUSH20 0xFFFFFFFFFFFFFFFFFFFFFFFFFFFFFFFFFFFFFFFF AND PUSH20 0xFFFFFFFFFFFFFFFFFFFFFFFFFFFFFFFFFFFFFFFF AND DUP2 MSTORE PUSH1 0x20 ADD SWAP1 DUP2 MSTORE PUSH1 0x20 ADD PUSH0 KECCAK256 PUSH0 SWAP1 SLOAD SWAP1 PUSH2 0x100 EXP SWAP1 DIV PUSH20 0xFFFFFFFFFFFFFFFFFFFFFFFFFFFFFFFFFFFFFFFF AND PUSH20 0xFFFFFFFFFFFFFFFFFFFFFFFFFFFFFFFFFFFFFFFF AND EQ PUSH2 0xF40 JUMPI PUSH1 0x40 MLOAD PUSH32 0x8C379A000000000000000000000000000000000000000000000000000000000 DUP2 MSTORE PUSH1 0x4 ADD PUSH2 0xF37 SWAP1 PUSH2 0x174C JUMP JUMPDEST PUSH1 0x40 MLOAD DUP1 SWAP2 SUB SWAP1 REVERT JUMPDEST PUSH0 DUP1 DUP4 PUSH20 0xFFFFFFFFFFFFFFFFFFFFFFFFFFFFFFFFFFFFFFFF AND PUSH20 0xFFFFFFFFFFFFFFFFFFFFFFFFFFFFFFFFFFFFFFFF AND DUP2 MSTORE PUSH1 0x20 ADD SWAP1 DUP2 MSTORE PUSH1 0x20 ADD PUSH0 KECCAK256 PUSH0 SWAP1 SLOAD SWAP1 PUSH2 0x100 EXP SWAP1 DIV PUSH20 0xFFFFFFFFFFFFFFFFFFFFFFFFFFFFFFFFFFFFFFFF AND PUSH0 DUP1 DUP6 PUSH20 0xFFFFFFFFFFFFFFFFFFFFFFFFFFFFFFFFFFFFFFFF AND PUSH20 0xFFFFFFFFFFFFFFFFFFFFFFFFFFFFFFFFFFFFFFFF AND DUP2 MSTORE PUSH1 0x20 ADD SWAP1 DUP2 MSTORE PUSH1 0x20 ADD PUSH0 KECCAK256 PUSH0 PUSH2 0x100 EXP DUP2 SLOAD DUP2 PUSH20 0xFFFFFFFFFFFFFFFFFFFFFFFFFFFFFFFFFFFFFFFF MUL NOT AND SWAP1 DUP4 PUSH20 0xFFFFFFFFFFFFFFFFFFFFFFFFFFFFFFFFFFFFFFFF AND MUL OR SWAP1 SSTORE POP PUSH0 DUP1 PUSH0 DUP5 PUSH20 0xFFFFFFFFFFFFFFFFFFFFFFFFFFFFFFFFFFFFFFFF AND PUSH20 0xFFFFFFFFFFFFFFFFFFFFFFFFFFFFFFFFFFFFFFFF AND DUP2 MSTORE PUSH1 0x20 ADD SWAP1 DUP2 MSTORE PUSH1 0x20 ADD PUSH0 KECCAK256 PUSH0 PUSH2 0x100 EXP DUP2 SLOAD DUP2 PUSH20 0xFFFFFFFFFFFFFFFFFFFFFFFFFFFFFFFFFFFFFFFF MUL NOT AND SWAP1 DUP4 PUSH20 0xFFFFFFFFFFFFFFFFFFFFFFFFFFFFFFFFFFFFFFFF AND MUL OR SWAP1 SSTORE POP PUSH1 0x1 PUSH0 DUP2 SLOAD DUP1 SWAP3 SWAP2 SWAP1 PUSH2 0x10A1 SWAP1 PUSH2 0x179D JUMP JUMPDEST SWAP2 SWAP1 POP SSTORE POP PUSH32 0xF8D49FC529812E9A7C5C50E69C20F0DCCC0DB8FA95C98BC58CC9A4F1C1299EAF DUP3 PUSH1 0x40 MLOAD PUSH2 0x10D5 SWAP2 SWAP1 PUSH2 0x15BF JUMP JUMPDEST PUSH1 0x40 MLOAD DUP1 SWAP2 SUB SWAP1 LOG1 DUP1 PUSH1 0x2 SLOAD EQ PUSH2 0x10F0 JUMPI PUSH2 0x10EF DUP2 PUSH2 0x58E JUMP JUMPDEST JUMPDEST POP POP POP JUMP JUMPDEST ADDRESS PUSH20 0xFFFFFFFFFFFFFFFFFFFFFFFFFFFFFFFFFFFFFFFF AND CALLER PUSH20 0xFFFFFFFFFFFFFFFFFFFFFFFFFFFFFFFFFFFFFFFF AND EQ PUSH2 0x1163 JUMPI PUSH1 0x40 MLOAD PUSH32 0x8C379A000000000000000000000000000000000000000000000000000000000 DUP2 MSTORE PUSH1 0x4 ADD PUSH2 0x115A SWAP1 PUSH2 0x180E JUMP JUMPDEST PUSH1 0x40 MLOAD DUP1 SWAP2 SUB SWAP1 REVERT JUMPDEST JUMP JUMPDEST PUSH0 DUP1 REVERT JUMPDEST PUSH0 PUSH20 0xFFFFFFFFFFFFFFFFFFFFFFFFFFFFFFFFFFFFFFFF DUP3 AND SWAP1 POP SWAP2 SWAP1 POP JUMP JUMPDEST PUSH0 PUSH2 0x1192 DUP3 PUSH2 0x1169 JUMP JUMPDEST SWAP1 POP SWAP2 SWAP1 POP JUMP JUMPDEST PUSH2 0x11A2 DUP2 PUSH2 0x1188 JUMP JUMPDEST DUP2 EQ PUSH2 0x11AC JUMPI PUSH0 DUP1 REVERT JUMPDEST POP JUMP JUMPDEST PUSH0 DUP2 CALLDATALOAD SWAP1 POP PUSH2 0x11BD DUP2 PUSH2 0x1199 JUMP JUMPDEST SWAP3 SWAP2 POP POP JUMP JUMPDEST PUSH0 DUP2 SWAP1 POP SWAP2 SWAP1 POP JUMP JUMPDEST PUSH2 0x11D5 DUP2 PUSH2 0x11C3 JUMP JUMPDEST DUP2 EQ PUSH2 0x11DF JUMPI PUSH0 DUP1 REVERT JUMPDEST POP JUMP JUMPDEST PUSH0 DUP2 CALLDATALOAD SWAP1 POP PUSH2 0x11F0 DUP2 PUSH2 0x11CC JUMP JUMPDEST SWAP3 SWAP2 POP POP JUMP JUMPDEST PUSH0 DUP1 PUSH1 0x40 DUP4 DUP6 SUB SLT ISZERO PUSH2 0x120C JUMPI PUSH2 0x120B PUSH2 0x1165 JUMP JUMPDEST JUMPDEST PUSH0 PUSH2 0x1219 DUP6 DUP3 DUP7 ADD PUSH2 0x11AF JUMP JUMPDEST SWAP3 POP POP PUSH1 0x20 PUSH2 0x122A DUP6 DUP3 DUP7 ADD PUSH2 0x11E2 JUMP JUMPDEST SWAP2 POP POP SWAP3 POP SWAP3 SWAP1 POP JUMP JUMPDEST PUSH0 PUSH1 0x20 DUP3 DUP5 SUB SLT ISZERO PUSH2 0x1249 JUMPI PUSH2 0x1248 PUSH2 0x1165 JUMP JUMPDEST JUMPDEST PUSH0 PUSH2 0x1256 DUP5 DUP3 DUP6 ADD PUSH2 0x11AF JUMP JUMPDEST SWAP2 POP POP SWAP3 SWAP2 POP POP JUMP JUMPDEST PUSH0 DUP2 ISZERO ISZERO SWAP1 POP SWAP2 SWAP1 POP JUMP JUMPDEST PUSH2 0x1273 DUP2 PUSH2 0x125F JUMP JUMPDEST DUP3 MSTORE POP POP JUMP JUMPDEST PUSH0 PUSH1 0x20 DUP3 ADD SWAP1 POP PUSH2 0x128C PUSH0 DUP4 ADD DUP5 PUSH2 0x126A JUMP JUMPDEST SWAP3 SWAP2 POP POP JUMP JUMPDEST PUSH0 PUSH1 0x20 DUP3 DUP5 SUB SLT ISZERO PUSH2 0x12A7 JUMPI PUSH2 0x12A6 PUSH2 0x1165 JUMP JUMPDEST JUMPDEST PUSH0 PUSH2 0x12B4 DUP5 DUP3 DUP6 ADD PUSH2 0x11E2 JUMP JUMPDEST SWAP2 POP POP SWAP3 SWAP2 POP POP JUMP JUMPDEST PUSH0 DUP2 MLOAD SWAP1 POP SWAP2 SWAP1 POP JUMP JUMPDEST PUSH0 DUP3 DUP3 MSTORE PUSH1 0x20 DUP3 ADD SWAP1 POP SWAP3 SWAP2 POP POP JUMP JUMPDEST PUSH0 DUP2 SWAP1 POP PUSH1 0x20 DUP3 ADD SWAP1 POP SWAP2 SWAP1 POP JUMP JUMPDEST PUSH2 0x12EF DUP2 PUSH2 0x1188 JUMP JUMPDEST DUP3 MSTORE POP POP JUMP JUMPDEST PUSH0 PUSH2 0x1300 DUP4 DUP4 PUSH2 0x12E6 JUMP JUMPDEST PUSH1 0x20 DUP4 ADD SWAP1 POP SWAP3 SWAP2 POP POP JUMP JUMPDEST PUSH0 PUSH1 0x20 DUP3 ADD SWAP1 POP SWAP2 SWAP1 POP JUMP JUMPDEST PUSH0 PUSH2 0x1322 DUP3 PUSH2 0x12BD JUMP JUMPDEST PUSH2 0x132C DUP2 DUP6 PUSH2 0x12C7 JUMP JUMPDEST SWAP4 POP PUSH2 0x1337 DUP4 PUSH2 0x12D7 JUMP JUMPDEST DUP1 PUSH0 JUMPDEST DUP4 DUP2 LT ISZERO PUSH2 0x1367 JUMPI DUP2 MLOAD PUSH2 0x134E DUP9 DUP3 PUSH2 0x12F5 JUMP JUMPDEST SWAP8 POP PUSH2 0x1359 DUP4 PUSH2 0x130C JUMP JUMPDEST SWAP3 POP POP PUSH1 0x1 DUP2 ADD SWAP1 POP PUSH2 0x133A JUMP JUMPDEST POP DUP6 SWAP4 POP POP POP POP SWAP3 SWAP2 POP POP JUMP JUMPDEST PUSH0 PUSH1 0x20 DUP3 ADD SWAP1 POP DUP2 DUP2 SUB PUSH0 DUP4 ADD MSTORE PUSH2 0x138C DUP2 DUP5 PUSH2 0x1318 JUMP JUMPDEST SWAP1 POP SWAP3 SWAP2 POP POP JUMP JUMPDEST PUSH0 DUP1 PUSH0 PUSH1 0x60 DUP5 DUP7 SUB SLT ISZERO PUSH2 0x13AB JUMPI PUSH2 0x13AA PUSH2 0x1165 JUMP JUMPDEST JUMPDEST PUSH0 PUSH2 0x13B8 DUP7 DUP3 DUP8 ADD PUSH2 0x11AF JUMP JUMPDEST SWAP4 POP POP PUSH1 0x20 PUSH2 0x13C9 DUP7 DUP3 DUP8 ADD PUSH2 0x11AF JUMP JUMPDEST SWAP3 POP POP PUSH1 0x40 PUSH2 0x13DA DUP7 DUP3 DUP8 ADD PUSH2 0x11AF JUMP JUMPDEST SWAP2 POP POP SWAP3 POP SWAP3 POP SWAP3 JUMP JUMPDEST PUSH2 0x13ED DUP2 PUSH2 0x11C3 JUMP JUMPDEST DUP3 MSTORE POP POP JUMP JUMPDEST PUSH0 PUSH1 0x20 DUP3 ADD SWAP1 POP PUSH2 0x1406 PUSH0 DUP4 ADD DUP5 PUSH2 0x13E4 JUMP JUMPDEST SWAP3 SWAP2 POP POP JUMP JUMPDEST PUSH0 DUP1 PUSH0 PUSH1 0x60 DUP5 DUP7 SUB SLT ISZERO PUSH2 0x1423 JUMPI PUSH2 0x1422 PUSH2 0x1165 JUMP JUMPDEST JUMPDEST PUSH0 PUSH2 0x1430 DUP7 DUP3 DUP8 ADD PUSH2 0x11AF JUMP JUMPDEST SWAP4 POP POP PUSH1 0x20 PUSH2 0x1441 DUP7 DUP3 DUP8 ADD PUSH2 0x11AF JUMP JUMPDEST SWAP3 POP POP PUSH1 0x40 PUSH2 0x1452 DUP7 DUP3 DUP8 ADD PUSH2 0x11E2 JUMP JUMPDEST SWAP2 POP POP SWAP3 POP SWAP3 POP SWAP3 JUMP JUMPDEST PUSH0 DUP3 DUP3 MSTORE PUSH1 0x20 DUP3 ADD SWAP1 POP SWAP3 SWAP2 POP POP JUMP JUMPDEST PUSH32 0x4753323033000000000000000000000000000000000000000000000000000000 PUSH0 DUP3 ADD MSTORE POP JUMP JUMPDEST PUSH0 PUSH2 0x14A0 PUSH1 0x5 DUP4 PUSH2 0x145C JUMP JUMPDEST SWAP2 POP PUSH2 0x14AB DUP3 PUSH2 0x146C JUMP JUMPDEST PUSH1 0x20 DUP3 ADD SWAP1 POP SWAP2 SWAP1 POP JUMP JUMPDEST PUSH0 PUSH1 0x20 DUP3 ADD SWAP1 POP DUP2 DUP2 SUB PUSH0 DUP4 ADD MSTORE PUSH2 0x14CD DUP2 PUSH2 0x1494 JUMP JUMPDEST SWAP1 POP SWAP2 SWAP1 POP JUMP JUMPDEST PUSH32 0x4753323034000000000000000000000000000000000000000000000000000000 PUSH0 DUP3 ADD MSTORE POP JUMP JUMPDEST PUSH0 PUSH2 0x1508 PUSH1 0x5 DUP4 PUSH2 0x145C JUMP JUMPDEST SWAP2 POP PUSH2 0x1513 DUP3 PUSH2 0x14D4 JUMP JUMPDEST PUSH1 0x20 DUP3 ADD SWAP1 POP SWAP2 SWAP1 POP JUMP JUMPDEST PUSH0 PUSH1 0x20 DUP3 ADD SWAP1 POP DUP2 DUP2 SUB PUSH0 DUP4 ADD MSTORE PUSH2 0x1535 DUP2 PUSH2 0x14FC JUMP JUMPDEST SWAP1 POP SWAP2 SWAP1 POP JUMP JUMPDEST PUSH32 0x4E487B7100000000000000000000000000000000000000000000000000000000 PUSH0 MSTORE PUSH1 0x11 PUSH1 0x4 MSTORE PUSH1 0x24 PUSH0 REVERT JUMPDEST PUSH0 PUSH2 0x1573 DUP3 PUSH2 0x11C3 JUMP JUMPDEST SWAP2 POP PUSH32 0xFFFFFFFFFFFFFFFFFFFFFFFFFFFFFFFFFFFFFFFFFFFFFFFFFFFFFFFFFFFFFFFF DUP3 SUB PUSH2 0x15A5 JUMPI PUSH2 0x15A4 PUSH2 0x153C JUMP JUMPDEST JUMPDEST PUSH1 0x1 DUP3 ADD SWAP1 POP SWAP2 SWAP1 POP JUMP JUMPDEST PUSH2 0x15B9 DUP2 PUSH2 0x1188 JUMP JUMPDEST DUP3 MSTORE POP POP JUMP JUMPDEST PUSH0 PUSH1 0x20 DUP3 ADD SWAP1 POP PUSH2 0x15D2 PUSH0 DUP4 ADD DUP5 PUSH2 0x15B0 JUMP JUMPDEST SWAP3 SWAP2 POP POP JUMP JUMPDEST PUSH32 0x4753323031000000000000000000000000000000000000000000000000000000 PUSH0 DUP3 ADD MSTORE POP JUMP JUMPDEST PUSH0 PUSH2 0x160C PUSH1 0x5 DUP4 PUSH2 0x145C JUMP JUMPDEST SWAP2 POP PUSH2 0x1617 DUP3 PUSH2 0x15D8 JUMP JUMPDEST PUSH1 0x20 DUP3 ADD SWAP1 POP SWAP2 SWAP1 POP JUMP JUMPDEST PUSH0 PUSH1 0x20 DUP3 ADD SWAP1 POP DUP2 DUP2 SUB PUSH0 DUP4 ADD MSTORE PUSH2 0x1639 DUP2 PUSH2 0x1600 JUMP JUMPDEST SWAP1 POP SWAP2 SWAP1 POP JUMP JUMPDEST PUSH32 0x4753323032000000000000000000000000000000000000000000000000000000 PUSH0 DUP3 ADD MSTORE POP JUMP JUMPDEST PUSH0 PUSH2 0x1674 PUSH1 0x5 DUP4 PUSH2 0x145C JUMP JUMPDEST SWAP2 POP PUSH2 0x167F DUP3 PUSH2 0x1640 JUMP JUMPDEST PUSH1 0x20 DUP3 ADD SWAP1 POP SWAP2 SWAP1 POP JUMP JUMPDEST PUSH0 PUSH1 0x20 DUP3 ADD SWAP1 POP DUP2 DUP2 SUB PUSH0 DUP4 ADD MSTORE PUSH2 0x16A1 DUP2 PUSH2 0x1668 JUMP JUMPDEST SWAP1 POP SWAP2 SWAP1 POP JUMP JUMPDEST PUSH32 0x4E487B7100000000000000000000000000000000000000000000000000000000 PUSH0 MSTORE PUSH1 0x41 PUSH1 0x4 MSTORE PUSH1 0x24 PUSH0 REVERT JUMPDEST PUSH32 0x4E487B7100000000000000000000000000000000000000000000000000000000 PUSH0 MSTORE PUSH1 0x32 PUSH1 0x4 MSTORE PUSH1 0x24 PUSH0 REVERT JUMPDEST PUSH32 0x4753323035000000000000000000000000000000000000000000000000000000 PUSH0 DUP3 ADD MSTORE POP JUMP JUMPDEST PUSH0 PUSH2 0x1736 PUSH1 0x5 DUP4 PUSH2 0x145C JUMP JUMPDEST SWAP2 POP PUSH2 0x1741 DUP3 PUSH2 0x1702 JUMP JUMPDEST PUSH1 0x20 DUP3 ADD SWAP1 POP SWAP2 SWAP1 POP JUMP JUMPDEST PUSH0 PUSH1 0x20 DUP3 ADD SWAP1 POP DUP2 DUP2 SUB PUSH0 DUP4 ADD MSTORE PUSH2 0x1763 DUP2 PUSH2 0x172A JUMP JUMPDEST SWAP1 POP SWAP2 SWAP1 POP JUMP JUMPDEST PUSH0 PUSH2 0x1774 DUP3 PUSH2 0x11C3 JUMP JUMPDEST SWAP2 POP PUSH2 0x177F DUP4 PUSH2 0x11C3 JUMP JUMPDEST SWAP3 POP DUP3 DUP3 SUB SWAP1 POP DUP2 DUP2 GT ISZERO PUSH2 0x1797 JUMPI PUSH2 0x1796 PUSH2 0x153C JUMP JUMPDEST JUMPDEST SWAP3 SWAP2 POP POP JUMP JUMPDEST PUSH0 PUSH2 0x17A7 DUP3 PUSH2 0x11C3 JUMP JUMPDEST SWAP2 POP PUSH0 DUP3 SUB PUSH2 0x17B9 JUMPI PUSH2 0x17B8 PUSH2 0x153C JUMP JUMPDEST JUMPDEST PUSH1 0x1 DUP3 SUB SWAP1 POP SWAP2 SWAP1 POP JUMP JUMPDEST PUSH32 0x4753303331000000000000000000000000000000000000000000000000000000 PUSH0 DUP3 ADD MSTORE POP JUMP JUMPDEST PUSH0 PUSH2 0x17F8 PUSH1 0x5 DUP4 PUSH2 0x145C JUMP JUMPDEST SWAP2 POP PUSH2 0x1803 DUP3 PUSH2 0x17C4 JUMP JUMPDEST PUSH1 0x20 DUP3 ADD SWAP1 POP SWAP2 SWAP1 POP JUMP JUMPDEST PUSH0 PUSH1 0x20 DUP3 ADD SWAP1 POP DUP2 DUP2 SUB PUSH0 DUP4 ADD MSTORE PUSH2 0x1825 DUP2 PUSH2 0x17EC JUMP JUMPDEST SWAP1 POP SWAP2 SWAP1 POP JUMP INVALID LOG2 PUSH5 0x6970667358 0x22 SLT KECCAK256 BYTE BLOBBASEFEE PUSH19 0x25EE9E853554EA13BC0CC3A5360D3991BD115 0xE1 CODECOPY PUSH18 0xDB19FCB96A928864736F6C63430008180033 "
				},
				"gasEstimates": {
					"creation": {
						"codeDepositCost": "1248400",
						"executionCost": "1300",
						"totalCost": "1249700"
					},
					"external": {
						"addOwnerWithThreshold(address,uint256)": "infinite",
						"changeThreshold(uint256)": "infinite",
						"getOwners()": "infinite",
						"getThreshold()": "2476",
						"isOwner(address)": "2959",
						"removeOwner(address,address,uint256)": "infinite",
						"swapOwner(address,address,address)": "infinite"
					},
					"internal": {
						"setupOwners(address[] memory,uint256)": "infinite"
					}
				},
				"methodIdentifiers": {
					"addOwnerWithThreshold(address,uint256)": "0d582f13",
					"changeThreshold(uint256)": "694e80c3",
					"getOwners()": "a0e67e2b",
					"getThreshold()": "e75235b8",
					"isOwner(address)": "2f54bf6e",
					"removeOwner(address,address,uint256)": "f8dc5dd9",
					"swapOwner(address,address,address)": "e318b52b"
				}
			},
			"storageLayout": {
				"storage": [
					{
						"astId": 27,
						"contract": ".deps/npm/@gnosis.pm/safe-contracts@1.3.0/contracts/base/OwnerManager.sol:OwnerManager",
						"label": "owners",
						"offset": 0,
						"slot": "0",
						"type": "t_mapping(t_address,t_address)"
					},
					{
						"astId": 29,
						"contract": ".deps/npm/@gnosis.pm/safe-contracts@1.3.0/contracts/base/OwnerManager.sol:OwnerManager",
						"label": "ownerCount",
						"offset": 0,
						"slot": "1",
						"type": "t_uint256"
					},
					{
						"astId": 31,
						"contract": ".deps/npm/@gnosis.pm/safe-contracts@1.3.0/contracts/base/OwnerManager.sol:OwnerManager",
						"label": "threshold",
						"offset": 0,
						"slot": "2",
						"type": "t_uint256"
					}
				],
				"types": {
					"t_address": {
						"encoding": "inplace",
						"label": "address",
						"numberOfBytes": "20"
					},
					"t_mapping(t_address,t_address)": {
						"encoding": "mapping",
						"key": "t_address",
						"label": "mapping(address => address)",
						"numberOfBytes": "32",
						"value": "t_address"
					},
					"t_uint256": {
						"encoding": "inplace",
						"label": "uint256",
						"numberOfBytes": "32"
					}
				}
			},
			"userdoc": {
				"kind": "user",
				"methods": {
					"addOwnerWithThreshold(address,uint256)": {
						"notice": "Adds the owner `owner` to the Safe and updates the threshold to `_threshold`."
					},
					"changeThreshold(uint256)": {
						"notice": "Changes the threshold of the Safe to `_threshold`."
					},
					"removeOwner(address,address,uint256)": {
						"notice": "Removes the owner `owner` from the Safe and updates the threshold to `_threshold`."
					},
					"swapOwner(address,address,address)": {
						"notice": "Replaces the owner `oldOwner` in the Safe with `newOwner`."
					}
				},
				"version": 1
			}
		}
	}
}